{"project/contracts/Campaign.sol":{"LLMFundraising":{"abi":[{"inputs":[{"internalType":"uint256","name":"_campaignId","type":"uint256"},{"internalType":"uint256","name":"_targetAmount","type":"uint256"},{"internalType":"uint256","name":"_duration","type":"uint256"},{"internalType":"uint256","name":"_startTimestamp","type":"uint256"},{"internalType":"uint256","name":"_templateId","type":"uint256"},{"internalType":"string","name":"_campaignName","type":"string"},{"internalType":"string","name":"_campaignURI","type":"string"},{"internalType":"address","name":"_usdc","type":"address"},{"internalType":"address","name":"_gpuLease","type":"address"},{"internalType":"address","name":"_participantRegistry","type":"address"},{"internalType":"address","name":"_campaignOwner","type":"address"}],"stateMutability":"nonpayable","type":"constructor"},{"inputs":[{"internalType":"address","name":"sender","type":"address"},{"internalType":"uint256","name":"tokenId","type":"uint256"},{"internalType":"address","name":"owner","type":"address"}],"name":"ERC721IncorrectOwner","type":"error"},{"inputs":[{"internalType":"address","name":"operator","type":"address"},{"internalType":"uint256","name":"tokenId","type":"uint256"}],"name":"ERC721InsufficientApproval","type":"error"},{"inputs":[{"internalType":"address","name":"approver","type":"address"}],"name":"ERC721InvalidApprover","type":"error"},{"inputs":[{"internalType":"address","name":"operator","type":"address"}],"name":"ERC721InvalidOperator","type":"error"},{"inputs":[{"internalType":"address","name":"owner","type":"address"}],"name":"ERC721InvalidOwner","type":"error"},{"inputs":[{"internalType":"address","name":"receiver","type":"address"}],"name":"ERC721InvalidReceiver","type":"error"},{"inputs":[{"internalType":"address","name":"sender","type":"address"}],"name":"ERC721InvalidSender","type":"error"},{"inputs":[{"internalType":"uint256","name":"tokenId","type":"uint256"}],"name":"ERC721NonexistentToken","type":"error"},{"inputs":[{"internalType":"address","name":"owner","type":"address"}],"name":"OwnableInvalidOwner","type":"error"},{"inputs":[{"internalType":"address","name":"account","type":"address"}],"name":"OwnableUnauthorizedAccount","type":"error"},{"inputs":[],"name":"ReentrancyGuardReentrantCall","type":"error"},{"inputs":[{"internalType":"address","name":"token","type":"address"}],"name":"SafeERC20FailedOperation","type":"error"},{"anonymous":false,"inputs":[{"indexed":true,"internalType":"address","name":"owner","type":"address"},{"indexed":true,"internalType":"address","name":"approved","type":"address"},{"indexed":true,"internalType":"uint256","name":"tokenId","type":"uint256"}],"name":"Approval","type":"event"},{"anonymous":false,"inputs":[{"indexed":true,"internalType":"address","name":"owner","type":"address"},{"indexed":true,"internalType":"address","name":"operator","type":"address"},{"indexed":false,"internalType":"bool","name":"approved","type":"bool"}],"name":"ApprovalForAll","type":"event"},{"anonymous":false,"inputs":[{"indexed":true,"internalType":"address","name":"donor","type":"address"},{"indexed":false,"internalType":"enum LLMFundraising.BackerGrade","name":"previousGrade","type":"uint8"},{"indexed":false,"internalType":"enum LLMFundraising.BackerGrade","name":"newGrade","type":"uint8"},{"indexed":false,"internalType":"uint256","name":"totalDonated","type":"uint256"},{"indexed":false,"internalType":"uint256","name":"targetShareBps","type":"uint256"}],"name":"BackerGradeUpdated","type":"event"},{"anonymous":false,"inputs":[{"indexed":true,"internalType":"address","name":"donor","type":"address"},{"indexed":true,"internalType":"uint256","name":"tokenId","type":"uint256"},{"indexed":false,"internalType":"string","name":"campaignName","type":"string"},{"indexed":false,"internalType":"enum LLMFundraising.BackerGrade","name":"grade","type":"uint8"}],"name":"BackerRewardMinted","type":"event"},{"anonymous":false,"inputs":[{"indexed":false,"internalType":"uint256","name":"totalRaised","type":"uint256"}],"name":"CampaignFailed","type":"event"},{"anonymous":false,"inputs":[{"indexed":false,"internalType":"uint256","name":"totalRaised","type":"uint256"}],"name":"CampaignSucceeded","type":"event"},{"anonymous":false,"inputs":[{"indexed":true,"internalType":"address","name":"donor","type":"address"},{"indexed":false,"internalType":"uint256","name":"amount","type":"uint256"},{"indexed":false,"internalType":"uint256","name":"totalDonated","type":"uint256"},{"indexed":false,"internalType":"enum LLMFundraising.BackerGrade","name":"grade","type":"uint8"}],"name":"Donated","type":"event"},{"anonymous":false,"inputs":[{"indexed":true,"internalType":"address","name":"gpuLease","type":"address"},{"indexed":false,"internalType":"uint256","name":"amount","type":"uint256"}],"name":"FundsTransferred","type":"event"},{"anonymous":false,"inputs":[{"indexed":true,"internalType":"address","name":"previousOwner","type":"address"},{"indexed":true,"internalType":"address","name":"newOwner","type":"address"}],"name":"OwnershipTransferred","type":"event"},{"anonymous":false,"inputs":[{"indexed":true,"internalType":"address","name":"donor","type":"address"},{"indexed":false,"internalType":"uint256","name":"amount","type":"uint256"}],"name":"Refunded","type":"event"},{"anonymous":false,"inputs":[{"indexed":true,"internalType":"address","name":"from","type":"address"},{"indexed":true,"internalType":"address","name":"to","type":"address"},{"indexed":true,"internalType":"uint256","name":"tokenId","type":"uint256"}],"name":"Transfer","type":"event"},{"inputs":[{"internalType":"address","name":"to","type":"address"},{"internalType":"uint256","name":"tokenId","type":"uint256"}],"name":"approve","outputs":[],"stateMutability":"nonpayable","type":"function"},{"inputs":[{"internalType":"address","name":"","type":"address"}],"name":"backerGrades","outputs":[{"internalType":"enum LLMFundraising.BackerGrade","name":"","type":"uint8"}],"stateMutability":"view","type":"function"},{"inputs":[{"internalType":"address","name":"owner","type":"address"}],"name":"balanceOf","outputs":[{"internalType":"uint256","name":"","type":"uint256"}],"stateMutability":"view","type":"function"},{"inputs":[],"name":"campaignId","outputs":[{"internalType":"uint256","name":"","type":"uint256"}],"stateMutability":"view","type":"function"},{"inputs":[],"name":"campaignName","outputs":[{"internalType":"string","name":"","type":"string"}],"stateMutability":"view","type":"function"},{"inputs":[],"name":"campaignURI","outputs":[{"internalType":"string","name":"","type":"string"}],"stateMutability":"view","type":"function"},{"inputs":[],"name":"checkConditions","outputs":[{"internalType":"bool","name":"expired","type":"bool"},{"internalType":"bool","name":"reached","type":"bool"}],"stateMutability":"view","type":"function"},{"inputs":[],"name":"checkState","outputs":[],"stateMutability":"nonpayable","type":"function"},{"inputs":[],"name":"claimBackerReward","outputs":[{"internalType":"uint256","name":"tokenId","type":"uint256"}],"stateMutability":"nonpayable","type":"function"},{"inputs":[],"name":"deadline","outputs":[{"internalType":"uint256","name":"","type":"uint256"}],"stateMutability":"view","type":"function"},{"inputs":[{"internalType":"uint256","name":"amount","type":"uint256"}],"name":"donate","outputs":[],"stateMutability":"nonpayable","type":"function"},{"inputs":[{"internalType":"address","name":"","type":"address"}],"name":"donations","outputs":[{"internalType":"uint256","name":"","type":"uint256"}],"stateMutability":"view","type":"function"},{"inputs":[{"internalType":"uint256","name":"index","type":"uint256"}],"name":"donorAt","outputs":[{"internalType":"address","name":"","type":"address"}],"stateMutability":"view","type":"function"},{"inputs":[{"internalType":"address","name":"donor","type":"address"}],"name":"donorInfo","outputs":[{"internalType":"bool","name":"participated","type":"bool"},{"internalType":"uint256","name":"donatedAmount","type":"uint256"},{"internalType":"uint256","name":"targetShareBps","type":"uint256"},{"internalType":"enum LLMFundraising.BackerGrade","name":"grade","type":"uint8"},{"internalType":"bool","name":"wasRefunded","type":"bool"},{"internalType":"uint256","name":"rewardTokenId","type":"uint256"}],"stateMutability":"view","type":"function"},{"inputs":[{"internalType":"address","name":"donor","type":"address"}],"name":"donorShareBps","outputs":[{"internalType":"uint256","name":"","type":"uint256"}],"stateMutability":"view","type":"function"},{"inputs":[],"name":"donors","outputs":[{"internalType":"address[]","name":"","type":"address[]"}],"stateMutability":"view","type":"function"},{"inputs":[],"name":"donorsCount","outputs":[{"internalType":"uint256","name":"","type":"uint256"}],"stateMutability":"view","type":"function"},{"inputs":[{"internalType":"uint256","name":"offset","type":"uint256"},{"internalType":"uint256","name":"limit","type":"uint256"}],"name":"donorsSlice","outputs":[{"internalType":"address[]","name":"donors_","type":"address[]"}],"stateMutability":"view","type":"function"},{"inputs":[],"name":"duration","outputs":[{"internalType":"uint256","name":"","type":"uint256"}],"stateMutability":"view","type":"function"},{"inputs":[{"internalType":"uint256","name":"tokenId","type":"uint256"}],"name":"getApproved","outputs":[{"internalType":"address","name":"","type":"address"}],"stateMutability":"view","type":"function"},{"inputs":[],"name":"gpuLease","outputs":[{"internalType":"contract IGPULease","name":"","type":"address"}],"stateMutability":"view","type":"function"},{"inputs":[{"internalType":"address","name":"donor","type":"address"}],"name":"gradeForDonation","outputs":[{"internalType":"enum LLMFundraising.BackerGrade","name":"","type":"uint8"}],"stateMutability":"view","type":"function"},{"inputs":[{"internalType":"address","name":"","type":"address"}],"name":"hasDonated","outputs":[{"internalType":"bool","name":"","type":"bool"}],"stateMutability":"view","type":"function"},{"inputs":[{"internalType":"address","name":"owner","type":"address"},{"internalType":"address","name":"operator","type":"address"}],"name":"isApprovedForAll","outputs":[{"internalType":"bool","name":"","type":"bool"}],"stateMutability":"view","type":"function"},{"inputs":[],"name":"isExpired","outputs":[{"internalType":"bool","name":"","type":"bool"}],"stateMutability":"view","type":"function"},{"inputs":[],"name":"isTargetReached","outputs":[{"internalType":"bool","name":"","type":"bool"}],"stateMutability":"view","type":"function"},{"inputs":[{"internalType":"uint256","name":"offset","type":"uint256"},{"internalType":"uint256","name":"limit","type":"uint256"}],"name":"mintBackerRewards","outputs":[{"internalType":"uint256","name":"minted","type":"uint256"}],"stateMutability":"nonpayable","type":"function"},{"inputs":[],"name":"name","outputs":[{"internalType":"string","name":"","type":"string"}],"stateMutability":"view","type":"function"},{"inputs":[],"name":"nextRewardTokenId","outputs":[{"internalType":"uint256","name":"","type":"uint256"}],"stateMutability":"view","type":"function"},{"inputs":[],"name":"owner","outputs":[{"internalType":"address","name":"","type":"address"}],"stateMutability":"view","type":"function"},{"inputs":[{"internalType":"uint256","name":"tokenId","type":"uint256"}],"name":"ownerOf","outputs":[{"internalType":"address","name":"","type":"address"}],"stateMutability":"view","type":"function"},{"inputs":[],"name":"participantRegistry","outputs":[{"internalType":"contract ICampaignParticipantRegistry","name":"","type":"address"}],"stateMutability":"view","type":"function"},{"inputs":[],"name":"refund","outputs":[],"stateMutability":"nonpayable","type":"function"},{"inputs":[{"internalType":"address","name":"","type":"address"}],"name":"refunded","outputs":[{"internalType":"bool","name":"","type":"bool"}],"stateMutability":"view","type":"function"},{"inputs":[],"name":"renounceOwnership","outputs":[],"stateMutability":"nonpayable","type":"function"},{"inputs":[{"internalType":"address","name":"","type":"address"}],"name":"rewardTokenByDonor","outputs":[{"internalType":"uint256","name":"","type":"uint256"}],"stateMutability":"view","type":"function"},{"inputs":[{"internalType":"uint256","name":"","type":"uint256"}],"name":"rewardTokenGrades","outputs":[{"internalType":"enum LLMFundraising.BackerGrade","name":"","type":"uint8"}],"stateMutability":"view","type":"function"},{"inputs":[{"internalType":"address","name":"from","type":"address"},{"internalType":"address","name":"to","type":"address"},{"internalType":"uint256","name":"tokenId","type":"uint256"}],"name":"safeTransferFrom","outputs":[],"stateMutability":"nonpayable","type":"function"},{"inputs":[{"internalType":"address","name":"from","type":"address"},{"internalType":"address","name":"to","type":"address"},{"internalType":"uint256","name":"tokenId","type":"uint256"},{"internalType":"bytes","name":"data","type":"bytes"}],"name":"safeTransferFrom","outputs":[],"stateMutability":"nonpayable","type":"function"},{"inputs":[{"internalType":"address","name":"operator","type":"address"},{"internalType":"bool","name":"approved","type":"bool"}],"name":"setApprovalForAll","outputs":[],"stateMutability":"nonpayable","type":"function"},{"inputs":[],"name":"startTimestamp","outputs":[{"internalType":"uint256","name":"","type":"uint256"}],"stateMutability":"view","type":"function"},{"inputs":[],"name":"state","outputs":[{"internalType":"enum LLMFundraising.CampaignState","name":"","type":"uint8"}],"stateMutability":"view","type":"function"},{"inputs":[{"internalType":"bytes4","name":"interfaceId","type":"bytes4"}],"name":"supportsInterface","outputs":[{"internalType":"bool","name":"","type":"bool"}],"stateMutability":"view","type":"function"},{"inputs":[],"name":"symbol","outputs":[{"internalType":"string","name":"","type":"string"}],"stateMutability":"view","type":"function"},{"inputs":[],"name":"targetAmount","outputs":[{"internalType":"uint256","name":"","type":"uint256"}],"stateMutability":"view","type":"function"},{"inputs":[],"name":"templateId","outputs":[{"internalType":"uint256","name":"","type":"uint256"}],"stateMutability":"view","type":"function"},{"inputs":[{"internalType":"uint256","name":"tokenId","type":"uint256"}],"name":"tokenURI","outputs":[{"internalType":"string","name":"","type":"string"}],"stateMutability":"view","type":"function"},{"inputs":[],"name":"totalRaised","outputs":[{"internalType":"uint256","name":"","type":"uint256"}],"stateMutability":"view","type":"function"},{"inputs":[{"internalType":"address","name":"from","type":"address"},{"internalType":"address","name":"to","type":"address"},{"internalType":"uint256","name":"tokenId","type":"uint256"}],"name":"transferFrom","outputs":[],"stateMutability":"nonpayable","type":"function"},{"inputs":[{"internalType":"address","name":"newOwner","type":"address"}],"name":"transferOwnership","outputs":[],"stateMutability":"nonpayable","type":"function"},{"inputs":[],"name":"usdc","outputs":[{"internalType":"contract IERC20","name":"","type":"address"}],"stateMutability":"view","type":"function"}],"evm":{"bytecode":{"linkReferences":{},"object":"6101806040526001600b55348015610015575f5ffd5b50604051613c79380380613c798339810160408190526100349161040e565b604080518082018252601681527f4c4c4d2046756e6472616973696e67204261636b65720000000000000000000060208083019190915282518084019093526009835268262626a120a1a5a2a960b91b9083015290826001600160a01b0381166100b857604051631e4fbdf760e01b81525f60048201526024015b60405180910390fd5b6100c1816102e3565b5060016100ce8382610580565b5060026100db8282610580565b50505060016100f46100f161033260201b60201c565b90565b556001600160a01b0384166101375760405162461bcd60e51b81526020600482015260096024820152687a65726f207573646360b81b60448201526064016100af565b6001600160a01b03831661017d5760405162461bcd60e51b815260206004820152600d60248201526c7a65726f206770754c6561736560981b60448201526064016100af565b6001600160a01b0382166101c35760405162461bcd60e51b815260206004820152600d60248201526c7a65726f20726567697374727960981b60448201526064016100af565b5f8a116102005760405162461bcd60e51b815260206004820152600b60248201526a1e995c9bc81d185c99d95d60aa1b60448201526064016100af565b5f891161023f5760405162461bcd60e51b815260206004820152600d60248201526c3d32b93790323ab930ba34b7b760991b60448201526064016100af565b5f86511161027c5760405162461bcd60e51b815260206004820152600a602482015269656d707479206e616d6560b01b60448201526064016100af565b60808b905260a08a905260e089905260c088905261010087905260076102a28782610580565b5060086102af8682610580565b50506001600160a01b039283166101205290821661014052166101605250506009805460ff191690555061063a9350505050565b5f80546001600160a01b038381166001600160a01b0319831681178455604051919092169283917f8be0079c531659141344cd1fd0a4f28419497f9722a3daafe3b4186f6b6457e09190a35050565b7f9b779b17422d0df92223018b32b4d1fa46e071723d6817e2486d003becc55f0090565b634e487b7160e01b5f52604160045260245ffd5b5f82601f830112610379575f5ffd5b81516001600160401b0381111561039257610392610356565b604051601f8201601f19908116603f011681016001600160401b03811182821017156103c0576103c0610356565b6040528181528382016020018510156103d7575f5ffd5b8160208501602083015e5f918101602001919091529392505050565b80516001600160a01b0381168114610409575f5ffd5b919050565b5f5f5f5f5f5f5f5f5f5f5f6101608c8e031215610429575f5ffd5b5f8c519050809b50505f60208d01519050809a50505f60408d01519050809950505f60608d01519050809850505f60808d015190508097505060a08c015160018060401b03811115610479575f5ffd5b6104858e828f0161036a565b60c08e015190975090506001600160401b038111156104a2575f5ffd5b6104ae8e828f0161036a565b9550506104bd60e08d016103f3565b93506104cc6101008d016103f3565b92506104db6101208d016103f3565b91506104ea6101408d016103f3565b90509295989b509295989b9093969950565b600181811c9082168061051057607f821691505b60208210810361052e57634e487b7160e01b5f52602260045260245ffd5b50919050565b601f82111561057b57805f5260205f20601f840160051c810160208510156105595750805b601f840160051c820191505b81811015610578575f8155600101610565565b50505b505050565b81516001600160401b0381111561059957610599610356565b6105ad816105a784546104fc565b84610534565b6020601f8211600181146105df575f83156105c85750848201515b5f19600385901b1c1916600184901b178455610578565b5f84815260208120601f198516915b8281101561060e57878501518255602094850194600190920191016105ee565b508482101561062b57868401515f19600387901b60f8161c191681555b50505050600190811b01905550565b60805160a05160c05160e051610100516101205161014051610160516135746107055f395f8181610534015261138601525f81816103a301528181612b9e01528181612bd90152612c3a01525f81816103d301528181610c55015281816112de015281816126140152612b7c01525f61048001525f81816103010152610a4201525f818161068501528181610a6301526111f901525f81816104fd01528181610cc101528181610d5f0152818161268c01526127b801525f81816104d601526110ea01526135745ff3fe608060405234801561000f575f5ffd5b506004361061024f575f3560e01c806301ffc9a71461025357806306fdde031461027b5780630724fda914610290578063081812fc14610298578063095ea7b3146102b85780630a19f69c146102cd5780630fb5a6b4146102fc578063106417821461033157806317294a111461034457806323b872dd1461036657806329dcb0cf146103795780632f13b60c146103815780633087110a146103895780633358970b1461039e57806335909603146103c55780633e413bee146103ce57806342842e0e146103f5578063590e1ae3146104085780635e098f05146104105780636352211e1461041857806370a082311461042b578063715018a61461043e5780637592e8881461044657806377d6444c146104685780637aa77f291461047b5780637b338e14146104a25780638cc05bec146104aa5780638da5cb5b146104c95780638ed5b0fc146104d1578063953b8fb8146104f857806395d89b411461051f57806396dfcbea146105275780639e9ca5911461052f5780639ff534dc14610556578063a22cb4651461055e578063a263d77214610571578063a729dd7c14610584578063aad7c90c146105a9578063b88d4fde146105bc578063bffd11bb146105cf578063c033a490146105e2578063c19d93fb14610604578063c5c4744c1461061e578063c87b56dd14610627578063cc6cb19a1461063a578063db912e3714610659578063dfd09fa514610661578063e6fd48bc14610680578063e985e9c5146106a7578063f14faf6f146106ba578063f2fde38b146106cd575b5f5ffd5b610266610261366004612da3565b6106e0565b60405190151581526020015b60405180910390f35b610283610731565b6040516102729190612dec565b6102836107c1565b6102ab6102a6366004612dfe565b61084d565b6040516102729190612e15565b6102cb6102c6366004612e44565b610861565b005b6102ef6102db366004612e6c565b600f6020525f908152604090205460ff1681565b6040516102729190612ead565b6103237f000000000000000000000000000000000000000000000000000000000000000081565b604051908152602001610272565b61032361033f366004612ebb565b610870565b610266610352366004612e6c565b60106020525f908152604090205460ff1681565b6102cb610374366004612edb565b6109b3565b610323610a3c565b610266610a8c565b610391610a9d565b6040516102729190612f15565b6102ab7f000000000000000000000000000000000000000000000000000000000000000081565b610323600b5481565b6102ab7f000000000000000000000000000000000000000000000000000000000000000081565b6102cb610403366004612edb565b610afc565b6102cb610b1b565b610266610cbc565b6102ab610426366004612dfe565b610ce5565b610323610439366004612e6c565b610cef565b6102cb610d34565b6102ef610454366004612dfe565b60126020525f908152604090205460ff1681565b610323610476366004612e6c565b610d45565b6103237f000000000000000000000000000000000000000000000000000000000000000081565b610323610d96565b6103236104b8366004612e6c565b60116020525f908152604090205481565b6102ab610db5565b6103237f000000000000000000000000000000000000000000000000000000000000000081565b6103237f000000000000000000000000000000000000000000000000000000000000000081565b610283610dc3565b6102cb610dd2565b6102ab7f000000000000000000000000000000000000000000000000000000000000000081565b600c54610323565b6102cb61056c366004612f60565b610e30565b61039161057f366004612ebb565b610e3b565b610597610592366004612e6c565b610f37565b60405161027296959493929190612f99565b6102ab6105b7366004612dfe565b610fb1565b6102cb6105ca366004612fe5565b610fdf565b6102ef6105dd366004612e6c565b610ff7565b6102666105f0366004612e6c565b600e6020525f908152604090205460ff1681565b6009546106119060ff1681565b60405161027291906130bf565b610323600a5481565b610283610635366004612dfe565b611018565b610323610648366004612e6c565b600d6020525f908152604090205481565b610283611166565b610669611173565b604080519215158352901515602083015201610272565b6103237f000000000000000000000000000000000000000000000000000000000000000081565b6102666106b53660046130d9565b61118d565b6102cb6106c8366004612dfe565b6111ba565b6102cb6106db366004612e6c565b61149a565b5f6001600160e01b031982166380ac58cd60e01b148061071057506001600160e01b03198216635b5e139f60e01b145b8061072b57506301ffc9a760e01b6001600160e01b03198316145b92915050565b6060600180546107409061310a565b80601f016020809104026020016040519081016040528092919081815260200182805461076c9061310a565b80156107b75780601f1061078e576101008083540402835291602001916107b7565b820191905f5260205f20905b81548152906001019060200180831161079a57829003601f168201915b5050505050905090565b600780546107ce9061310a565b80601f01602080910402602001604051908101604052809291908181526020018280546107fa9061310a565b80156108455780601f1061081c57610100808354040283529160200191610845565b820191905f5260205f20905b81548152906001019060200180831161082857829003601f168201915b505050505081565b5f610857826114d4565b5061072b8261150b565b61086c828233611525565b5050565b5f610879611532565b5f82116108ba5760405162461bcd60e51b815260206004820152600a6024820152691e995c9bc81b1a5b5a5d60b21b60448201526064015b60405180910390fd5b600c548084106109025760405162461bcd60e51b81526020600482015260136024820152726f6666736574206f7574206f662072616e676560681b60448201526064016108b1565b5f61090d8486613156565b90508181111561091a5750805b845b818110156109a8575f600c828154811061093857610938613169565b5f9182526020808320909101546001600160a01b0316808352601190915260409091205490915015801561098257506001600160a01b0381165f908152600d602052604090205415155b1561099f576109908161154a565b5061099c600186613156565b94505b5060010161091c565b50505061072b611765565b6001600160a01b0382166109dc575f604051633250574960e11b81526004016108b19190612e15565b5f6109e8838333611772565b9050836001600160a01b0316816001600160a01b031614610a36576040516364283d7b60e01b81526001600160a01b03808616600483015260248201849052821660448201526064016108b1565b50505050565b5f610a877f00000000000000000000000000000000000000000000000000000000000000007f0000000000000000000000000000000000000000000000000000000000000000613156565b905090565b5f610a95610a3c565b421015905090565b6060600c8054806020026020016040519081016040528092919081815260200182805480156107b757602002820191905f5260205f20905b81546001600160a01b03168152600190910190602001808311610ad5575050505050905090565b610b1683838360405180602001604052805f815250610fdf565b505050565b610b23611532565b600260095460ff166002811115610b3c57610b3c612e85565b14610b765760405162461bcd60e51b815260206004820152600a6024820152691b9bdd0819985a5b195960b21b60448201526064016108b1565b335f908152600d602052604090205480610bc65760405162461bcd60e51b81526020600482015260116024820152701b9bdd1a1a5b99c81d1bc81c99599d5b99607a1b60448201526064016108b1565b335f908152600e602052604090205460ff1615610c185760405162461bcd60e51b815260206004820152601060248201526f185b1c9958591e481c99599d5b99195960821b60448201526064016108b1565b335f818152600e60209081526040808320805460ff19166001179055600d9091528120819055610c489190611861565b610c7c6001600160a01b037f0000000000000000000000000000000000000000000000000000000000000000163383611947565b60405181815233907fd7dee2702d63ad89917b6a4da9981c90c4d24f8c2bdfd64c604ecae57d8d06519060200160405180910390a250610cba611765565b565b600a547f0000000000000000000000000000000000000000000000000000000000000000111590565b5f61072b826114d4565b5f6001600160a01b038216610d19575f6040516322718ad960e21b81526004016108b19190612e15565b506001600160a01b03165f9081526004602052604090205490565b610d3c611973565b610cba5f6119a5565b6001600160a01b0381165f908152600d60205260408120547f000000000000000000000000000000000000000000000000000000000000000090610d8c906127109061317d565b61072b9190613194565b5f610d9f611532565b610da83361154a565b9050610db2611765565b90565b5f546001600160a01b031690565b6060600280546107409061310a565b5f60095460ff166002811115610dea57610dea612e85565b14610e285760405162461bcd60e51b815260206004820152600e60248201526d185b1c9958591e4818db1bdcd95960921b60448201526064016108b1565b610cba6119f4565b61086c338383611a1e565b600c54606090808410610e5d575050604080515f81526020810190915261072b565b5f610e688486613156565b905081811115610e755750805b610e7f85826131b3565b6001600160401b03811115610e9657610e96612fd1565b604051908082528060200260200182016040528015610ebf578160200160208202803683370190505b509250845b81811015610f2e57600c8181548110610edf57610edf613169565b5f918252602090912001546001600160a01b031684610efe88846131b3565b81518110610f0e57610f0e613169565b6001600160a01b0390921660209283029190910190910152600101610ec4565b50505092915050565b6001600160a01b0381165f90815260106020908152604080832054600d90925282205460ff90911691808080610f6c87610d45565b6001600160a01b039097165f908152600f6020908152604080832054600e8352818420546011909352922054979996989760ff92831697919092169550909350915050565b5f600c8281548110610fc557610fc5613169565b5f918252602090912001546001600160a01b031692915050565b610fea8484846109b3565b610a363385858585611adc565b6001600160a01b0381165f908152600d602052604081205461072b90611bf2565b6060611023826114d4565b505f8281526012602052604081205461103e9060ff16611c4b565b90505f6110d2600780546110519061310a565b80601f016020809104026020016040519081016040528092919081815260200182805461107d9061310a565b80156110c85780601f1061109f576101008083540402835291602001916110c8565b820191905f5260205f20905b8154815290600101906020018083116110ab57829003601f168201915b5050505050611d6f565b90505f6110de83611d6f565b90505f8282848461110e7f0000000000000000000000000000000000000000000000000000000000000000612291565b6040516020016111229594939291906131dd565b604051602081830303815290604052905061113c81612320565b60405160200161114c9190613367565b604051602081830303815290604052945050505050919050565b600880546107ce9061310a565b5f5f61117d610a8c565b9150611187610cbc565b90509091565b6001600160a01b039182165f90815260066020908152604080832093909416825291909152205460ff1690565b6111c2611532565b5f60095460ff1660028111156111da576111da612e85565b146111f75760405162461bcd60e51b81526004016108b190613398565b7f00000000000000000000000000000000000000000000000000000000000000004210156112555760405162461bcd60e51b815260206004820152600b60248201526a1b9bdd081cdd185c9d195960aa1b60448201526064016108b1565b61125d610a8c565b156112945760405162461bcd60e51b8152602060048201526007602482015266195e1c1a5c995960ca1b60448201526064016108b1565b5f81116112d15760405162461bcd60e51b815260206004820152600b60248201526a1e995c9bc8185b5bdd5b9d60aa1b60448201526064016108b1565b6113066001600160a01b037f00000000000000000000000000000000000000000000000000000000000000001633308461232c565b335f9081526010602052604090205460ff166113f057335f81815260106020526040808220805460ff19166001908117909155600c805491820181559092527fdf6966c971051c3d54ec59162606531493a51404a002842f56009d7e5cf4a8c790910180546001600160a01b03191683179055516307cc9e4f60e41b81527f00000000000000000000000000000000000000000000000000000000000000006001600160a01b031691637cc9e4f0916113c29190600401612e15565b5f604051808303815f87803b1580156113d9575f5ffd5b505af11580156113eb573d5f5f3e3d5ffd5b505050505b335f908152600d60205260408120805483929061140e908490613156565b9250508190555080600a5f8282546114269190613156565b909155505f905061143633612359565b335f818152600d60205260409081902054905192935090917ff04d1237cbd0bf21dc045d2160a825f225935347027ba04bc8645d8138708d199161147e9186919086906133bc565b60405180910390a261148e6119f4565b50611497611765565b50565b6114a2611973565b6001600160a01b0381166114cb575f604051631e4fbdf760e01b81526004016108b19190612e15565b611497816119a5565b5f5f6114df83612388565b90506001600160a01b03811661072b57604051637e27328960e01b8152600481018490526024016108b1565b5f908152600560205260409020546001600160a01b031690565b610b1683838360016123a2565b61153a61249d565b6002611547610db26124c3565b55565b5f600160095460ff16600281111561156457611564612e85565b146115a25760405162461bcd60e51b815260206004820152600e60248201526d1b9bdd081cdd58d8d95cdcd99d5b60921b60448201526064016108b1565b6001600160a01b0382165f908152600d60205260409020546115f25760405162461bcd60e51b81526020600482015260096024820152683737ba103237b737b960b91b60448201526064016108b1565b6001600160a01b0382165f90815260116020526040902054156116485760405162461bcd60e51b815260206004820152600e60248201526d185b1c9958591e481b5a5b9d195960921b60448201526064016108b1565b6001600160a01b0382165f908152600f602052604081205460ff169081600481111561167657611676612e85565b036116ae5760405162461bcd60e51b81526020600482015260086024820152676e6f20677261646560c01b60448201526064016108b1565b600b805492506001905f6116c28386613156565b90915550506001600160a01b0383165f90815260116020908152604080832085905584835260129091529020805482919060ff1916600183600481111561170b5761170b612e85565b021790555061171a83836124e7565b81836001600160a01b03167facc61df05a1322ee40c5459cddfcee8a7dfe0ec8d93272de2f0d978ad481f03e6007846040516117579291906133d7565b60405180910390a350919050565b6001611547610db26124c3565b5f5f61177d84612388565b90506001600160a01b0383161561179957611799818486612500565b6001600160a01b038116156117d3576117b45f855f5f6123a2565b6001600160a01b0381165f90815260046020526040902080545f190190555b6001600160a01b03851615611801576001600160a01b0385165f908152600460205260409020805460010190555b5f8481526003602052604080822080546001600160a01b0319166001600160a01b0389811691821790925591518793918516917fddf252ad1be2c89b69c2b068fc378daa952ba7f163c4a11628f55a4df523b3ef91a490505b9392505050565b6001600160a01b0382165f908152600f602052604090205460ff1681600481111561188e5761188e612e85565b8160048111156118a0576118a0612e85565b036118aa57505050565b6001600160a01b0383165f908152600f60205260409020805483919060ff191660018360048111156118de576118de612e85565b02179055506001600160a01b0383165f818152600d60205260409020547f9edbeab148e39aabe0c088d94c9704b598cce01e40da413e8da79013a4849efb908390859061192a88610d45565b60405161193a949392919061348b565b60405180910390a2505050565b6119548383836001612564565b610b165782604051635274afe760e01b81526004016108b19190612e15565b3361197c610db5565b6001600160a01b031614610cba573360405163118cdaa760e01b81526004016108b19190612e15565b5f80546001600160a01b038381166001600160a01b0319831681178455604051919092169283917f8be0079c531659141344cd1fd0a4f28419497f9722a3daafe3b4186f6b6457e09190a35050565b6119fc610cbc565b15611a0957610cba6125c6565b611a11610a8c565b15610cba57610cba61273b565b6001600160a01b038316611a47575f60405163a9fbf51f60e01b81526004016108b19190612e15565b6001600160a01b038216611a705781604051630b61174360e31b81526004016108b19190612e15565b6001600160a01b038381165f81815260066020908152604080832094871680845294825291829020805460ff191686151590811790915591519182527f17307eab39ab6107e8899845ad3d59bd9653f200f220920489ca2b5937696c31910160405180910390a3505050565b6001600160a01b0383163b15611beb57604051630a85bd0160e11b81526001600160a01b0384169063150b7a0290611b1e9088908890879087906004016134b8565b6020604051808303815f875af1925050508015611b58575060408051601f3d908101601f19168201909252611b55918101906134f4565b60015b611bb6573d808015611b85576040519150601f19603f3d011682016040523d82523d5f602084013e611b8a565b606091505b5080515f03611bae5783604051633250574960e11b81526004016108b19190612e15565b805160208201fd5b6001600160e01b03198116630a85bd0160e11b14611be95783604051633250574960e11b81526004016108b19190612e15565b505b5050505050565b5f815f03611c0157505f919050565b5f611c0b836127b5565b90506105dc8110611c1f5750600492915050565b6101f48110611c315750600392915050565b60648110611c425750600292915050565b50600192915050565b60606004826004811115611c6157611c61612e85565b03611c8d57505060408051808201909152600b81526a2632b0b2102130b1b5b2b960a91b602082015290565b6003826004811115611ca157611ca1612e85565b03611cd157505060408051808201909152600f81526e2337bab73234b733902130b1b5b2b960891b602082015290565b6002826004811115611ce557611ce5612e85565b03611d1157505060408051808201909152600b81526a21b7b73a3934b13aba37b960a91b602082015290565b6001826004811115611d2557611d25612e85565b03611d4f57505060408051808201909152600981526829bab83837b93a32b960b91b602082015290565b50506040805180820190915260048152634e6f6e6560e01b602082015290565b805160609082905f90611d8390600661317d565b6001600160401b03811115611d9a57611d9a612fd1565b6040519080825280601f01601f191660200182016040528015611dc4576020820181803683370190505b5090505f805b8351811015612287575f848281518110611de657611de6613169565b01602001516001600160f81b0319169050606f60f91b8101611e7757601760fa1b8484611e128161350f565b955081518110611e2457611e24613169565b60200101906001600160f81b03191690815f1a905350601160f91b8484611e4a8161350f565b955081518110611e5c57611e5c613169565b60200101906001600160f81b03191690815f1a90535061227e565b602960fa1b6001600160f81b0319821601611ed457601760fa1b8484611e9c8161350f565b955081518110611eae57611eae613169565b60200101906001600160f81b03191690815f1a905350601760fa1b8484611e4a8161350f565b6001600160f81b03198116600160fb1b03611f3157601760fa1b8484611ef98161350f565b955081518110611f0b57611f0b613169565b60200101906001600160f81b03191690815f1a905350603160f91b8484611e4a8161350f565b6001600160f81b03198116600960f81b03611f8e57601760fa1b8484611f568161350f565b955081518110611f6857611f68613169565b60200101906001600160f81b03191690815f1a905350601d60fa1b8484611e4a8161350f565b6001600160f81b03198116600560f91b03611feb57601760fa1b8484611fb38161350f565b955081518110611fc557611fc5613169565b60200101906001600160f81b03191690815f1a905350603760f91b8484611e4a8161350f565b6001600160f81b03198116600360fa1b0361204857601760fa1b84846120108161350f565b95508151811061202257612022613169565b60200101906001600160f81b03191690815f1a905350603360f91b8484611e4a8161350f565b6001600160f81b03198116600d60f81b036120a557601760fa1b848461206d8161350f565b95508151811061207f5761207f613169565b60200101906001600160f81b03191690815f1a905350603960f91b8484611e4a8161350f565b602060f882901c1015612249576f181899199a1a9b1b9c1cb0b131b232b360811b601760fa1b85856120d68161350f565b9650815181106120e8576120e8613169565b60200101906001600160f81b03191690815f1a905350607560f81b858561210e8161350f565b96508151811061212057612120613169565b60200101906001600160f81b03191690815f1a905350600360fc1b85856121468161350f565b96508151811061215857612158613169565b60200101906001600160f81b03191690815f1a905350600360fc1b858561217e8161350f565b96508151811061219057612190613169565b60200101906001600160f81b03191690815f1a9053508060fc83901c601081106121bc576121bc613169565b1a60f81b85856121cb8161350f565b9650815181106121dd576121dd613169565b60200101906001600160f81b03191690815f1a90535080600f60f884901c166010811061220c5761220c613169565b1a60f81b858561221b8161350f565b96508151811061222d5761222d613169565b60200101906001600160f81b03191690815f1a9053505061227e565b8084846122558161350f565b95508151811061226757612267613169565b60200101906001600160f81b03191690815f1a9053505b50600101611dca565b5081529392505050565b60605f61229d836127e3565b60010190505f816001600160401b038111156122bb576122bb612fd1565b6040519080825280601f01601f1916602001820160405280156122e5576020820181803683370190505b5090508181016020015b5f19016f181899199a1a9b1b9c1cb0b131b232b360811b600a86061a8153600a85049450846122ef57509392505050565b606061072b825f6128b8565b61233a848484846001612a37565b610a365783604051635274afe760e01b81526004016108b19190612e15565b6001600160a01b0381165f908152600d6020526040812054819061237c90611bf2565b905061072b8382611861565b5f908152600360205260409020546001600160a01b031690565b80806123b657506001600160a01b03821615155b1561246e575f6123c5846114d4565b90506001600160a01b038316158015906123f15750826001600160a01b0316816001600160a01b031614155b80156124045750612402818461118d565b155b15612424578260405163a9fbf51f60e01b81526004016108b19190612e15565b811561246c5783856001600160a01b0316826001600160a01b03167f8c5be1e5ebec7d5bd14f71427d1e84f3dd0314c0f7b2291e5b200ac8c7c3b92560405160405180910390a45b505b50505f90815260056020526040902080546001600160a01b0319166001600160a01b0392909216919091179055565b6124a5612aa4565b15610cba57604051633ee5aeb560e01b815260040160405180910390fd5b7f9b779b17422d0df92223018b32b4d1fa46e071723d6817e2486d003becc55f0090565b61086c828260405180602001604052805f815250612ab9565b61250b838383612ad0565b610b16576001600160a01b03831661253957604051637e27328960e01b8152600481018290526024016108b1565b60405163177e802f60e01b81526001600160a01b0383166004820152602481018290526044016108b1565b60405163a9059cbb60e01b5f8181526001600160a01b038616600452602485905291602083604481808b5af1925060015f511483166125ba5783831516156125ae573d5f823e3d81fd5b5f873b113d1516831692505b60405250949350505050565b5f60095460ff1660028111156125de576125de612e85565b146125fb5760405162461bcd60e51b81526004016108b190613398565b6040516370a0823160e01b81525f906001600160a01b037f000000000000000000000000000000000000000000000000000000000000000016906370a0823190612649903090600401612e15565b602060405180830381865afa158015612664573d5f5f3e3d5ffd5b505050506040513d601f19601f820116820180604052508101906126889190613527565b90507f00000000000000000000000000000000000000000000000000000000000000008110156126ef5760405162461bcd60e51b8152602060048201526012602482015271696e73756666696369656e742066756e647360701b60448201526064016108b1565b6009805460ff1916600117905561270581612b35565b6040518181527f2b3f27cb35b5581f9baeb414c2592d8fc9c9067287476ca5624392320e9bf68e9060200160405180910390a150565b5f60095460ff16600281111561275357612753612e85565b146127705760405162461bcd60e51b81526004016108b190613398565b6009805460ff19166002179055600a546040519081527f7b1418b19a03b176f641639ee79855da661fa88a08377ecd32ad6d38152b95369060200160405180910390a1565b5f7f0000000000000000000000000000000000000000000000000000000000000000610d8c6127108461317d565b5f8072184f03e93ff9f4daa797ed6e38ed64bf6a1f0160401b83106128215772184f03e93ff9f4daa797ed6e38ed64bf6a1f0160401b830492506040015b6904ee2d6d415b85acef8160201b831061284b576904ee2d6d415b85acef8160201b830492506020015b662386f26fc10000831061286957662386f26fc10000830492506010015b6305f5e1008310612881576305f5e100830492506008015b612710831061289557612710830492506004015b606483106128a7576064830492506002015b600a831061072b5760010192915050565b606082515f036128d6575060408051602081019091525f815261072b565b5f82612906576003845160026128ec9190613156565b6128f69190613194565b61290190600461317d565b61292b565b600384516004612916919061317d565b612921906002613156565b61292b9190613194565b905060405191507f4142434445464748494a4b4c4d4e4f505152535455565758595a616263646566601f5261067083027f6768696a6b6c6d6e6f707172737475767778797a303132333435363738392b2f18603f526020820181810185865187016020810180515f82525b828410156129e9576003840193508351603f8160121c16518753600187019650603f81600c1c16518753600187019650603f8160061c16518753600187019650603f811651875350600186019550612996565b905250859050612a2a57600386510660018114612a0d5760028114612a2057612a28565b603d6001840353603d6002840353612a28565b603d60018403535b505b9183525060405292915050565b6040516323b872dd60e01b5f8181526001600160a01b038781166004528616602452604485905291602083606481808c5af1925060015f51148316612a93578383151615612a87573d5f823e3d81fd5b5f883b113d1516831692505b604052505f60605295945050505050565b5f6002612ab2610db26124c3565b5414919050565b612ac38383612c9e565b610b16335f858585611adc565b5f6001600160a01b03831615801590612b2d5750826001600160a01b0316846001600160a01b03161480612b095750612b09848461118d565b80612b2d5750826001600160a01b0316612b228361150b565b6001600160a01b0316145b949350505050565b5f8111612b6f5760405162461bcd60e51b81526020600482015260086024820152676e6f2066756e647360c01b60448201526064016108b1565b612bc36001600160a01b037f0000000000000000000000000000000000000000000000000000000000000000167f000000000000000000000000000000000000000000000000000000000000000083612cff565b60405163b6b55f2560e01b8152600481018290527f00000000000000000000000000000000000000000000000000000000000000006001600160a01b03169063b6b55f25906024015f604051808303815f87803b158015612c22575f5ffd5b505af1158015612c34573d5f5f3e3d5ffd5b505050507f00000000000000000000000000000000000000000000000000000000000000006001600160a01b03167f8c9a4f13b67cb64d7c6aa1ae0c9bf07694af521a28b93e7060020810ab4bc59f82604051612c9391815260200190565b60405180910390a250565b6001600160a01b038216612cc7575f604051633250574960e11b81526004016108b19190612e15565b5f612cd383835f611772565b90506001600160a01b03811615610b16575f6040516339e3563760e11b81526004016108b19190612e15565b612d0b8383835f612d44565b610b1657612d1c83835f6001612d44565b612d3b5782604051635274afe760e01b81526004016108b19190612e15565b61195483838360015b60405163095ea7b360e01b5f8181526001600160a01b038616600452602485905291602083604481808b5af1925060015f511483166125ba5783831516156125ae573d5f823e3d81fd5b6001600160e01b031981168114611497575f5ffd5b5f60208284031215612db3575f5ffd5b813561185a81612d8e565b5f81518084528060208401602086015e5f602082860101526020601f19601f83011685010191505092915050565b602081525f61185a6020830184612dbe565b5f60208284031215612e0e575f5ffd5b5035919050565b6001600160a01b0391909116815260200190565b80356001600160a01b0381168114612e3f575f5ffd5b919050565b5f5f60408385031215612e55575f5ffd5b612e5e83612e29565b946020939093013593505050565b5f60208284031215612e7c575f5ffd5b61185a82612e29565b634e487b7160e01b5f52602160045260245ffd5b60058110612ea957612ea9612e85565b9052565b6020810161072b8284612e99565b5f5f60408385031215612ecc575f5ffd5b50508035926020909101359150565b5f5f5f60608486031215612eed575f5ffd5b612ef684612e29565b9250612f0460208501612e29565b929592945050506040919091013590565b602080825282518282018190525f918401906040840190835b81811015612f555783516001600160a01b0316835260209384019390920191600101612f2e565b509095945050505050565b5f5f60408385031215612f71575f5ffd5b612f7a83612e29565b915060208301358015158114612f8e575f5ffd5b809150509250929050565b8615158152602081018690526040810185905260c08101612fbd6060830186612e99565b921515608082015260a00152949350505050565b634e487b7160e01b5f52604160045260245ffd5b5f5f5f5f60808587031215612ff8575f5ffd5b61300185612e29565b935061300f60208601612e29565b92506040850135915060608501356001600160401b03811115613030575f5ffd5b8501601f81018713613040575f5ffd5b80356001600160401b0381111561305957613059612fd1565b604051601f8201601f19908116603f011681016001600160401b038111828210171561308757613087612fd1565b60405281815282820160200189101561309e575f5ffd5b816020840160208301375f6020838301015280935050505092959194509250565b60208101600383106130d3576130d3612e85565b91905290565b5f5f604083850312156130ea575f5ffd5b6130f383612e29565b915061310160208401612e29565b90509250929050565b600181811c9082168061311e57607f821691505b60208210810361313c57634e487b7160e01b5f52602260045260245ffd5b50919050565b634e487b7160e01b5f52601160045260245ffd5b8082018082111561072b5761072b613142565b634e487b7160e01b5f52603260045260245ffd5b808202811582820484141761072b5761072b613142565b5f826131ae57634e487b7160e01b5f52601260045260245ffd5b500490565b8181038181111561072b5761072b613142565b5f81518060208401855e5f93019283525090919050565b683d913730b6b2911d1160b91b81525f6131fa60098301886131c6565b6201016960ed1b815261321060038201886131c6565b7f222c226465736372697074696f6e223a224261636b657220726577617264204e81527f465420666f722061207375636365737366756c204c4c4d2066756e647261697360208201526e1a5b99c818d85b5c185a59db8b888b608a1b60408201527f2261747472696275746573223a5b7b2274726169745f74797065223a2243616d604f8201526f3830b4b3b71116113b30b63ab2911d1160811b606f82015290506132bf607f8201876131c6565b7f227d2c7b2274726169745f74797065223a224261636b6572204c6576656c222c815268113b30b63ab2911d1160b91b6020820152905061330360298201866131c6565b7f227d2c7b2274726169745f74797065223a2243616d706169676e204944222c228152673b30b63ab2911d1160c11b602082015290506028810161335a61334a82876131c6565b63227d5d7d60e01b815260040190565b9998505050505050505050565b7f646174613a6170706c69636174696f6e2f6a736f6e3b6261736536342c00000081525f61185a601d8301846131c6565b6020808252600a90820152696e6f742061637469766560b01b604082015260600190565b8381526020810183905260608101612b2d6040830184612e99565b604081525f5f84545f8160011c905060018216806133f657607f821691505b60208210810361341457634e487b7160e01b5f52602260045260245ffd5b6040860182905260608601818015613433576001811461344957613475565b60ff198516825283151560051b82019550613475565b5f8a8152602090205f5b8581101561346f57815484820152600190910190602001613453565b83019650505b50505050508091505061185a6020830184612e99565b608081016134998287612e99565b6134a66020830186612e99565b60408201939093526060015292915050565b6001600160a01b03858116825284166020820152604081018390526080606082018190525f906134ea90830184612dbe565b9695505050505050565b5f60208284031215613504575f5ffd5b815161185a81612d8e565b5f6001820161352057613520613142565b5060010190565b5f60208284031215613537575f5ffd5b505191905056fea2646970667358221220ed4fa16526255d5e3136870b292fc3fc3875eac84d0f883714e35357a2b9cdaf64736f6c634300081c0033","opcodes":"PUSH2 0x180 PUSH1 0x40 MSTORE PUSH1 0x1 PUSH1 0xB SSTORE CALLVALUE DUP1 ISZERO PUSH2 0x15 JUMPI PUSH0 PUSH0 REVERT JUMPDEST POP PUSH1 0x40 MLOAD PUSH2 0x3C79 CODESIZE SUB DUP1 PUSH2 0x3C79 DUP4 CODECOPY DUP2 ADD PUSH1 0x40 DUP2 SWAP1 MSTORE PUSH2 0x34 SWAP2 PUSH2 0x40E JUMP JUMPDEST PUSH1 0x40 DUP1 MLOAD DUP1 DUP3 ADD DUP3 MSTORE PUSH1 0x16 DUP2 MSTORE PUSH32 0x4C4C4D2046756E6472616973696E67204261636B657200000000000000000000 PUSH1 0x20 DUP1 DUP4 ADD SWAP2 SWAP1 SWAP2 MSTORE DUP3 MLOAD DUP1 DUP5 ADD SWAP1 SWAP4 MSTORE PUSH1 0x9 DUP4 MSTORE PUSH9 0x262626A120A1A5A2A9 PUSH1 0xB9 SHL SWAP1 DUP4 ADD MSTORE SWAP1 DUP3 PUSH1 0x1 PUSH1 0x1 PUSH1 0xA0 SHL SUB DUP2 AND PUSH2 0xB8 JUMPI PUSH1 0x40 MLOAD PUSH4 0x1E4FBDF7 PUSH1 0xE0 SHL DUP2 MSTORE PUSH0 PUSH1 0x4 DUP3 ADD MSTORE PUSH1 0x24 ADD JUMPDEST PUSH1 0x40 MLOAD DUP1 SWAP2 SUB SWAP1 REVERT JUMPDEST PUSH2 0xC1 DUP2 PUSH2 0x2E3 JUMP JUMPDEST POP PUSH1 0x1 PUSH2 0xCE DUP4 DUP3 PUSH2 0x580 JUMP JUMPDEST POP PUSH1 0x2 PUSH2 0xDB DUP3 DUP3 PUSH2 0x580 JUMP JUMPDEST POP POP POP PUSH1 0x1 PUSH2 0xF4 PUSH2 0xF1 PUSH2 0x332 PUSH1 0x20 SHL PUSH1 0x20 SHR JUMP JUMPDEST SWAP1 JUMP JUMPDEST SSTORE PUSH1 0x1 PUSH1 0x1 PUSH1 0xA0 SHL SUB DUP5 AND PUSH2 0x137 JUMPI PUSH1 0x40 MLOAD PUSH3 0x461BCD PUSH1 0xE5 SHL DUP2 MSTORE PUSH1 0x20 PUSH1 0x4 DUP3 ADD MSTORE PUSH1 0x9 PUSH1 0x24 DUP3 ADD MSTORE PUSH9 0x7A65726F2075736463 PUSH1 0xB8 SHL PUSH1 0x44 DUP3 ADD MSTORE PUSH1 0x64 ADD PUSH2 0xAF JUMP JUMPDEST PUSH1 0x1 PUSH1 0x1 PUSH1 0xA0 SHL SUB DUP4 AND PUSH2 0x17D JUMPI PUSH1 0x40 MLOAD PUSH3 0x461BCD PUSH1 0xE5 SHL DUP2 MSTORE PUSH1 0x20 PUSH1 0x4 DUP3 ADD MSTORE PUSH1 0xD PUSH1 0x24 DUP3 ADD MSTORE PUSH13 0x7A65726F206770754C65617365 PUSH1 0x98 SHL PUSH1 0x44 DUP3 ADD MSTORE PUSH1 0x64 ADD PUSH2 0xAF JUMP JUMPDEST PUSH1 0x1 PUSH1 0x1 PUSH1 0xA0 SHL SUB DUP3 AND PUSH2 0x1C3 JUMPI PUSH1 0x40 MLOAD PUSH3 0x461BCD PUSH1 0xE5 SHL DUP2 MSTORE PUSH1 0x20 PUSH1 0x4 DUP3 ADD MSTORE PUSH1 0xD PUSH1 0x24 DUP3 ADD MSTORE PUSH13 0x7A65726F207265676973747279 PUSH1 0x98 SHL PUSH1 0x44 DUP3 ADD MSTORE PUSH1 0x64 ADD PUSH2 0xAF JUMP JUMPDEST PUSH0 DUP11 GT PUSH2 0x200 JUMPI PUSH1 0x40 MLOAD PUSH3 0x461BCD PUSH1 0xE5 SHL DUP2 MSTORE PUSH1 0x20 PUSH1 0x4 DUP3 ADD MSTORE PUSH1 0xB PUSH1 0x24 DUP3 ADD MSTORE PUSH11 0x1E995C9BC81D185C99D95D PUSH1 0xAA SHL PUSH1 0x44 DUP3 ADD MSTORE PUSH1 0x64 ADD PUSH2 0xAF JUMP JUMPDEST PUSH0 DUP10 GT PUSH2 0x23F JUMPI PUSH1 0x40 MLOAD PUSH3 0x461BCD PUSH1 0xE5 SHL DUP2 MSTORE PUSH1 0x20 PUSH1 0x4 DUP3 ADD MSTORE PUSH1 0xD PUSH1 0x24 DUP3 ADD MSTORE PUSH13 0x3D32B93790323AB930BA34B7B7 PUSH1 0x99 SHL PUSH1 0x44 DUP3 ADD MSTORE PUSH1 0x64 ADD PUSH2 0xAF JUMP JUMPDEST PUSH0 DUP7 MLOAD GT PUSH2 0x27C JUMPI PUSH1 0x40 MLOAD PUSH3 0x461BCD PUSH1 0xE5 SHL DUP2 MSTORE PUSH1 0x20 PUSH1 0x4 DUP3 ADD MSTORE PUSH1 0xA PUSH1 0x24 DUP3 ADD MSTORE PUSH10 0x656D707479206E616D65 PUSH1 0xB0 SHL PUSH1 0x44 DUP3 ADD MSTORE PUSH1 0x64 ADD PUSH2 0xAF JUMP JUMPDEST PUSH1 0x80 DUP12 SWAP1 MSTORE PUSH1 0xA0 DUP11 SWAP1 MSTORE PUSH1 0xE0 DUP10 SWAP1 MSTORE PUSH1 0xC0 DUP9 SWAP1 MSTORE PUSH2 0x100 DUP8 SWAP1 MSTORE PUSH1 0x7 PUSH2 0x2A2 DUP8 DUP3 PUSH2 0x580 JUMP JUMPDEST POP PUSH1 0x8 PUSH2 0x2AF DUP7 DUP3 PUSH2 0x580 JUMP JUMPDEST POP POP PUSH1 0x1 PUSH1 0x1 PUSH1 0xA0 SHL SUB SWAP3 DUP4 AND PUSH2 0x120 MSTORE SWAP1 DUP3 AND PUSH2 0x140 MSTORE AND PUSH2 0x160 MSTORE POP POP PUSH1 0x9 DUP1 SLOAD PUSH1 0xFF NOT AND SWAP1 SSTORE POP PUSH2 0x63A SWAP4 POP POP POP POP JUMP JUMPDEST PUSH0 DUP1 SLOAD PUSH1 0x1 PUSH1 0x1 PUSH1 0xA0 SHL SUB DUP4 DUP2 AND PUSH1 0x1 PUSH1 0x1 PUSH1 0xA0 SHL SUB NOT DUP4 AND DUP2 OR DUP5 SSTORE PUSH1 0x40 MLOAD SWAP2 SWAP1 SWAP3 AND SWAP3 DUP4 SWAP2 PUSH32 0x8BE0079C531659141344CD1FD0A4F28419497F9722A3DAAFE3B4186F6B6457E0 SWAP2 SWAP1 LOG3 POP POP JUMP JUMPDEST PUSH32 0x9B779B17422D0DF92223018B32B4D1FA46E071723D6817E2486D003BECC55F00 SWAP1 JUMP JUMPDEST PUSH4 0x4E487B71 PUSH1 0xE0 SHL PUSH0 MSTORE PUSH1 0x41 PUSH1 0x4 MSTORE PUSH1 0x24 PUSH0 REVERT JUMPDEST PUSH0 DUP3 PUSH1 0x1F DUP4 ADD SLT PUSH2 0x379 JUMPI PUSH0 PUSH0 REVERT JUMPDEST DUP2 MLOAD PUSH1 0x1 PUSH1 0x1 PUSH1 0x40 SHL SUB DUP2 GT ISZERO PUSH2 0x392 JUMPI PUSH2 0x392 PUSH2 0x356 JUMP JUMPDEST PUSH1 0x40 MLOAD PUSH1 0x1F DUP3 ADD PUSH1 0x1F NOT SWAP1 DUP2 AND PUSH1 0x3F ADD AND DUP2 ADD PUSH1 0x1 PUSH1 0x1 PUSH1 0x40 SHL SUB DUP2 GT DUP3 DUP3 LT OR ISZERO PUSH2 0x3C0 JUMPI PUSH2 0x3C0 PUSH2 0x356 JUMP JUMPDEST PUSH1 0x40 MSTORE DUP2 DUP2 MSTORE DUP4 DUP3 ADD PUSH1 0x20 ADD DUP6 LT ISZERO PUSH2 0x3D7 JUMPI PUSH0 PUSH0 REVERT JUMPDEST DUP2 PUSH1 0x20 DUP6 ADD PUSH1 0x20 DUP4 ADD MCOPY PUSH0 SWAP2 DUP2 ADD PUSH1 0x20 ADD SWAP2 SWAP1 SWAP2 MSTORE SWAP4 SWAP3 POP POP POP JUMP JUMPDEST DUP1 MLOAD PUSH1 0x1 PUSH1 0x1 PUSH1 0xA0 SHL SUB DUP2 AND DUP2 EQ PUSH2 0x409 JUMPI PUSH0 PUSH0 REVERT JUMPDEST SWAP2 SWAP1 POP JUMP JUMPDEST PUSH0 PUSH0 PUSH0 PUSH0 PUSH0 PUSH0 PUSH0 PUSH0 PUSH0 PUSH0 PUSH0 PUSH2 0x160 DUP13 DUP15 SUB SLT ISZERO PUSH2 0x429 JUMPI PUSH0 PUSH0 REVERT JUMPDEST PUSH0 DUP13 MLOAD SWAP1 POP DUP1 SWAP12 POP POP PUSH0 PUSH1 0x20 DUP14 ADD MLOAD SWAP1 POP DUP1 SWAP11 POP POP PUSH0 PUSH1 0x40 DUP14 ADD MLOAD SWAP1 POP DUP1 SWAP10 POP POP PUSH0 PUSH1 0x60 DUP14 ADD MLOAD SWAP1 POP DUP1 SWAP9 POP POP PUSH0 PUSH1 0x80 DUP14 ADD MLOAD SWAP1 POP DUP1 SWAP8 POP POP PUSH1 0xA0 DUP13 ADD MLOAD PUSH1 0x1 DUP1 PUSH1 0x40 SHL SUB DUP2 GT ISZERO PUSH2 0x479 JUMPI PUSH0 PUSH0 REVERT JUMPDEST PUSH2 0x485 DUP15 DUP3 DUP16 ADD PUSH2 0x36A JUMP JUMPDEST PUSH1 0xC0 DUP15 ADD MLOAD SWAP1 SWAP8 POP SWAP1 POP PUSH1 0x1 PUSH1 0x1 PUSH1 0x40 SHL SUB DUP2 GT ISZERO PUSH2 0x4A2 JUMPI PUSH0 PUSH0 REVERT JUMPDEST PUSH2 0x4AE DUP15 DUP3 DUP16 ADD PUSH2 0x36A JUMP JUMPDEST SWAP6 POP POP PUSH2 0x4BD PUSH1 0xE0 DUP14 ADD PUSH2 0x3F3 JUMP JUMPDEST SWAP4 POP PUSH2 0x4CC PUSH2 0x100 DUP14 ADD PUSH2 0x3F3 JUMP JUMPDEST SWAP3 POP PUSH2 0x4DB PUSH2 0x120 DUP14 ADD PUSH2 0x3F3 JUMP JUMPDEST SWAP2 POP PUSH2 0x4EA PUSH2 0x140 DUP14 ADD PUSH2 0x3F3 JUMP JUMPDEST SWAP1 POP SWAP3 SWAP6 SWAP9 SWAP12 POP SWAP3 SWAP6 SWAP9 SWAP12 SWAP1 SWAP4 SWAP7 SWAP10 POP JUMP JUMPDEST PUSH1 0x1 DUP2 DUP2 SHR SWAP1 DUP3 AND DUP1 PUSH2 0x510 JUMPI PUSH1 0x7F DUP3 AND SWAP2 POP JUMPDEST PUSH1 0x20 DUP3 LT DUP2 SUB PUSH2 0x52E JUMPI PUSH4 0x4E487B71 PUSH1 0xE0 SHL PUSH0 MSTORE PUSH1 0x22 PUSH1 0x4 MSTORE PUSH1 0x24 PUSH0 REVERT JUMPDEST POP SWAP2 SWAP1 POP JUMP JUMPDEST PUSH1 0x1F DUP3 GT ISZERO PUSH2 0x57B JUMPI DUP1 PUSH0 MSTORE PUSH1 0x20 PUSH0 KECCAK256 PUSH1 0x1F DUP5 ADD PUSH1 0x5 SHR DUP2 ADD PUSH1 0x20 DUP6 LT ISZERO PUSH2 0x559 JUMPI POP DUP1 JUMPDEST PUSH1 0x1F DUP5 ADD PUSH1 0x5 SHR DUP3 ADD SWAP2 POP JUMPDEST DUP2 DUP2 LT ISZERO PUSH2 0x578 JUMPI PUSH0 DUP2 SSTORE PUSH1 0x1 ADD PUSH2 0x565 JUMP JUMPDEST POP POP JUMPDEST POP POP POP JUMP JUMPDEST DUP2 MLOAD PUSH1 0x1 PUSH1 0x1 PUSH1 0x40 SHL SUB DUP2 GT ISZERO PUSH2 0x599 JUMPI PUSH2 0x599 PUSH2 0x356 JUMP JUMPDEST PUSH2 0x5AD DUP2 PUSH2 0x5A7 DUP5 SLOAD PUSH2 0x4FC JUMP JUMPDEST DUP5 PUSH2 0x534 JUMP JUMPDEST PUSH1 0x20 PUSH1 0x1F DUP3 GT PUSH1 0x1 DUP2 EQ PUSH2 0x5DF JUMPI PUSH0 DUP4 ISZERO PUSH2 0x5C8 JUMPI POP DUP5 DUP3 ADD MLOAD JUMPDEST PUSH0 NOT PUSH1 0x3 DUP6 SWAP1 SHL SHR NOT AND PUSH1 0x1 DUP5 SWAP1 SHL OR DUP5 SSTORE PUSH2 0x578 JUMP JUMPDEST PUSH0 DUP5 DUP2 MSTORE PUSH1 0x20 DUP2 KECCAK256 PUSH1 0x1F NOT DUP6 AND SWAP2 JUMPDEST DUP3 DUP2 LT ISZERO PUSH2 0x60E JUMPI DUP8 DUP6 ADD MLOAD DUP3 SSTORE PUSH1 0x20 SWAP5 DUP6 ADD SWAP5 PUSH1 0x1 SWAP1 SWAP3 ADD SWAP2 ADD PUSH2 0x5EE JUMP JUMPDEST POP DUP5 DUP3 LT ISZERO PUSH2 0x62B JUMPI DUP7 DUP5 ADD MLOAD PUSH0 NOT PUSH1 0x3 DUP8 SWAP1 SHL PUSH1 0xF8 AND SHR NOT AND DUP2 SSTORE JUMPDEST POP POP POP POP PUSH1 0x1 SWAP1 DUP2 SHL ADD SWAP1 SSTORE POP JUMP JUMPDEST PUSH1 0x80 MLOAD PUSH1 0xA0 MLOAD PUSH1 0xC0 MLOAD PUSH1 0xE0 MLOAD PUSH2 0x100 MLOAD PUSH2 0x120 MLOAD PUSH2 0x140 MLOAD PUSH2 0x160 MLOAD PUSH2 0x3574 PUSH2 0x705 PUSH0 CODECOPY PUSH0 DUP2 DUP2 PUSH2 0x534 ADD MSTORE PUSH2 0x1386 ADD MSTORE PUSH0 DUP2 DUP2 PUSH2 0x3A3 ADD MSTORE DUP2 DUP2 PUSH2 0x2B9E ADD MSTORE DUP2 DUP2 PUSH2 0x2BD9 ADD MSTORE PUSH2 0x2C3A ADD MSTORE PUSH0 DUP2 DUP2 PUSH2 0x3D3 ADD MSTORE DUP2 DUP2 PUSH2 0xC55 ADD MSTORE DUP2 DUP2 PUSH2 0x12DE ADD MSTORE DUP2 DUP2 PUSH2 0x2614 ADD MSTORE PUSH2 0x2B7C ADD MSTORE PUSH0 PUSH2 0x480 ADD MSTORE PUSH0 DUP2 DUP2 PUSH2 0x301 ADD MSTORE PUSH2 0xA42 ADD MSTORE PUSH0 DUP2 DUP2 PUSH2 0x685 ADD MSTORE DUP2 DUP2 PUSH2 0xA63 ADD MSTORE PUSH2 0x11F9 ADD MSTORE PUSH0 DUP2 DUP2 PUSH2 0x4FD ADD MSTORE DUP2 DUP2 PUSH2 0xCC1 ADD MSTORE DUP2 DUP2 PUSH2 0xD5F ADD MSTORE DUP2 DUP2 PUSH2 0x268C ADD MSTORE PUSH2 0x27B8 ADD MSTORE PUSH0 DUP2 DUP2 PUSH2 0x4D6 ADD MSTORE PUSH2 0x10EA ADD MSTORE PUSH2 0x3574 PUSH0 RETURN INVALID PUSH1 0x80 PUSH1 0x40 MSTORE CALLVALUE DUP1 ISZERO PUSH2 0xF JUMPI PUSH0 PUSH0 REVERT JUMPDEST POP PUSH1 0x4 CALLDATASIZE LT PUSH2 0x24F JUMPI PUSH0 CALLDATALOAD PUSH1 0xE0 SHR DUP1 PUSH4 0x1FFC9A7 EQ PUSH2 0x253 JUMPI DUP1 PUSH4 0x6FDDE03 EQ PUSH2 0x27B JUMPI DUP1 PUSH4 0x724FDA9 EQ PUSH2 0x290 JUMPI DUP1 PUSH4 0x81812FC EQ PUSH2 0x298 JUMPI DUP1 PUSH4 0x95EA7B3 EQ PUSH2 0x2B8 JUMPI DUP1 PUSH4 0xA19F69C EQ PUSH2 0x2CD JUMPI DUP1 PUSH4 0xFB5A6B4 EQ PUSH2 0x2FC JUMPI DUP1 PUSH4 0x10641782 EQ PUSH2 0x331 JUMPI DUP1 PUSH4 0x17294A11 EQ PUSH2 0x344 JUMPI DUP1 PUSH4 0x23B872DD EQ PUSH2 0x366 JUMPI DUP1 PUSH4 0x29DCB0CF EQ PUSH2 0x379 JUMPI DUP1 PUSH4 0x2F13B60C EQ PUSH2 0x381 JUMPI DUP1 PUSH4 0x3087110A EQ PUSH2 0x389 JUMPI DUP1 PUSH4 0x3358970B EQ PUSH2 0x39E JUMPI DUP1 PUSH4 0x35909603 EQ PUSH2 0x3C5 JUMPI DUP1 PUSH4 0x3E413BEE EQ PUSH2 0x3CE JUMPI DUP1 PUSH4 0x42842E0E EQ PUSH2 0x3F5 JUMPI DUP1 PUSH4 0x590E1AE3 EQ PUSH2 0x408 JUMPI DUP1 PUSH4 0x5E098F05 EQ PUSH2 0x410 JUMPI DUP1 PUSH4 0x6352211E EQ PUSH2 0x418 JUMPI DUP1 PUSH4 0x70A08231 EQ PUSH2 0x42B JUMPI DUP1 PUSH4 0x715018A6 EQ PUSH2 0x43E JUMPI DUP1 PUSH4 0x7592E888 EQ PUSH2 0x446 JUMPI DUP1 PUSH4 0x77D6444C EQ PUSH2 0x468 JUMPI DUP1 PUSH4 0x7AA77F29 EQ PUSH2 0x47B JUMPI DUP1 PUSH4 0x7B338E14 EQ PUSH2 0x4A2 JUMPI DUP1 PUSH4 0x8CC05BEC EQ PUSH2 0x4AA JUMPI DUP1 PUSH4 0x8DA5CB5B EQ PUSH2 0x4C9 JUMPI DUP1 PUSH4 0x8ED5B0FC EQ PUSH2 0x4D1 JUMPI DUP1 PUSH4 0x953B8FB8 EQ PUSH2 0x4F8 JUMPI DUP1 PUSH4 0x95D89B41 EQ PUSH2 0x51F JUMPI DUP1 PUSH4 0x96DFCBEA EQ PUSH2 0x527 JUMPI DUP1 PUSH4 0x9E9CA591 EQ PUSH2 0x52F JUMPI DUP1 PUSH4 0x9FF534DC EQ PUSH2 0x556 JUMPI DUP1 PUSH4 0xA22CB465 EQ PUSH2 0x55E JUMPI DUP1 PUSH4 0xA263D772 EQ PUSH2 0x571 JUMPI DUP1 PUSH4 0xA729DD7C EQ PUSH2 0x584 JUMPI DUP1 PUSH4 0xAAD7C90C EQ PUSH2 0x5A9 JUMPI DUP1 PUSH4 0xB88D4FDE EQ PUSH2 0x5BC JUMPI DUP1 PUSH4 0xBFFD11BB EQ PUSH2 0x5CF JUMPI DUP1 PUSH4 0xC033A490 EQ PUSH2 0x5E2 JUMPI DUP1 PUSH4 0xC19D93FB EQ PUSH2 0x604 JUMPI DUP1 PUSH4 0xC5C4744C EQ PUSH2 0x61E JUMPI DUP1 PUSH4 0xC87B56DD EQ PUSH2 0x627 JUMPI DUP1 PUSH4 0xCC6CB19A EQ PUSH2 0x63A JUMPI DUP1 PUSH4 0xDB912E37 EQ PUSH2 0x659 JUMPI DUP1 PUSH4 0xDFD09FA5 EQ PUSH2 0x661 JUMPI DUP1 PUSH4 0xE6FD48BC EQ PUSH2 0x680 JUMPI DUP1 PUSH4 0xE985E9C5 EQ PUSH2 0x6A7 JUMPI DUP1 PUSH4 0xF14FAF6F EQ PUSH2 0x6BA JUMPI DUP1 PUSH4 0xF2FDE38B EQ PUSH2 0x6CD JUMPI JUMPDEST PUSH0 PUSH0 REVERT JUMPDEST PUSH2 0x266 PUSH2 0x261 CALLDATASIZE PUSH1 0x4 PUSH2 0x2DA3 JUMP JUMPDEST PUSH2 0x6E0 JUMP JUMPDEST PUSH1 0x40 MLOAD SWAP1 ISZERO ISZERO DUP2 MSTORE PUSH1 0x20 ADD JUMPDEST PUSH1 0x40 MLOAD DUP1 SWAP2 SUB SWAP1 RETURN JUMPDEST PUSH2 0x283 PUSH2 0x731 JUMP JUMPDEST PUSH1 0x40 MLOAD PUSH2 0x272 SWAP2 SWAP1 PUSH2 0x2DEC JUMP JUMPDEST PUSH2 0x283 PUSH2 0x7C1 JUMP JUMPDEST PUSH2 0x2AB PUSH2 0x2A6 CALLDATASIZE PUSH1 0x4 PUSH2 0x2DFE JUMP JUMPDEST PUSH2 0x84D JUMP JUMPDEST PUSH1 0x40 MLOAD PUSH2 0x272 SWAP2 SWAP1 PUSH2 0x2E15 JUMP JUMPDEST PUSH2 0x2CB PUSH2 0x2C6 CALLDATASIZE PUSH1 0x4 PUSH2 0x2E44 JUMP JUMPDEST PUSH2 0x861 JUMP JUMPDEST STOP JUMPDEST PUSH2 0x2EF PUSH2 0x2DB CALLDATASIZE PUSH1 0x4 PUSH2 0x2E6C JUMP JUMPDEST PUSH1 0xF PUSH1 0x20 MSTORE PUSH0 SWAP1 DUP2 MSTORE PUSH1 0x40 SWAP1 KECCAK256 SLOAD PUSH1 0xFF AND DUP2 JUMP JUMPDEST PUSH1 0x40 MLOAD PUSH2 0x272 SWAP2 SWAP1 PUSH2 0x2EAD JUMP JUMPDEST PUSH2 0x323 PUSH32 0x0 DUP2 JUMP JUMPDEST PUSH1 0x40 MLOAD SWAP1 DUP2 MSTORE PUSH1 0x20 ADD PUSH2 0x272 JUMP JUMPDEST PUSH2 0x323 PUSH2 0x33F CALLDATASIZE PUSH1 0x4 PUSH2 0x2EBB JUMP JUMPDEST PUSH2 0x870 JUMP JUMPDEST PUSH2 0x266 PUSH2 0x352 CALLDATASIZE PUSH1 0x4 PUSH2 0x2E6C JUMP JUMPDEST PUSH1 0x10 PUSH1 0x20 MSTORE PUSH0 SWAP1 DUP2 MSTORE PUSH1 0x40 SWAP1 KECCAK256 SLOAD PUSH1 0xFF AND DUP2 JUMP JUMPDEST PUSH2 0x2CB PUSH2 0x374 CALLDATASIZE PUSH1 0x4 PUSH2 0x2EDB JUMP JUMPDEST PUSH2 0x9B3 JUMP JUMPDEST PUSH2 0x323 PUSH2 0xA3C JUMP JUMPDEST PUSH2 0x266 PUSH2 0xA8C JUMP JUMPDEST PUSH2 0x391 PUSH2 0xA9D JUMP JUMPDEST PUSH1 0x40 MLOAD PUSH2 0x272 SWAP2 SWAP1 PUSH2 0x2F15 JUMP JUMPDEST PUSH2 0x2AB PUSH32 0x0 DUP2 JUMP JUMPDEST PUSH2 0x323 PUSH1 0xB SLOAD DUP2 JUMP JUMPDEST PUSH2 0x2AB PUSH32 0x0 DUP2 JUMP JUMPDEST PUSH2 0x2CB PUSH2 0x403 CALLDATASIZE PUSH1 0x4 PUSH2 0x2EDB JUMP JUMPDEST PUSH2 0xAFC JUMP JUMPDEST PUSH2 0x2CB PUSH2 0xB1B JUMP JUMPDEST PUSH2 0x266 PUSH2 0xCBC JUMP JUMPDEST PUSH2 0x2AB PUSH2 0x426 CALLDATASIZE PUSH1 0x4 PUSH2 0x2DFE JUMP JUMPDEST PUSH2 0xCE5 JUMP JUMPDEST PUSH2 0x323 PUSH2 0x439 CALLDATASIZE PUSH1 0x4 PUSH2 0x2E6C JUMP JUMPDEST PUSH2 0xCEF JUMP JUMPDEST PUSH2 0x2CB PUSH2 0xD34 JUMP JUMPDEST PUSH2 0x2EF PUSH2 0x454 CALLDATASIZE PUSH1 0x4 PUSH2 0x2DFE JUMP JUMPDEST PUSH1 0x12 PUSH1 0x20 MSTORE PUSH0 SWAP1 DUP2 MSTORE PUSH1 0x40 SWAP1 KECCAK256 SLOAD PUSH1 0xFF AND DUP2 JUMP JUMPDEST PUSH2 0x323 PUSH2 0x476 CALLDATASIZE PUSH1 0x4 PUSH2 0x2E6C JUMP JUMPDEST PUSH2 0xD45 JUMP JUMPDEST PUSH2 0x323 PUSH32 0x0 DUP2 JUMP JUMPDEST PUSH2 0x323 PUSH2 0xD96 JUMP JUMPDEST PUSH2 0x323 PUSH2 0x4B8 CALLDATASIZE PUSH1 0x4 PUSH2 0x2E6C JUMP JUMPDEST PUSH1 0x11 PUSH1 0x20 MSTORE PUSH0 SWAP1 DUP2 MSTORE PUSH1 0x40 SWAP1 KECCAK256 SLOAD DUP2 JUMP JUMPDEST PUSH2 0x2AB PUSH2 0xDB5 JUMP JUMPDEST PUSH2 0x323 PUSH32 0x0 DUP2 JUMP JUMPDEST PUSH2 0x323 PUSH32 0x0 DUP2 JUMP JUMPDEST PUSH2 0x283 PUSH2 0xDC3 JUMP JUMPDEST PUSH2 0x2CB PUSH2 0xDD2 JUMP JUMPDEST PUSH2 0x2AB PUSH32 0x0 DUP2 JUMP JUMPDEST PUSH1 0xC SLOAD PUSH2 0x323 JUMP JUMPDEST PUSH2 0x2CB PUSH2 0x56C CALLDATASIZE PUSH1 0x4 PUSH2 0x2F60 JUMP JUMPDEST PUSH2 0xE30 JUMP JUMPDEST PUSH2 0x391 PUSH2 0x57F CALLDATASIZE PUSH1 0x4 PUSH2 0x2EBB JUMP JUMPDEST PUSH2 0xE3B JUMP JUMPDEST PUSH2 0x597 PUSH2 0x592 CALLDATASIZE PUSH1 0x4 PUSH2 0x2E6C JUMP JUMPDEST PUSH2 0xF37 JUMP JUMPDEST PUSH1 0x40 MLOAD PUSH2 0x272 SWAP7 SWAP6 SWAP5 SWAP4 SWAP3 SWAP2 SWAP1 PUSH2 0x2F99 JUMP JUMPDEST PUSH2 0x2AB PUSH2 0x5B7 CALLDATASIZE PUSH1 0x4 PUSH2 0x2DFE JUMP JUMPDEST PUSH2 0xFB1 JUMP JUMPDEST PUSH2 0x2CB PUSH2 0x5CA CALLDATASIZE PUSH1 0x4 PUSH2 0x2FE5 JUMP JUMPDEST PUSH2 0xFDF JUMP JUMPDEST PUSH2 0x2EF PUSH2 0x5DD CALLDATASIZE PUSH1 0x4 PUSH2 0x2E6C JUMP JUMPDEST PUSH2 0xFF7 JUMP JUMPDEST PUSH2 0x266 PUSH2 0x5F0 CALLDATASIZE PUSH1 0x4 PUSH2 0x2E6C JUMP JUMPDEST PUSH1 0xE PUSH1 0x20 MSTORE PUSH0 SWAP1 DUP2 MSTORE PUSH1 0x40 SWAP1 KECCAK256 SLOAD PUSH1 0xFF AND DUP2 JUMP JUMPDEST PUSH1 0x9 SLOAD PUSH2 0x611 SWAP1 PUSH1 0xFF AND DUP2 JUMP JUMPDEST PUSH1 0x40 MLOAD PUSH2 0x272 SWAP2 SWAP1 PUSH2 0x30BF JUMP JUMPDEST PUSH2 0x323 PUSH1 0xA SLOAD DUP2 JUMP JUMPDEST PUSH2 0x283 PUSH2 0x635 CALLDATASIZE PUSH1 0x4 PUSH2 0x2DFE JUMP JUMPDEST PUSH2 0x1018 JUMP JUMPDEST PUSH2 0x323 PUSH2 0x648 CALLDATASIZE PUSH1 0x4 PUSH2 0x2E6C JUMP JUMPDEST PUSH1 0xD PUSH1 0x20 MSTORE PUSH0 SWAP1 DUP2 MSTORE PUSH1 0x40 SWAP1 KECCAK256 SLOAD DUP2 JUMP JUMPDEST PUSH2 0x283 PUSH2 0x1166 JUMP JUMPDEST PUSH2 0x669 PUSH2 0x1173 JUMP JUMPDEST PUSH1 0x40 DUP1 MLOAD SWAP3 ISZERO ISZERO DUP4 MSTORE SWAP1 ISZERO ISZERO PUSH1 0x20 DUP4 ADD MSTORE ADD PUSH2 0x272 JUMP JUMPDEST PUSH2 0x323 PUSH32 0x0 DUP2 JUMP JUMPDEST PUSH2 0x266 PUSH2 0x6B5 CALLDATASIZE PUSH1 0x4 PUSH2 0x30D9 JUMP JUMPDEST PUSH2 0x118D JUMP JUMPDEST PUSH2 0x2CB PUSH2 0x6C8 CALLDATASIZE PUSH1 0x4 PUSH2 0x2DFE JUMP JUMPDEST PUSH2 0x11BA JUMP JUMPDEST PUSH2 0x2CB PUSH2 0x6DB CALLDATASIZE PUSH1 0x4 PUSH2 0x2E6C JUMP JUMPDEST PUSH2 0x149A JUMP JUMPDEST PUSH0 PUSH1 0x1 PUSH1 0x1 PUSH1 0xE0 SHL SUB NOT DUP3 AND PUSH4 0x80AC58CD PUSH1 0xE0 SHL EQ DUP1 PUSH2 0x710 JUMPI POP PUSH1 0x1 PUSH1 0x1 PUSH1 0xE0 SHL SUB NOT DUP3 AND PUSH4 0x5B5E139F PUSH1 0xE0 SHL EQ JUMPDEST DUP1 PUSH2 0x72B JUMPI POP PUSH4 0x1FFC9A7 PUSH1 0xE0 SHL PUSH1 0x1 PUSH1 0x1 PUSH1 0xE0 SHL SUB NOT DUP4 AND EQ JUMPDEST SWAP3 SWAP2 POP POP JUMP JUMPDEST PUSH1 0x60 PUSH1 0x1 DUP1 SLOAD PUSH2 0x740 SWAP1 PUSH2 0x310A JUMP JUMPDEST DUP1 PUSH1 0x1F ADD PUSH1 0x20 DUP1 SWAP2 DIV MUL PUSH1 0x20 ADD PUSH1 0x40 MLOAD SWAP1 DUP2 ADD PUSH1 0x40 MSTORE DUP1 SWAP3 SWAP2 SWAP1 DUP2 DUP2 MSTORE PUSH1 0x20 ADD DUP3 DUP1 SLOAD PUSH2 0x76C SWAP1 PUSH2 0x310A JUMP JUMPDEST DUP1 ISZERO PUSH2 0x7B7 JUMPI DUP1 PUSH1 0x1F LT PUSH2 0x78E JUMPI PUSH2 0x100 DUP1 DUP4 SLOAD DIV MUL DUP4 MSTORE SWAP2 PUSH1 0x20 ADD SWAP2 PUSH2 0x7B7 JUMP JUMPDEST DUP3 ADD SWAP2 SWAP1 PUSH0 MSTORE PUSH1 0x20 PUSH0 KECCAK256 SWAP1 JUMPDEST DUP2 SLOAD DUP2 MSTORE SWAP1 PUSH1 0x1 ADD SWAP1 PUSH1 0x20 ADD DUP1 DUP4 GT PUSH2 0x79A JUMPI DUP3 SWAP1 SUB PUSH1 0x1F AND DUP3 ADD SWAP2 JUMPDEST POP POP POP POP POP SWAP1 POP SWAP1 JUMP JUMPDEST PUSH1 0x7 DUP1 SLOAD PUSH2 0x7CE SWAP1 PUSH2 0x310A JUMP JUMPDEST DUP1 PUSH1 0x1F ADD PUSH1 0x20 DUP1 SWAP2 DIV MUL PUSH1 0x20 ADD PUSH1 0x40 MLOAD SWAP1 DUP2 ADD PUSH1 0x40 MSTORE DUP1 SWAP3 SWAP2 SWAP1 DUP2 DUP2 MSTORE PUSH1 0x20 ADD DUP3 DUP1 SLOAD PUSH2 0x7FA SWAP1 PUSH2 0x310A JUMP JUMPDEST DUP1 ISZERO PUSH2 0x845 JUMPI DUP1 PUSH1 0x1F LT PUSH2 0x81C JUMPI PUSH2 0x100 DUP1 DUP4 SLOAD DIV MUL DUP4 MSTORE SWAP2 PUSH1 0x20 ADD SWAP2 PUSH2 0x845 JUMP JUMPDEST DUP3 ADD SWAP2 SWAP1 PUSH0 MSTORE PUSH1 0x20 PUSH0 KECCAK256 SWAP1 JUMPDEST DUP2 SLOAD DUP2 MSTORE SWAP1 PUSH1 0x1 ADD SWAP1 PUSH1 0x20 ADD DUP1 DUP4 GT PUSH2 0x828 JUMPI DUP3 SWAP1 SUB PUSH1 0x1F AND DUP3 ADD SWAP2 JUMPDEST POP POP POP POP POP DUP2 JUMP JUMPDEST PUSH0 PUSH2 0x857 DUP3 PUSH2 0x14D4 JUMP JUMPDEST POP PUSH2 0x72B DUP3 PUSH2 0x150B JUMP JUMPDEST PUSH2 0x86C DUP3 DUP3 CALLER PUSH2 0x1525 JUMP JUMPDEST POP POP JUMP JUMPDEST PUSH0 PUSH2 0x879 PUSH2 0x1532 JUMP JUMPDEST PUSH0 DUP3 GT PUSH2 0x8BA JUMPI PUSH1 0x40 MLOAD PUSH3 0x461BCD PUSH1 0xE5 SHL DUP2 MSTORE PUSH1 0x20 PUSH1 0x4 DUP3 ADD MSTORE PUSH1 0xA PUSH1 0x24 DUP3 ADD MSTORE PUSH10 0x1E995C9BC81B1A5B5A5D PUSH1 0xB2 SHL PUSH1 0x44 DUP3 ADD MSTORE PUSH1 0x64 ADD JUMPDEST PUSH1 0x40 MLOAD DUP1 SWAP2 SUB SWAP1 REVERT JUMPDEST PUSH1 0xC SLOAD DUP1 DUP5 LT PUSH2 0x902 JUMPI PUSH1 0x40 MLOAD PUSH3 0x461BCD PUSH1 0xE5 SHL DUP2 MSTORE PUSH1 0x20 PUSH1 0x4 DUP3 ADD MSTORE PUSH1 0x13 PUSH1 0x24 DUP3 ADD MSTORE PUSH19 0x6F6666736574206F7574206F662072616E6765 PUSH1 0x68 SHL PUSH1 0x44 DUP3 ADD MSTORE PUSH1 0x64 ADD PUSH2 0x8B1 JUMP JUMPDEST PUSH0 PUSH2 0x90D DUP5 DUP7 PUSH2 0x3156 JUMP JUMPDEST SWAP1 POP DUP2 DUP2 GT ISZERO PUSH2 0x91A JUMPI POP DUP1 JUMPDEST DUP5 JUMPDEST DUP2 DUP2 LT ISZERO PUSH2 0x9A8 JUMPI PUSH0 PUSH1 0xC DUP3 DUP2 SLOAD DUP2 LT PUSH2 0x938 JUMPI PUSH2 0x938 PUSH2 0x3169 JUMP JUMPDEST PUSH0 SWAP2 DUP3 MSTORE PUSH1 0x20 DUP1 DUP4 KECCAK256 SWAP1 SWAP2 ADD SLOAD PUSH1 0x1 PUSH1 0x1 PUSH1 0xA0 SHL SUB AND DUP1 DUP4 MSTORE PUSH1 0x11 SWAP1 SWAP2 MSTORE PUSH1 0x40 SWAP1 SWAP2 KECCAK256 SLOAD SWAP1 SWAP2 POP ISZERO DUP1 ISZERO PUSH2 0x982 JUMPI POP PUSH1 0x1 PUSH1 0x1 PUSH1 0xA0 SHL SUB DUP2 AND PUSH0 SWAP1 DUP2 MSTORE PUSH1 0xD PUSH1 0x20 MSTORE PUSH1 0x40 SWAP1 KECCAK256 SLOAD ISZERO ISZERO JUMPDEST ISZERO PUSH2 0x99F JUMPI PUSH2 0x990 DUP2 PUSH2 0x154A JUMP JUMPDEST POP PUSH2 0x99C PUSH1 0x1 DUP7 PUSH2 0x3156 JUMP JUMPDEST SWAP5 POP JUMPDEST POP PUSH1 0x1 ADD PUSH2 0x91C JUMP JUMPDEST POP POP POP PUSH2 0x72B PUSH2 0x1765 JUMP JUMPDEST PUSH1 0x1 PUSH1 0x1 PUSH1 0xA0 SHL SUB DUP3 AND PUSH2 0x9DC JUMPI PUSH0 PUSH1 0x40 MLOAD PUSH4 0x32505749 PUSH1 0xE1 SHL DUP2 MSTORE PUSH1 0x4 ADD PUSH2 0x8B1 SWAP2 SWAP1 PUSH2 0x2E15 JUMP JUMPDEST PUSH0 PUSH2 0x9E8 DUP4 DUP4 CALLER PUSH2 0x1772 JUMP JUMPDEST SWAP1 POP DUP4 PUSH1 0x1 PUSH1 0x1 PUSH1 0xA0 SHL SUB AND DUP2 PUSH1 0x1 PUSH1 0x1 PUSH1 0xA0 SHL SUB AND EQ PUSH2 0xA36 JUMPI PUSH1 0x40 MLOAD PUSH4 0x64283D7B PUSH1 0xE0 SHL DUP2 MSTORE PUSH1 0x1 PUSH1 0x1 PUSH1 0xA0 SHL SUB DUP1 DUP7 AND PUSH1 0x4 DUP4 ADD MSTORE PUSH1 0x24 DUP3 ADD DUP5 SWAP1 MSTORE DUP3 AND PUSH1 0x44 DUP3 ADD MSTORE PUSH1 0x64 ADD PUSH2 0x8B1 JUMP JUMPDEST POP POP POP POP JUMP JUMPDEST PUSH0 PUSH2 0xA87 PUSH32 0x0 PUSH32 0x0 PUSH2 0x3156 JUMP JUMPDEST SWAP1 POP SWAP1 JUMP JUMPDEST PUSH0 PUSH2 0xA95 PUSH2 0xA3C JUMP JUMPDEST TIMESTAMP LT ISZERO SWAP1 POP SWAP1 JUMP JUMPDEST PUSH1 0x60 PUSH1 0xC DUP1 SLOAD DUP1 PUSH1 0x20 MUL PUSH1 0x20 ADD PUSH1 0x40 MLOAD SWAP1 DUP2 ADD PUSH1 0x40 MSTORE DUP1 SWAP3 SWAP2 SWAP1 DUP2 DUP2 MSTORE PUSH1 0x20 ADD DUP3 DUP1 SLOAD DUP1 ISZERO PUSH2 0x7B7 JUMPI PUSH1 0x20 MUL DUP3 ADD SWAP2 SWAP1 PUSH0 MSTORE PUSH1 0x20 PUSH0 KECCAK256 SWAP1 JUMPDEST DUP2 SLOAD PUSH1 0x1 PUSH1 0x1 PUSH1 0xA0 SHL SUB AND DUP2 MSTORE PUSH1 0x1 SWAP1 SWAP2 ADD SWAP1 PUSH1 0x20 ADD DUP1 DUP4 GT PUSH2 0xAD5 JUMPI POP POP POP POP POP SWAP1 POP SWAP1 JUMP JUMPDEST PUSH2 0xB16 DUP4 DUP4 DUP4 PUSH1 0x40 MLOAD DUP1 PUSH1 0x20 ADD PUSH1 0x40 MSTORE DUP1 PUSH0 DUP2 MSTORE POP PUSH2 0xFDF JUMP JUMPDEST POP POP POP JUMP JUMPDEST PUSH2 0xB23 PUSH2 0x1532 JUMP JUMPDEST PUSH1 0x2 PUSH1 0x9 SLOAD PUSH1 0xFF AND PUSH1 0x2 DUP2 GT ISZERO PUSH2 0xB3C JUMPI PUSH2 0xB3C PUSH2 0x2E85 JUMP JUMPDEST EQ PUSH2 0xB76 JUMPI PUSH1 0x40 MLOAD PUSH3 0x461BCD PUSH1 0xE5 SHL DUP2 MSTORE PUSH1 0x20 PUSH1 0x4 DUP3 ADD MSTORE PUSH1 0xA PUSH1 0x24 DUP3 ADD MSTORE PUSH10 0x1B9BDD0819985A5B1959 PUSH1 0xB2 SHL PUSH1 0x44 DUP3 ADD MSTORE PUSH1 0x64 ADD PUSH2 0x8B1 JUMP JUMPDEST CALLER PUSH0 SWAP1 DUP2 MSTORE PUSH1 0xD PUSH1 0x20 MSTORE PUSH1 0x40 SWAP1 KECCAK256 SLOAD DUP1 PUSH2 0xBC6 JUMPI PUSH1 0x40 MLOAD PUSH3 0x461BCD PUSH1 0xE5 SHL DUP2 MSTORE PUSH1 0x20 PUSH1 0x4 DUP3 ADD MSTORE PUSH1 0x11 PUSH1 0x24 DUP3 ADD MSTORE PUSH17 0x1B9BDD1A1A5B99C81D1BC81C99599D5B99 PUSH1 0x7A SHL PUSH1 0x44 DUP3 ADD MSTORE PUSH1 0x64 ADD PUSH2 0x8B1 JUMP JUMPDEST CALLER PUSH0 SWAP1 DUP2 MSTORE PUSH1 0xE PUSH1 0x20 MSTORE PUSH1 0x40 SWAP1 KECCAK256 SLOAD PUSH1 0xFF AND ISZERO PUSH2 0xC18 JUMPI PUSH1 0x40 MLOAD PUSH3 0x461BCD PUSH1 0xE5 SHL DUP2 MSTORE PUSH1 0x20 PUSH1 0x4 DUP3 ADD MSTORE PUSH1 0x10 PUSH1 0x24 DUP3 ADD MSTORE PUSH16 0x185B1C9958591E481C99599D5B991959 PUSH1 0x82 SHL PUSH1 0x44 DUP3 ADD MSTORE PUSH1 0x64 ADD PUSH2 0x8B1 JUMP JUMPDEST CALLER PUSH0 DUP2 DUP2 MSTORE PUSH1 0xE PUSH1 0x20 SWAP1 DUP2 MSTORE PUSH1 0x40 DUP1 DUP4 KECCAK256 DUP1 SLOAD PUSH1 0xFF NOT AND PUSH1 0x1 OR SWAP1 SSTORE PUSH1 0xD SWAP1 SWAP2 MSTORE DUP2 KECCAK256 DUP2 SWAP1 SSTORE PUSH2 0xC48 SWAP2 SWAP1 PUSH2 0x1861 JUMP JUMPDEST PUSH2 0xC7C PUSH1 0x1 PUSH1 0x1 PUSH1 0xA0 SHL SUB PUSH32 0x0 AND CALLER DUP4 PUSH2 0x1947 JUMP JUMPDEST PUSH1 0x40 MLOAD DUP2 DUP2 MSTORE CALLER SWAP1 PUSH32 0xD7DEE2702D63AD89917B6A4DA9981C90C4D24F8C2BDFD64C604ECAE57D8D0651 SWAP1 PUSH1 0x20 ADD PUSH1 0x40 MLOAD DUP1 SWAP2 SUB SWAP1 LOG2 POP PUSH2 0xCBA PUSH2 0x1765 JUMP JUMPDEST JUMP JUMPDEST PUSH1 0xA SLOAD PUSH32 0x0 GT ISZERO SWAP1 JUMP JUMPDEST PUSH0 PUSH2 0x72B DUP3 PUSH2 0x14D4 JUMP JUMPDEST PUSH0 PUSH1 0x1 PUSH1 0x1 PUSH1 0xA0 SHL SUB DUP3 AND PUSH2 0xD19 JUMPI PUSH0 PUSH1 0x40 MLOAD PUSH4 0x22718AD9 PUSH1 0xE2 SHL DUP2 MSTORE PUSH1 0x4 ADD PUSH2 0x8B1 SWAP2 SWAP1 PUSH2 0x2E15 JUMP JUMPDEST POP PUSH1 0x1 PUSH1 0x1 PUSH1 0xA0 SHL SUB AND PUSH0 SWAP1 DUP2 MSTORE PUSH1 0x4 PUSH1 0x20 MSTORE PUSH1 0x40 SWAP1 KECCAK256 SLOAD SWAP1 JUMP JUMPDEST PUSH2 0xD3C PUSH2 0x1973 JUMP JUMPDEST PUSH2 0xCBA PUSH0 PUSH2 0x19A5 JUMP JUMPDEST PUSH1 0x1 PUSH1 0x1 PUSH1 0xA0 SHL SUB DUP2 AND PUSH0 SWAP1 DUP2 MSTORE PUSH1 0xD PUSH1 0x20 MSTORE PUSH1 0x40 DUP2 KECCAK256 SLOAD PUSH32 0x0 SWAP1 PUSH2 0xD8C SWAP1 PUSH2 0x2710 SWAP1 PUSH2 0x317D JUMP JUMPDEST PUSH2 0x72B SWAP2 SWAP1 PUSH2 0x3194 JUMP JUMPDEST PUSH0 PUSH2 0xD9F PUSH2 0x1532 JUMP JUMPDEST PUSH2 0xDA8 CALLER PUSH2 0x154A JUMP JUMPDEST SWAP1 POP PUSH2 0xDB2 PUSH2 0x1765 JUMP JUMPDEST SWAP1 JUMP JUMPDEST PUSH0 SLOAD PUSH1 0x1 PUSH1 0x1 PUSH1 0xA0 SHL SUB AND SWAP1 JUMP JUMPDEST PUSH1 0x60 PUSH1 0x2 DUP1 SLOAD PUSH2 0x740 SWAP1 PUSH2 0x310A JUMP JUMPDEST PUSH0 PUSH1 0x9 SLOAD PUSH1 0xFF AND PUSH1 0x2 DUP2 GT ISZERO PUSH2 0xDEA JUMPI PUSH2 0xDEA PUSH2 0x2E85 JUMP JUMPDEST EQ PUSH2 0xE28 JUMPI PUSH1 0x40 MLOAD PUSH3 0x461BCD PUSH1 0xE5 SHL DUP2 MSTORE PUSH1 0x20 PUSH1 0x4 DUP3 ADD MSTORE PUSH1 0xE PUSH1 0x24 DUP3 ADD MSTORE PUSH14 0x185B1C9958591E4818DB1BDCD959 PUSH1 0x92 SHL PUSH1 0x44 DUP3 ADD MSTORE PUSH1 0x64 ADD PUSH2 0x8B1 JUMP JUMPDEST PUSH2 0xCBA PUSH2 0x19F4 JUMP JUMPDEST PUSH2 0x86C CALLER DUP4 DUP4 PUSH2 0x1A1E JUMP JUMPDEST PUSH1 0xC SLOAD PUSH1 0x60 SWAP1 DUP1 DUP5 LT PUSH2 0xE5D JUMPI POP POP PUSH1 0x40 DUP1 MLOAD PUSH0 DUP2 MSTORE PUSH1 0x20 DUP2 ADD SWAP1 SWAP2 MSTORE PUSH2 0x72B JUMP JUMPDEST PUSH0 PUSH2 0xE68 DUP5 DUP7 PUSH2 0x3156 JUMP JUMPDEST SWAP1 POP DUP2 DUP2 GT ISZERO PUSH2 0xE75 JUMPI POP DUP1 JUMPDEST PUSH2 0xE7F DUP6 DUP3 PUSH2 0x31B3 JUMP JUMPDEST PUSH1 0x1 PUSH1 0x1 PUSH1 0x40 SHL SUB DUP2 GT ISZERO PUSH2 0xE96 JUMPI PUSH2 0xE96 PUSH2 0x2FD1 JUMP JUMPDEST PUSH1 0x40 MLOAD SWAP1 DUP1 DUP3 MSTORE DUP1 PUSH1 0x20 MUL PUSH1 0x20 ADD DUP3 ADD PUSH1 0x40 MSTORE DUP1 ISZERO PUSH2 0xEBF JUMPI DUP2 PUSH1 0x20 ADD PUSH1 0x20 DUP3 MUL DUP1 CALLDATASIZE DUP4 CALLDATACOPY ADD SWAP1 POP JUMPDEST POP SWAP3 POP DUP5 JUMPDEST DUP2 DUP2 LT ISZERO PUSH2 0xF2E JUMPI PUSH1 0xC DUP2 DUP2 SLOAD DUP2 LT PUSH2 0xEDF JUMPI PUSH2 0xEDF PUSH2 0x3169 JUMP JUMPDEST PUSH0 SWAP2 DUP3 MSTORE PUSH1 0x20 SWAP1 SWAP2 KECCAK256 ADD SLOAD PUSH1 0x1 PUSH1 0x1 PUSH1 0xA0 SHL SUB AND DUP5 PUSH2 0xEFE DUP9 DUP5 PUSH2 0x31B3 JUMP JUMPDEST DUP2 MLOAD DUP2 LT PUSH2 0xF0E JUMPI PUSH2 0xF0E PUSH2 0x3169 JUMP JUMPDEST PUSH1 0x1 PUSH1 0x1 PUSH1 0xA0 SHL SUB SWAP1 SWAP3 AND PUSH1 0x20 SWAP3 DUP4 MUL SWAP2 SWAP1 SWAP2 ADD SWAP1 SWAP2 ADD MSTORE PUSH1 0x1 ADD PUSH2 0xEC4 JUMP JUMPDEST POP POP POP SWAP3 SWAP2 POP POP JUMP JUMPDEST PUSH1 0x1 PUSH1 0x1 PUSH1 0xA0 SHL SUB DUP2 AND PUSH0 SWAP1 DUP2 MSTORE PUSH1 0x10 PUSH1 0x20 SWAP1 DUP2 MSTORE PUSH1 0x40 DUP1 DUP4 KECCAK256 SLOAD PUSH1 0xD SWAP1 SWAP3 MSTORE DUP3 KECCAK256 SLOAD PUSH1 0xFF SWAP1 SWAP2 AND SWAP2 DUP1 DUP1 DUP1 PUSH2 0xF6C DUP8 PUSH2 0xD45 JUMP JUMPDEST PUSH1 0x1 PUSH1 0x1 PUSH1 0xA0 SHL SUB SWAP1 SWAP8 AND PUSH0 SWAP1 DUP2 MSTORE PUSH1 0xF PUSH1 0x20 SWAP1 DUP2 MSTORE PUSH1 0x40 DUP1 DUP4 KECCAK256 SLOAD PUSH1 0xE DUP4 MSTORE DUP2 DUP5 KECCAK256 SLOAD PUSH1 0x11 SWAP1 SWAP4 MSTORE SWAP3 KECCAK256 SLOAD SWAP8 SWAP10 SWAP7 SWAP9 SWAP8 PUSH1 0xFF SWAP3 DUP4 AND SWAP8 SWAP2 SWAP1 SWAP3 AND SWAP6 POP SWAP1 SWAP4 POP SWAP2 POP POP JUMP JUMPDEST PUSH0 PUSH1 0xC DUP3 DUP2 SLOAD DUP2 LT PUSH2 0xFC5 JUMPI PUSH2 0xFC5 PUSH2 0x3169 JUMP JUMPDEST PUSH0 SWAP2 DUP3 MSTORE PUSH1 0x20 SWAP1 SWAP2 KECCAK256 ADD SLOAD PUSH1 0x1 PUSH1 0x1 PUSH1 0xA0 SHL SUB AND SWAP3 SWAP2 POP POP JUMP JUMPDEST PUSH2 0xFEA DUP5 DUP5 DUP5 PUSH2 0x9B3 JUMP JUMPDEST PUSH2 0xA36 CALLER DUP6 DUP6 DUP6 DUP6 PUSH2 0x1ADC JUMP JUMPDEST PUSH1 0x1 PUSH1 0x1 PUSH1 0xA0 SHL SUB DUP2 AND PUSH0 SWAP1 DUP2 MSTORE PUSH1 0xD PUSH1 0x20 MSTORE PUSH1 0x40 DUP2 KECCAK256 SLOAD PUSH2 0x72B SWAP1 PUSH2 0x1BF2 JUMP JUMPDEST PUSH1 0x60 PUSH2 0x1023 DUP3 PUSH2 0x14D4 JUMP JUMPDEST POP PUSH0 DUP3 DUP2 MSTORE PUSH1 0x12 PUSH1 0x20 MSTORE PUSH1 0x40 DUP2 KECCAK256 SLOAD PUSH2 0x103E SWAP1 PUSH1 0xFF AND PUSH2 0x1C4B JUMP JUMPDEST SWAP1 POP PUSH0 PUSH2 0x10D2 PUSH1 0x7 DUP1 SLOAD PUSH2 0x1051 SWAP1 PUSH2 0x310A JUMP JUMPDEST DUP1 PUSH1 0x1F ADD PUSH1 0x20 DUP1 SWAP2 DIV MUL PUSH1 0x20 ADD PUSH1 0x40 MLOAD SWAP1 DUP2 ADD PUSH1 0x40 MSTORE DUP1 SWAP3 SWAP2 SWAP1 DUP2 DUP2 MSTORE PUSH1 0x20 ADD DUP3 DUP1 SLOAD PUSH2 0x107D SWAP1 PUSH2 0x310A JUMP JUMPDEST DUP1 ISZERO PUSH2 0x10C8 JUMPI DUP1 PUSH1 0x1F LT PUSH2 0x109F JUMPI PUSH2 0x100 DUP1 DUP4 SLOAD DIV MUL DUP4 MSTORE SWAP2 PUSH1 0x20 ADD SWAP2 PUSH2 0x10C8 JUMP JUMPDEST DUP3 ADD SWAP2 SWAP1 PUSH0 MSTORE PUSH1 0x20 PUSH0 KECCAK256 SWAP1 JUMPDEST DUP2 SLOAD DUP2 MSTORE SWAP1 PUSH1 0x1 ADD SWAP1 PUSH1 0x20 ADD DUP1 DUP4 GT PUSH2 0x10AB JUMPI DUP3 SWAP1 SUB PUSH1 0x1F AND DUP3 ADD SWAP2 JUMPDEST POP POP POP POP POP PUSH2 0x1D6F JUMP JUMPDEST SWAP1 POP PUSH0 PUSH2 0x10DE DUP4 PUSH2 0x1D6F JUMP JUMPDEST SWAP1 POP PUSH0 DUP3 DUP3 DUP5 DUP5 PUSH2 0x110E PUSH32 0x0 PUSH2 0x2291 JUMP JUMPDEST PUSH1 0x40 MLOAD PUSH1 0x20 ADD PUSH2 0x1122 SWAP6 SWAP5 SWAP4 SWAP3 SWAP2 SWAP1 PUSH2 0x31DD JUMP JUMPDEST PUSH1 0x40 MLOAD PUSH1 0x20 DUP2 DUP4 SUB SUB DUP2 MSTORE SWAP1 PUSH1 0x40 MSTORE SWAP1 POP PUSH2 0x113C DUP2 PUSH2 0x2320 JUMP JUMPDEST PUSH1 0x40 MLOAD PUSH1 0x20 ADD PUSH2 0x114C SWAP2 SWAP1 PUSH2 0x3367 JUMP JUMPDEST PUSH1 0x40 MLOAD PUSH1 0x20 DUP2 DUP4 SUB SUB DUP2 MSTORE SWAP1 PUSH1 0x40 MSTORE SWAP5 POP POP POP POP POP SWAP2 SWAP1 POP JUMP JUMPDEST PUSH1 0x8 DUP1 SLOAD PUSH2 0x7CE SWAP1 PUSH2 0x310A JUMP JUMPDEST PUSH0 PUSH0 PUSH2 0x117D PUSH2 0xA8C JUMP JUMPDEST SWAP2 POP PUSH2 0x1187 PUSH2 0xCBC JUMP JUMPDEST SWAP1 POP SWAP1 SWAP2 JUMP JUMPDEST PUSH1 0x1 PUSH1 0x1 PUSH1 0xA0 SHL SUB SWAP2 DUP3 AND PUSH0 SWAP1 DUP2 MSTORE PUSH1 0x6 PUSH1 0x20 SWAP1 DUP2 MSTORE PUSH1 0x40 DUP1 DUP4 KECCAK256 SWAP4 SWAP1 SWAP5 AND DUP3 MSTORE SWAP2 SWAP1 SWAP2 MSTORE KECCAK256 SLOAD PUSH1 0xFF AND SWAP1 JUMP JUMPDEST PUSH2 0x11C2 PUSH2 0x1532 JUMP JUMPDEST PUSH0 PUSH1 0x9 SLOAD PUSH1 0xFF AND PUSH1 0x2 DUP2 GT ISZERO PUSH2 0x11DA JUMPI PUSH2 0x11DA PUSH2 0x2E85 JUMP JUMPDEST EQ PUSH2 0x11F7 JUMPI PUSH1 0x40 MLOAD PUSH3 0x461BCD PUSH1 0xE5 SHL DUP2 MSTORE PUSH1 0x4 ADD PUSH2 0x8B1 SWAP1 PUSH2 0x3398 JUMP JUMPDEST PUSH32 0x0 TIMESTAMP LT ISZERO PUSH2 0x1255 JUMPI PUSH1 0x40 MLOAD PUSH3 0x461BCD PUSH1 0xE5 SHL DUP2 MSTORE PUSH1 0x20 PUSH1 0x4 DUP3 ADD MSTORE PUSH1 0xB PUSH1 0x24 DUP3 ADD MSTORE PUSH11 0x1B9BDD081CDD185C9D1959 PUSH1 0xAA SHL PUSH1 0x44 DUP3 ADD MSTORE PUSH1 0x64 ADD PUSH2 0x8B1 JUMP JUMPDEST PUSH2 0x125D PUSH2 0xA8C JUMP JUMPDEST ISZERO PUSH2 0x1294 JUMPI PUSH1 0x40 MLOAD PUSH3 0x461BCD PUSH1 0xE5 SHL DUP2 MSTORE PUSH1 0x20 PUSH1 0x4 DUP3 ADD MSTORE PUSH1 0x7 PUSH1 0x24 DUP3 ADD MSTORE PUSH7 0x195E1C1A5C9959 PUSH1 0xCA SHL PUSH1 0x44 DUP3 ADD MSTORE PUSH1 0x64 ADD PUSH2 0x8B1 JUMP JUMPDEST PUSH0 DUP2 GT PUSH2 0x12D1 JUMPI PUSH1 0x40 MLOAD PUSH3 0x461BCD PUSH1 0xE5 SHL DUP2 MSTORE PUSH1 0x20 PUSH1 0x4 DUP3 ADD MSTORE PUSH1 0xB PUSH1 0x24 DUP3 ADD MSTORE PUSH11 0x1E995C9BC8185B5BDD5B9D PUSH1 0xAA SHL PUSH1 0x44 DUP3 ADD MSTORE PUSH1 0x64 ADD PUSH2 0x8B1 JUMP JUMPDEST PUSH2 0x1306 PUSH1 0x1 PUSH1 0x1 PUSH1 0xA0 SHL SUB PUSH32 0x0 AND CALLER ADDRESS DUP5 PUSH2 0x232C JUMP JUMPDEST CALLER PUSH0 SWAP1 DUP2 MSTORE PUSH1 0x10 PUSH1 0x20 MSTORE PUSH1 0x40 SWAP1 KECCAK256 SLOAD PUSH1 0xFF AND PUSH2 0x13F0 JUMPI CALLER PUSH0 DUP2 DUP2 MSTORE PUSH1 0x10 PUSH1 0x20 MSTORE PUSH1 0x40 DUP1 DUP3 KECCAK256 DUP1 SLOAD PUSH1 0xFF NOT AND PUSH1 0x1 SWAP1 DUP2 OR SWAP1 SWAP2 SSTORE PUSH1 0xC DUP1 SLOAD SWAP2 DUP3 ADD DUP2 SSTORE SWAP1 SWAP3 MSTORE PUSH32 0xDF6966C971051C3D54EC59162606531493A51404A002842F56009D7E5CF4A8C7 SWAP1 SWAP2 ADD DUP1 SLOAD PUSH1 0x1 PUSH1 0x1 PUSH1 0xA0 SHL SUB NOT AND DUP4 OR SWAP1 SSTORE MLOAD PUSH4 0x7CC9E4F PUSH1 0xE4 SHL DUP2 MSTORE PUSH32 0x0 PUSH1 0x1 PUSH1 0x1 PUSH1 0xA0 SHL SUB AND SWAP2 PUSH4 0x7CC9E4F0 SWAP2 PUSH2 0x13C2 SWAP2 SWAP1 PUSH1 0x4 ADD PUSH2 0x2E15 JUMP JUMPDEST PUSH0 PUSH1 0x40 MLOAD DUP1 DUP4 SUB DUP2 PUSH0 DUP8 DUP1 EXTCODESIZE ISZERO DUP1 ISZERO PUSH2 0x13D9 JUMPI PUSH0 PUSH0 REVERT JUMPDEST POP GAS CALL ISZERO DUP1 ISZERO PUSH2 0x13EB JUMPI RETURNDATASIZE PUSH0 PUSH0 RETURNDATACOPY RETURNDATASIZE PUSH0 REVERT JUMPDEST POP POP POP POP JUMPDEST CALLER PUSH0 SWAP1 DUP2 MSTORE PUSH1 0xD PUSH1 0x20 MSTORE PUSH1 0x40 DUP2 KECCAK256 DUP1 SLOAD DUP4 SWAP3 SWAP1 PUSH2 0x140E SWAP1 DUP5 SWAP1 PUSH2 0x3156 JUMP JUMPDEST SWAP3 POP POP DUP2 SWAP1 SSTORE POP DUP1 PUSH1 0xA PUSH0 DUP3 DUP3 SLOAD PUSH2 0x1426 SWAP2 SWAP1 PUSH2 0x3156 JUMP JUMPDEST SWAP1 SWAP2 SSTORE POP PUSH0 SWAP1 POP PUSH2 0x1436 CALLER PUSH2 0x2359 JUMP JUMPDEST CALLER PUSH0 DUP2 DUP2 MSTORE PUSH1 0xD PUSH1 0x20 MSTORE PUSH1 0x40 SWAP1 DUP2 SWAP1 KECCAK256 SLOAD SWAP1 MLOAD SWAP3 SWAP4 POP SWAP1 SWAP2 PUSH32 0xF04D1237CBD0BF21DC045D2160A825F225935347027BA04BC8645D8138708D19 SWAP2 PUSH2 0x147E SWAP2 DUP7 SWAP2 SWAP1 DUP7 SWAP1 PUSH2 0x33BC JUMP JUMPDEST PUSH1 0x40 MLOAD DUP1 SWAP2 SUB SWAP1 LOG2 PUSH2 0x148E PUSH2 0x19F4 JUMP JUMPDEST POP PUSH2 0x1497 PUSH2 0x1765 JUMP JUMPDEST POP JUMP JUMPDEST PUSH2 0x14A2 PUSH2 0x1973 JUMP JUMPDEST PUSH1 0x1 PUSH1 0x1 PUSH1 0xA0 SHL SUB DUP2 AND PUSH2 0x14CB JUMPI PUSH0 PUSH1 0x40 MLOAD PUSH4 0x1E4FBDF7 PUSH1 0xE0 SHL DUP2 MSTORE PUSH1 0x4 ADD PUSH2 0x8B1 SWAP2 SWAP1 PUSH2 0x2E15 JUMP JUMPDEST PUSH2 0x1497 DUP2 PUSH2 0x19A5 JUMP JUMPDEST PUSH0 PUSH0 PUSH2 0x14DF DUP4 PUSH2 0x2388 JUMP JUMPDEST SWAP1 POP PUSH1 0x1 PUSH1 0x1 PUSH1 0xA0 SHL SUB DUP2 AND PUSH2 0x72B JUMPI PUSH1 0x40 MLOAD PUSH4 0x7E273289 PUSH1 0xE0 SHL DUP2 MSTORE PUSH1 0x4 DUP2 ADD DUP5 SWAP1 MSTORE PUSH1 0x24 ADD PUSH2 0x8B1 JUMP JUMPDEST PUSH0 SWAP1 DUP2 MSTORE PUSH1 0x5 PUSH1 0x20 MSTORE PUSH1 0x40 SWAP1 KECCAK256 SLOAD PUSH1 0x1 PUSH1 0x1 PUSH1 0xA0 SHL SUB AND SWAP1 JUMP JUMPDEST PUSH2 0xB16 DUP4 DUP4 DUP4 PUSH1 0x1 PUSH2 0x23A2 JUMP JUMPDEST PUSH2 0x153A PUSH2 0x249D JUMP JUMPDEST PUSH1 0x2 PUSH2 0x1547 PUSH2 0xDB2 PUSH2 0x24C3 JUMP JUMPDEST SSTORE JUMP JUMPDEST PUSH0 PUSH1 0x1 PUSH1 0x9 SLOAD PUSH1 0xFF AND PUSH1 0x2 DUP2 GT ISZERO PUSH2 0x1564 JUMPI PUSH2 0x1564 PUSH2 0x2E85 JUMP JUMPDEST EQ PUSH2 0x15A2 JUMPI PUSH1 0x40 MLOAD PUSH3 0x461BCD PUSH1 0xE5 SHL DUP2 MSTORE PUSH1 0x20 PUSH1 0x4 DUP3 ADD MSTORE PUSH1 0xE PUSH1 0x24 DUP3 ADD MSTORE PUSH14 0x1B9BDD081CDD58D8D95CDCD99D5B PUSH1 0x92 SHL PUSH1 0x44 DUP3 ADD MSTORE PUSH1 0x64 ADD PUSH2 0x8B1 JUMP JUMPDEST PUSH1 0x1 PUSH1 0x1 PUSH1 0xA0 SHL SUB DUP3 AND PUSH0 SWAP1 DUP2 MSTORE PUSH1 0xD PUSH1 0x20 MSTORE PUSH1 0x40 SWAP1 KECCAK256 SLOAD PUSH2 0x15F2 JUMPI PUSH1 0x40 MLOAD PUSH3 0x461BCD PUSH1 0xE5 SHL DUP2 MSTORE PUSH1 0x20 PUSH1 0x4 DUP3 ADD MSTORE PUSH1 0x9 PUSH1 0x24 DUP3 ADD MSTORE PUSH9 0x3737BA103237B737B9 PUSH1 0xB9 SHL PUSH1 0x44 DUP3 ADD MSTORE PUSH1 0x64 ADD PUSH2 0x8B1 JUMP JUMPDEST PUSH1 0x1 PUSH1 0x1 PUSH1 0xA0 SHL SUB DUP3 AND PUSH0 SWAP1 DUP2 MSTORE PUSH1 0x11 PUSH1 0x20 MSTORE PUSH1 0x40 SWAP1 KECCAK256 SLOAD ISZERO PUSH2 0x1648 JUMPI PUSH1 0x40 MLOAD PUSH3 0x461BCD PUSH1 0xE5 SHL DUP2 MSTORE PUSH1 0x20 PUSH1 0x4 DUP3 ADD MSTORE PUSH1 0xE PUSH1 0x24 DUP3 ADD MSTORE PUSH14 0x185B1C9958591E481B5A5B9D1959 PUSH1 0x92 SHL PUSH1 0x44 DUP3 ADD MSTORE PUSH1 0x64 ADD PUSH2 0x8B1 JUMP JUMPDEST PUSH1 0x1 PUSH1 0x1 PUSH1 0xA0 SHL SUB DUP3 AND PUSH0 SWAP1 DUP2 MSTORE PUSH1 0xF PUSH1 0x20 MSTORE PUSH1 0x40 DUP2 KECCAK256 SLOAD PUSH1 0xFF AND SWAP1 DUP2 PUSH1 0x4 DUP2 GT ISZERO PUSH2 0x1676 JUMPI PUSH2 0x1676 PUSH2 0x2E85 JUMP JUMPDEST SUB PUSH2 0x16AE JUMPI PUSH1 0x40 MLOAD PUSH3 0x461BCD PUSH1 0xE5 SHL DUP2 MSTORE PUSH1 0x20 PUSH1 0x4 DUP3 ADD MSTORE PUSH1 0x8 PUSH1 0x24 DUP3 ADD MSTORE PUSH8 0x6E6F206772616465 PUSH1 0xC0 SHL PUSH1 0x44 DUP3 ADD MSTORE PUSH1 0x64 ADD PUSH2 0x8B1 JUMP JUMPDEST PUSH1 0xB DUP1 SLOAD SWAP3 POP PUSH1 0x1 SWAP1 PUSH0 PUSH2 0x16C2 DUP4 DUP7 PUSH2 0x3156 JUMP JUMPDEST SWAP1 SWAP2 SSTORE POP POP PUSH1 0x1 PUSH1 0x1 PUSH1 0xA0 SHL SUB DUP4 AND PUSH0 SWAP1 DUP2 MSTORE PUSH1 0x11 PUSH1 0x20 SWAP1 DUP2 MSTORE PUSH1 0x40 DUP1 DUP4 KECCAK256 DUP6 SWAP1 SSTORE DUP5 DUP4 MSTORE PUSH1 0x12 SWAP1 SWAP2 MSTORE SWAP1 KECCAK256 DUP1 SLOAD DUP3 SWAP2 SWAP1 PUSH1 0xFF NOT AND PUSH1 0x1 DUP4 PUSH1 0x4 DUP2 GT ISZERO PUSH2 0x170B JUMPI PUSH2 0x170B PUSH2 0x2E85 JUMP JUMPDEST MUL OR SWAP1 SSTORE POP PUSH2 0x171A DUP4 DUP4 PUSH2 0x24E7 JUMP JUMPDEST DUP2 DUP4 PUSH1 0x1 PUSH1 0x1 PUSH1 0xA0 SHL SUB AND PUSH32 0xACC61DF05A1322EE40C5459CDDFCEE8A7DFE0EC8D93272DE2F0D978AD481F03E PUSH1 0x7 DUP5 PUSH1 0x40 MLOAD PUSH2 0x1757 SWAP3 SWAP2 SWAP1 PUSH2 0x33D7 JUMP JUMPDEST PUSH1 0x40 MLOAD DUP1 SWAP2 SUB SWAP1 LOG3 POP SWAP2 SWAP1 POP JUMP JUMPDEST PUSH1 0x1 PUSH2 0x1547 PUSH2 0xDB2 PUSH2 0x24C3 JUMP JUMPDEST PUSH0 PUSH0 PUSH2 0x177D DUP5 PUSH2 0x2388 JUMP JUMPDEST SWAP1 POP PUSH1 0x1 PUSH1 0x1 PUSH1 0xA0 SHL SUB DUP4 AND ISZERO PUSH2 0x1799 JUMPI PUSH2 0x1799 DUP2 DUP5 DUP7 PUSH2 0x2500 JUMP JUMPDEST PUSH1 0x1 PUSH1 0x1 PUSH1 0xA0 SHL SUB DUP2 AND ISZERO PUSH2 0x17D3 JUMPI PUSH2 0x17B4 PUSH0 DUP6 PUSH0 PUSH0 PUSH2 0x23A2 JUMP JUMPDEST PUSH1 0x1 PUSH1 0x1 PUSH1 0xA0 SHL SUB DUP2 AND PUSH0 SWAP1 DUP2 MSTORE PUSH1 0x4 PUSH1 0x20 MSTORE PUSH1 0x40 SWAP1 KECCAK256 DUP1 SLOAD PUSH0 NOT ADD SWAP1 SSTORE JUMPDEST PUSH1 0x1 PUSH1 0x1 PUSH1 0xA0 SHL SUB DUP6 AND ISZERO PUSH2 0x1801 JUMPI PUSH1 0x1 PUSH1 0x1 PUSH1 0xA0 SHL SUB DUP6 AND PUSH0 SWAP1 DUP2 MSTORE PUSH1 0x4 PUSH1 0x20 MSTORE PUSH1 0x40 SWAP1 KECCAK256 DUP1 SLOAD PUSH1 0x1 ADD SWAP1 SSTORE JUMPDEST PUSH0 DUP5 DUP2 MSTORE PUSH1 0x3 PUSH1 0x20 MSTORE PUSH1 0x40 DUP1 DUP3 KECCAK256 DUP1 SLOAD PUSH1 0x1 PUSH1 0x1 PUSH1 0xA0 SHL SUB NOT AND PUSH1 0x1 PUSH1 0x1 PUSH1 0xA0 SHL SUB DUP10 DUP2 AND SWAP2 DUP3 OR SWAP1 SWAP3 SSTORE SWAP2 MLOAD DUP8 SWAP4 SWAP2 DUP6 AND SWAP2 PUSH32 0xDDF252AD1BE2C89B69C2B068FC378DAA952BA7F163C4A11628F55A4DF523B3EF SWAP2 LOG4 SWAP1 POP JUMPDEST SWAP4 SWAP3 POP POP POP JUMP JUMPDEST PUSH1 0x1 PUSH1 0x1 PUSH1 0xA0 SHL SUB DUP3 AND PUSH0 SWAP1 DUP2 MSTORE PUSH1 0xF PUSH1 0x20 MSTORE PUSH1 0x40 SWAP1 KECCAK256 SLOAD PUSH1 0xFF AND DUP2 PUSH1 0x4 DUP2 GT ISZERO PUSH2 0x188E JUMPI PUSH2 0x188E PUSH2 0x2E85 JUMP JUMPDEST DUP2 PUSH1 0x4 DUP2 GT ISZERO PUSH2 0x18A0 JUMPI PUSH2 0x18A0 PUSH2 0x2E85 JUMP JUMPDEST SUB PUSH2 0x18AA JUMPI POP POP POP JUMP JUMPDEST PUSH1 0x1 PUSH1 0x1 PUSH1 0xA0 SHL SUB DUP4 AND PUSH0 SWAP1 DUP2 MSTORE PUSH1 0xF PUSH1 0x20 MSTORE PUSH1 0x40 SWAP1 KECCAK256 DUP1 SLOAD DUP4 SWAP2 SWAP1 PUSH1 0xFF NOT AND PUSH1 0x1 DUP4 PUSH1 0x4 DUP2 GT ISZERO PUSH2 0x18DE JUMPI PUSH2 0x18DE PUSH2 0x2E85 JUMP JUMPDEST MUL OR SWAP1 SSTORE POP PUSH1 0x1 PUSH1 0x1 PUSH1 0xA0 SHL SUB DUP4 AND PUSH0 DUP2 DUP2 MSTORE PUSH1 0xD PUSH1 0x20 MSTORE PUSH1 0x40 SWAP1 KECCAK256 SLOAD PUSH32 0x9EDBEAB148E39AABE0C088D94C9704B598CCE01E40DA413E8DA79013A4849EFB SWAP1 DUP4 SWAP1 DUP6 SWAP1 PUSH2 0x192A DUP9 PUSH2 0xD45 JUMP JUMPDEST PUSH1 0x40 MLOAD PUSH2 0x193A SWAP5 SWAP4 SWAP3 SWAP2 SWAP1 PUSH2 0x348B JUMP JUMPDEST PUSH1 0x40 MLOAD DUP1 SWAP2 SUB SWAP1 LOG2 POP POP POP JUMP JUMPDEST PUSH2 0x1954 DUP4 DUP4 DUP4 PUSH1 0x1 PUSH2 0x2564 JUMP JUMPDEST PUSH2 0xB16 JUMPI DUP3 PUSH1 0x40 MLOAD PUSH4 0x5274AFE7 PUSH1 0xE0 SHL DUP2 MSTORE PUSH1 0x4 ADD PUSH2 0x8B1 SWAP2 SWAP1 PUSH2 0x2E15 JUMP JUMPDEST CALLER PUSH2 0x197C PUSH2 0xDB5 JUMP JUMPDEST PUSH1 0x1 PUSH1 0x1 PUSH1 0xA0 SHL SUB AND EQ PUSH2 0xCBA JUMPI CALLER PUSH1 0x40 MLOAD PUSH4 0x118CDAA7 PUSH1 0xE0 SHL DUP2 MSTORE PUSH1 0x4 ADD PUSH2 0x8B1 SWAP2 SWAP1 PUSH2 0x2E15 JUMP JUMPDEST PUSH0 DUP1 SLOAD PUSH1 0x1 PUSH1 0x1 PUSH1 0xA0 SHL SUB DUP4 DUP2 AND PUSH1 0x1 PUSH1 0x1 PUSH1 0xA0 SHL SUB NOT DUP4 AND DUP2 OR DUP5 SSTORE PUSH1 0x40 MLOAD SWAP2 SWAP1 SWAP3 AND SWAP3 DUP4 SWAP2 PUSH32 0x8BE0079C531659141344CD1FD0A4F28419497F9722A3DAAFE3B4186F6B6457E0 SWAP2 SWAP1 LOG3 POP POP JUMP JUMPDEST PUSH2 0x19FC PUSH2 0xCBC JUMP JUMPDEST ISZERO PUSH2 0x1A09 JUMPI PUSH2 0xCBA PUSH2 0x25C6 JUMP JUMPDEST PUSH2 0x1A11 PUSH2 0xA8C JUMP JUMPDEST ISZERO PUSH2 0xCBA JUMPI PUSH2 0xCBA PUSH2 0x273B JUMP JUMPDEST PUSH1 0x1 PUSH1 0x1 PUSH1 0xA0 SHL SUB DUP4 AND PUSH2 0x1A47 JUMPI PUSH0 PUSH1 0x40 MLOAD PUSH4 0xA9FBF51F PUSH1 0xE0 SHL DUP2 MSTORE PUSH1 0x4 ADD PUSH2 0x8B1 SWAP2 SWAP1 PUSH2 0x2E15 JUMP JUMPDEST PUSH1 0x1 PUSH1 0x1 PUSH1 0xA0 SHL SUB DUP3 AND PUSH2 0x1A70 JUMPI DUP2 PUSH1 0x40 MLOAD PUSH4 0xB611743 PUSH1 0xE3 SHL DUP2 MSTORE PUSH1 0x4 ADD PUSH2 0x8B1 SWAP2 SWAP1 PUSH2 0x2E15 JUMP JUMPDEST PUSH1 0x1 PUSH1 0x1 PUSH1 0xA0 SHL SUB DUP4 DUP2 AND PUSH0 DUP2 DUP2 MSTORE PUSH1 0x6 PUSH1 0x20 SWAP1 DUP2 MSTORE PUSH1 0x40 DUP1 DUP4 KECCAK256 SWAP5 DUP8 AND DUP1 DUP5 MSTORE SWAP5 DUP3 MSTORE SWAP2 DUP3 SWAP1 KECCAK256 DUP1 SLOAD PUSH1 0xFF NOT AND DUP7 ISZERO ISZERO SWAP1 DUP2 OR SWAP1 SWAP2 SSTORE SWAP2 MLOAD SWAP2 DUP3 MSTORE PUSH32 0x17307EAB39AB6107E8899845AD3D59BD9653F200F220920489CA2B5937696C31 SWAP2 ADD PUSH1 0x40 MLOAD DUP1 SWAP2 SUB SWAP1 LOG3 POP POP POP JUMP JUMPDEST PUSH1 0x1 PUSH1 0x1 PUSH1 0xA0 SHL SUB DUP4 AND EXTCODESIZE ISZERO PUSH2 0x1BEB JUMPI PUSH1 0x40 MLOAD PUSH4 0xA85BD01 PUSH1 0xE1 SHL DUP2 MSTORE PUSH1 0x1 PUSH1 0x1 PUSH1 0xA0 SHL SUB DUP5 AND SWAP1 PUSH4 0x150B7A02 SWAP1 PUSH2 0x1B1E SWAP1 DUP9 SWAP1 DUP9 SWAP1 DUP8 SWAP1 DUP8 SWAP1 PUSH1 0x4 ADD PUSH2 0x34B8 JUMP JUMPDEST PUSH1 0x20 PUSH1 0x40 MLOAD DUP1 DUP4 SUB DUP2 PUSH0 DUP8 GAS CALL SWAP3 POP POP POP DUP1 ISZERO PUSH2 0x1B58 JUMPI POP PUSH1 0x40 DUP1 MLOAD PUSH1 0x1F RETURNDATASIZE SWAP1 DUP2 ADD PUSH1 0x1F NOT AND DUP3 ADD SWAP1 SWAP3 MSTORE PUSH2 0x1B55 SWAP2 DUP2 ADD SWAP1 PUSH2 0x34F4 JUMP JUMPDEST PUSH1 0x1 JUMPDEST PUSH2 0x1BB6 JUMPI RETURNDATASIZE DUP1 DUP1 ISZERO PUSH2 0x1B85 JUMPI PUSH1 0x40 MLOAD SWAP2 POP PUSH1 0x1F NOT PUSH1 0x3F RETURNDATASIZE ADD AND DUP3 ADD PUSH1 0x40 MSTORE RETURNDATASIZE DUP3 MSTORE RETURNDATASIZE PUSH0 PUSH1 0x20 DUP5 ADD RETURNDATACOPY PUSH2 0x1B8A JUMP JUMPDEST PUSH1 0x60 SWAP2 POP JUMPDEST POP DUP1 MLOAD PUSH0 SUB PUSH2 0x1BAE JUMPI DUP4 PUSH1 0x40 MLOAD PUSH4 0x32505749 PUSH1 0xE1 SHL DUP2 MSTORE PUSH1 0x4 ADD PUSH2 0x8B1 SWAP2 SWAP1 PUSH2 0x2E15 JUMP JUMPDEST DUP1 MLOAD PUSH1 0x20 DUP3 ADD REVERT JUMPDEST PUSH1 0x1 PUSH1 0x1 PUSH1 0xE0 SHL SUB NOT DUP2 AND PUSH4 0xA85BD01 PUSH1 0xE1 SHL EQ PUSH2 0x1BE9 JUMPI DUP4 PUSH1 0x40 MLOAD PUSH4 0x32505749 PUSH1 0xE1 SHL DUP2 MSTORE PUSH1 0x4 ADD PUSH2 0x8B1 SWAP2 SWAP1 PUSH2 0x2E15 JUMP JUMPDEST POP JUMPDEST POP POP POP POP POP JUMP JUMPDEST PUSH0 DUP2 PUSH0 SUB PUSH2 0x1C01 JUMPI POP PUSH0 SWAP2 SWAP1 POP JUMP JUMPDEST PUSH0 PUSH2 0x1C0B DUP4 PUSH2 0x27B5 JUMP JUMPDEST SWAP1 POP PUSH2 0x5DC DUP2 LT PUSH2 0x1C1F JUMPI POP PUSH1 0x4 SWAP3 SWAP2 POP POP JUMP JUMPDEST PUSH2 0x1F4 DUP2 LT PUSH2 0x1C31 JUMPI POP PUSH1 0x3 SWAP3 SWAP2 POP POP JUMP JUMPDEST PUSH1 0x64 DUP2 LT PUSH2 0x1C42 JUMPI POP PUSH1 0x2 SWAP3 SWAP2 POP POP JUMP JUMPDEST POP PUSH1 0x1 SWAP3 SWAP2 POP POP JUMP JUMPDEST PUSH1 0x60 PUSH1 0x4 DUP3 PUSH1 0x4 DUP2 GT ISZERO PUSH2 0x1C61 JUMPI PUSH2 0x1C61 PUSH2 0x2E85 JUMP JUMPDEST SUB PUSH2 0x1C8D JUMPI POP POP PUSH1 0x40 DUP1 MLOAD DUP1 DUP3 ADD SWAP1 SWAP2 MSTORE PUSH1 0xB DUP2 MSTORE PUSH11 0x2632B0B2102130B1B5B2B9 PUSH1 0xA9 SHL PUSH1 0x20 DUP3 ADD MSTORE SWAP1 JUMP JUMPDEST PUSH1 0x3 DUP3 PUSH1 0x4 DUP2 GT ISZERO PUSH2 0x1CA1 JUMPI PUSH2 0x1CA1 PUSH2 0x2E85 JUMP JUMPDEST SUB PUSH2 0x1CD1 JUMPI POP POP PUSH1 0x40 DUP1 MLOAD DUP1 DUP3 ADD SWAP1 SWAP2 MSTORE PUSH1 0xF DUP2 MSTORE PUSH15 0x2337BAB73234B733902130B1B5B2B9 PUSH1 0x89 SHL PUSH1 0x20 DUP3 ADD MSTORE SWAP1 JUMP JUMPDEST PUSH1 0x2 DUP3 PUSH1 0x4 DUP2 GT ISZERO PUSH2 0x1CE5 JUMPI PUSH2 0x1CE5 PUSH2 0x2E85 JUMP JUMPDEST SUB PUSH2 0x1D11 JUMPI POP POP PUSH1 0x40 DUP1 MLOAD DUP1 DUP3 ADD SWAP1 SWAP2 MSTORE PUSH1 0xB DUP2 MSTORE PUSH11 0x21B7B73A3934B13ABA37B9 PUSH1 0xA9 SHL PUSH1 0x20 DUP3 ADD MSTORE SWAP1 JUMP JUMPDEST PUSH1 0x1 DUP3 PUSH1 0x4 DUP2 GT ISZERO PUSH2 0x1D25 JUMPI PUSH2 0x1D25 PUSH2 0x2E85 JUMP JUMPDEST SUB PUSH2 0x1D4F JUMPI POP POP PUSH1 0x40 DUP1 MLOAD DUP1 DUP3 ADD SWAP1 SWAP2 MSTORE PUSH1 0x9 DUP2 MSTORE PUSH9 0x29BAB83837B93A32B9 PUSH1 0xB9 SHL PUSH1 0x20 DUP3 ADD MSTORE SWAP1 JUMP JUMPDEST POP POP PUSH1 0x40 DUP1 MLOAD DUP1 DUP3 ADD SWAP1 SWAP2 MSTORE PUSH1 0x4 DUP2 MSTORE PUSH4 0x4E6F6E65 PUSH1 0xE0 SHL PUSH1 0x20 DUP3 ADD MSTORE SWAP1 JUMP JUMPDEST DUP1 MLOAD PUSH1 0x60 SWAP1 DUP3 SWAP1 PUSH0 SWAP1 PUSH2 0x1D83 SWAP1 PUSH1 0x6 PUSH2 0x317D JUMP JUMPDEST PUSH1 0x1 PUSH1 0x1 PUSH1 0x40 SHL SUB DUP2 GT ISZERO PUSH2 0x1D9A JUMPI PUSH2 0x1D9A PUSH2 0x2FD1 JUMP JUMPDEST PUSH1 0x40 MLOAD SWAP1 DUP1 DUP3 MSTORE DUP1 PUSH1 0x1F ADD PUSH1 0x1F NOT AND PUSH1 0x20 ADD DUP3 ADD PUSH1 0x40 MSTORE DUP1 ISZERO PUSH2 0x1DC4 JUMPI PUSH1 0x20 DUP3 ADD DUP2 DUP1 CALLDATASIZE DUP4 CALLDATACOPY ADD SWAP1 POP JUMPDEST POP SWAP1 POP PUSH0 DUP1 JUMPDEST DUP4 MLOAD DUP2 LT ISZERO PUSH2 0x2287 JUMPI PUSH0 DUP5 DUP3 DUP2 MLOAD DUP2 LT PUSH2 0x1DE6 JUMPI PUSH2 0x1DE6 PUSH2 0x3169 JUMP JUMPDEST ADD PUSH1 0x20 ADD MLOAD PUSH1 0x1 PUSH1 0x1 PUSH1 0xF8 SHL SUB NOT AND SWAP1 POP PUSH1 0x6F PUSH1 0xF9 SHL DUP2 ADD PUSH2 0x1E77 JUMPI PUSH1 0x17 PUSH1 0xFA SHL DUP5 DUP5 PUSH2 0x1E12 DUP2 PUSH2 0x350F JUMP JUMPDEST SWAP6 POP DUP2 MLOAD DUP2 LT PUSH2 0x1E24 JUMPI PUSH2 0x1E24 PUSH2 0x3169 JUMP JUMPDEST PUSH1 0x20 ADD ADD SWAP1 PUSH1 0x1 PUSH1 0x1 PUSH1 0xF8 SHL SUB NOT AND SWAP1 DUP2 PUSH0 BYTE SWAP1 MSTORE8 POP PUSH1 0x11 PUSH1 0xF9 SHL DUP5 DUP5 PUSH2 0x1E4A DUP2 PUSH2 0x350F JUMP JUMPDEST SWAP6 POP DUP2 MLOAD DUP2 LT PUSH2 0x1E5C JUMPI PUSH2 0x1E5C PUSH2 0x3169 JUMP JUMPDEST PUSH1 0x20 ADD ADD SWAP1 PUSH1 0x1 PUSH1 0x1 PUSH1 0xF8 SHL SUB NOT AND SWAP1 DUP2 PUSH0 BYTE SWAP1 MSTORE8 POP PUSH2 0x227E JUMP JUMPDEST PUSH1 0x29 PUSH1 0xFA SHL PUSH1 0x1 PUSH1 0x1 PUSH1 0xF8 SHL SUB NOT DUP3 AND ADD PUSH2 0x1ED4 JUMPI PUSH1 0x17 PUSH1 0xFA SHL DUP5 DUP5 PUSH2 0x1E9C DUP2 PUSH2 0x350F JUMP JUMPDEST SWAP6 POP DUP2 MLOAD DUP2 LT PUSH2 0x1EAE JUMPI PUSH2 0x1EAE PUSH2 0x3169 JUMP JUMPDEST PUSH1 0x20 ADD ADD SWAP1 PUSH1 0x1 PUSH1 0x1 PUSH1 0xF8 SHL SUB NOT AND SWAP1 DUP2 PUSH0 BYTE SWAP1 MSTORE8 POP PUSH1 0x17 PUSH1 0xFA SHL DUP5 DUP5 PUSH2 0x1E4A DUP2 PUSH2 0x350F JUMP JUMPDEST PUSH1 0x1 PUSH1 0x1 PUSH1 0xF8 SHL SUB NOT DUP2 AND PUSH1 0x1 PUSH1 0xFB SHL SUB PUSH2 0x1F31 JUMPI PUSH1 0x17 PUSH1 0xFA SHL DUP5 DUP5 PUSH2 0x1EF9 DUP2 PUSH2 0x350F JUMP JUMPDEST SWAP6 POP DUP2 MLOAD DUP2 LT PUSH2 0x1F0B JUMPI PUSH2 0x1F0B PUSH2 0x3169 JUMP JUMPDEST PUSH1 0x20 ADD ADD SWAP1 PUSH1 0x1 PUSH1 0x1 PUSH1 0xF8 SHL SUB NOT AND SWAP1 DUP2 PUSH0 BYTE SWAP1 MSTORE8 POP PUSH1 0x31 PUSH1 0xF9 SHL DUP5 DUP5 PUSH2 0x1E4A DUP2 PUSH2 0x350F JUMP JUMPDEST PUSH1 0x1 PUSH1 0x1 PUSH1 0xF8 SHL SUB NOT DUP2 AND PUSH1 0x9 PUSH1 0xF8 SHL SUB PUSH2 0x1F8E JUMPI PUSH1 0x17 PUSH1 0xFA SHL DUP5 DUP5 PUSH2 0x1F56 DUP2 PUSH2 0x350F JUMP JUMPDEST SWAP6 POP DUP2 MLOAD DUP2 LT PUSH2 0x1F68 JUMPI PUSH2 0x1F68 PUSH2 0x3169 JUMP JUMPDEST PUSH1 0x20 ADD ADD SWAP1 PUSH1 0x1 PUSH1 0x1 PUSH1 0xF8 SHL SUB NOT AND SWAP1 DUP2 PUSH0 BYTE SWAP1 MSTORE8 POP PUSH1 0x1D PUSH1 0xFA SHL DUP5 DUP5 PUSH2 0x1E4A DUP2 PUSH2 0x350F JUMP JUMPDEST PUSH1 0x1 PUSH1 0x1 PUSH1 0xF8 SHL SUB NOT DUP2 AND PUSH1 0x5 PUSH1 0xF9 SHL SUB PUSH2 0x1FEB JUMPI PUSH1 0x17 PUSH1 0xFA SHL DUP5 DUP5 PUSH2 0x1FB3 DUP2 PUSH2 0x350F JUMP JUMPDEST SWAP6 POP DUP2 MLOAD DUP2 LT PUSH2 0x1FC5 JUMPI PUSH2 0x1FC5 PUSH2 0x3169 JUMP JUMPDEST PUSH1 0x20 ADD ADD SWAP1 PUSH1 0x1 PUSH1 0x1 PUSH1 0xF8 SHL SUB NOT AND SWAP1 DUP2 PUSH0 BYTE SWAP1 MSTORE8 POP PUSH1 0x37 PUSH1 0xF9 SHL DUP5 DUP5 PUSH2 0x1E4A DUP2 PUSH2 0x350F JUMP JUMPDEST PUSH1 0x1 PUSH1 0x1 PUSH1 0xF8 SHL SUB NOT DUP2 AND PUSH1 0x3 PUSH1 0xFA SHL SUB PUSH2 0x2048 JUMPI PUSH1 0x17 PUSH1 0xFA SHL DUP5 DUP5 PUSH2 0x2010 DUP2 PUSH2 0x350F JUMP JUMPDEST SWAP6 POP DUP2 MLOAD DUP2 LT PUSH2 0x2022 JUMPI PUSH2 0x2022 PUSH2 0x3169 JUMP JUMPDEST PUSH1 0x20 ADD ADD SWAP1 PUSH1 0x1 PUSH1 0x1 PUSH1 0xF8 SHL SUB NOT AND SWAP1 DUP2 PUSH0 BYTE SWAP1 MSTORE8 POP PUSH1 0x33 PUSH1 0xF9 SHL DUP5 DUP5 PUSH2 0x1E4A DUP2 PUSH2 0x350F JUMP JUMPDEST PUSH1 0x1 PUSH1 0x1 PUSH1 0xF8 SHL SUB NOT DUP2 AND PUSH1 0xD PUSH1 0xF8 SHL SUB PUSH2 0x20A5 JUMPI PUSH1 0x17 PUSH1 0xFA SHL DUP5 DUP5 PUSH2 0x206D DUP2 PUSH2 0x350F JUMP JUMPDEST SWAP6 POP DUP2 MLOAD DUP2 LT PUSH2 0x207F JUMPI PUSH2 0x207F PUSH2 0x3169 JUMP JUMPDEST PUSH1 0x20 ADD ADD SWAP1 PUSH1 0x1 PUSH1 0x1 PUSH1 0xF8 SHL SUB NOT AND SWAP1 DUP2 PUSH0 BYTE SWAP1 MSTORE8 POP PUSH1 0x39 PUSH1 0xF9 SHL DUP5 DUP5 PUSH2 0x1E4A DUP2 PUSH2 0x350F JUMP JUMPDEST PUSH1 0x20 PUSH1 0xF8 DUP3 SWAP1 SHR LT ISZERO PUSH2 0x2249 JUMPI PUSH16 0x181899199A1A9B1B9C1CB0B131B232B3 PUSH1 0x81 SHL PUSH1 0x17 PUSH1 0xFA SHL DUP6 DUP6 PUSH2 0x20D6 DUP2 PUSH2 0x350F JUMP JUMPDEST SWAP7 POP DUP2 MLOAD DUP2 LT PUSH2 0x20E8 JUMPI PUSH2 0x20E8 PUSH2 0x3169 JUMP JUMPDEST PUSH1 0x20 ADD ADD SWAP1 PUSH1 0x1 PUSH1 0x1 PUSH1 0xF8 SHL SUB NOT AND SWAP1 DUP2 PUSH0 BYTE SWAP1 MSTORE8 POP PUSH1 0x75 PUSH1 0xF8 SHL DUP6 DUP6 PUSH2 0x210E DUP2 PUSH2 0x350F JUMP JUMPDEST SWAP7 POP DUP2 MLOAD DUP2 LT PUSH2 0x2120 JUMPI PUSH2 0x2120 PUSH2 0x3169 JUMP JUMPDEST PUSH1 0x20 ADD ADD SWAP1 PUSH1 0x1 PUSH1 0x1 PUSH1 0xF8 SHL SUB NOT AND SWAP1 DUP2 PUSH0 BYTE SWAP1 MSTORE8 POP PUSH1 0x3 PUSH1 0xFC SHL DUP6 DUP6 PUSH2 0x2146 DUP2 PUSH2 0x350F JUMP JUMPDEST SWAP7 POP DUP2 MLOAD DUP2 LT PUSH2 0x2158 JUMPI PUSH2 0x2158 PUSH2 0x3169 JUMP JUMPDEST PUSH1 0x20 ADD ADD SWAP1 PUSH1 0x1 PUSH1 0x1 PUSH1 0xF8 SHL SUB NOT AND SWAP1 DUP2 PUSH0 BYTE SWAP1 MSTORE8 POP PUSH1 0x3 PUSH1 0xFC SHL DUP6 DUP6 PUSH2 0x217E DUP2 PUSH2 0x350F JUMP JUMPDEST SWAP7 POP DUP2 MLOAD DUP2 LT PUSH2 0x2190 JUMPI PUSH2 0x2190 PUSH2 0x3169 JUMP JUMPDEST PUSH1 0x20 ADD ADD SWAP1 PUSH1 0x1 PUSH1 0x1 PUSH1 0xF8 SHL SUB NOT AND SWAP1 DUP2 PUSH0 BYTE SWAP1 MSTORE8 POP DUP1 PUSH1 0xFC DUP4 SWAP1 SHR PUSH1 0x10 DUP2 LT PUSH2 0x21BC JUMPI PUSH2 0x21BC PUSH2 0x3169 JUMP JUMPDEST BYTE PUSH1 0xF8 SHL DUP6 DUP6 PUSH2 0x21CB DUP2 PUSH2 0x350F JUMP JUMPDEST SWAP7 POP DUP2 MLOAD DUP2 LT PUSH2 0x21DD JUMPI PUSH2 0x21DD PUSH2 0x3169 JUMP JUMPDEST PUSH1 0x20 ADD ADD SWAP1 PUSH1 0x1 PUSH1 0x1 PUSH1 0xF8 SHL SUB NOT AND SWAP1 DUP2 PUSH0 BYTE SWAP1 MSTORE8 POP DUP1 PUSH1 0xF PUSH1 0xF8 DUP5 SWAP1 SHR AND PUSH1 0x10 DUP2 LT PUSH2 0x220C JUMPI PUSH2 0x220C PUSH2 0x3169 JUMP JUMPDEST BYTE PUSH1 0xF8 SHL DUP6 DUP6 PUSH2 0x221B DUP2 PUSH2 0x350F JUMP JUMPDEST SWAP7 POP DUP2 MLOAD DUP2 LT PUSH2 0x222D JUMPI PUSH2 0x222D PUSH2 0x3169 JUMP JUMPDEST PUSH1 0x20 ADD ADD SWAP1 PUSH1 0x1 PUSH1 0x1 PUSH1 0xF8 SHL SUB NOT AND SWAP1 DUP2 PUSH0 BYTE SWAP1 MSTORE8 POP POP PUSH2 0x227E JUMP JUMPDEST DUP1 DUP5 DUP5 PUSH2 0x2255 DUP2 PUSH2 0x350F JUMP JUMPDEST SWAP6 POP DUP2 MLOAD DUP2 LT PUSH2 0x2267 JUMPI PUSH2 0x2267 PUSH2 0x3169 JUMP JUMPDEST PUSH1 0x20 ADD ADD SWAP1 PUSH1 0x1 PUSH1 0x1 PUSH1 0xF8 SHL SUB NOT AND SWAP1 DUP2 PUSH0 BYTE SWAP1 MSTORE8 POP JUMPDEST POP PUSH1 0x1 ADD PUSH2 0x1DCA JUMP JUMPDEST POP DUP2 MSTORE SWAP4 SWAP3 POP POP POP JUMP JUMPDEST PUSH1 0x60 PUSH0 PUSH2 0x229D DUP4 PUSH2 0x27E3 JUMP JUMPDEST PUSH1 0x1 ADD SWAP1 POP PUSH0 DUP2 PUSH1 0x1 PUSH1 0x1 PUSH1 0x40 SHL SUB DUP2 GT ISZERO PUSH2 0x22BB JUMPI PUSH2 0x22BB PUSH2 0x2FD1 JUMP JUMPDEST PUSH1 0x40 MLOAD SWAP1 DUP1 DUP3 MSTORE DUP1 PUSH1 0x1F ADD PUSH1 0x1F NOT AND PUSH1 0x20 ADD DUP3 ADD PUSH1 0x40 MSTORE DUP1 ISZERO PUSH2 0x22E5 JUMPI PUSH1 0x20 DUP3 ADD DUP2 DUP1 CALLDATASIZE DUP4 CALLDATACOPY ADD SWAP1 POP JUMPDEST POP SWAP1 POP DUP2 DUP2 ADD PUSH1 0x20 ADD JUMPDEST PUSH0 NOT ADD PUSH16 0x181899199A1A9B1B9C1CB0B131B232B3 PUSH1 0x81 SHL PUSH1 0xA DUP7 MOD BYTE DUP2 MSTORE8 PUSH1 0xA DUP6 DIV SWAP5 POP DUP5 PUSH2 0x22EF JUMPI POP SWAP4 SWAP3 POP POP POP JUMP JUMPDEST PUSH1 0x60 PUSH2 0x72B DUP3 PUSH0 PUSH2 0x28B8 JUMP JUMPDEST PUSH2 0x233A DUP5 DUP5 DUP5 DUP5 PUSH1 0x1 PUSH2 0x2A37 JUMP JUMPDEST PUSH2 0xA36 JUMPI DUP4 PUSH1 0x40 MLOAD PUSH4 0x5274AFE7 PUSH1 0xE0 SHL DUP2 MSTORE PUSH1 0x4 ADD PUSH2 0x8B1 SWAP2 SWAP1 PUSH2 0x2E15 JUMP JUMPDEST PUSH1 0x1 PUSH1 0x1 PUSH1 0xA0 SHL SUB DUP2 AND PUSH0 SWAP1 DUP2 MSTORE PUSH1 0xD PUSH1 0x20 MSTORE PUSH1 0x40 DUP2 KECCAK256 SLOAD DUP2 SWAP1 PUSH2 0x237C SWAP1 PUSH2 0x1BF2 JUMP JUMPDEST SWAP1 POP PUSH2 0x72B DUP4 DUP3 PUSH2 0x1861 JUMP JUMPDEST PUSH0 SWAP1 DUP2 MSTORE PUSH1 0x3 PUSH1 0x20 MSTORE PUSH1 0x40 SWAP1 KECCAK256 SLOAD PUSH1 0x1 PUSH1 0x1 PUSH1 0xA0 SHL SUB AND SWAP1 JUMP JUMPDEST DUP1 DUP1 PUSH2 0x23B6 JUMPI POP PUSH1 0x1 PUSH1 0x1 PUSH1 0xA0 SHL SUB DUP3 AND ISZERO ISZERO JUMPDEST ISZERO PUSH2 0x246E JUMPI PUSH0 PUSH2 0x23C5 DUP5 PUSH2 0x14D4 JUMP JUMPDEST SWAP1 POP PUSH1 0x1 PUSH1 0x1 PUSH1 0xA0 SHL SUB DUP4 AND ISZERO DUP1 ISZERO SWAP1 PUSH2 0x23F1 JUMPI POP DUP3 PUSH1 0x1 PUSH1 0x1 PUSH1 0xA0 SHL SUB AND DUP2 PUSH1 0x1 PUSH1 0x1 PUSH1 0xA0 SHL SUB AND EQ ISZERO JUMPDEST DUP1 ISZERO PUSH2 0x2404 JUMPI POP PUSH2 0x2402 DUP2 DUP5 PUSH2 0x118D JUMP JUMPDEST ISZERO JUMPDEST ISZERO PUSH2 0x2424 JUMPI DUP3 PUSH1 0x40 MLOAD PUSH4 0xA9FBF51F PUSH1 0xE0 SHL DUP2 MSTORE PUSH1 0x4 ADD PUSH2 0x8B1 SWAP2 SWAP1 PUSH2 0x2E15 JUMP JUMPDEST DUP2 ISZERO PUSH2 0x246C JUMPI DUP4 DUP6 PUSH1 0x1 PUSH1 0x1 PUSH1 0xA0 SHL SUB AND DUP3 PUSH1 0x1 PUSH1 0x1 PUSH1 0xA0 SHL SUB AND PUSH32 0x8C5BE1E5EBEC7D5BD14F71427D1E84F3DD0314C0F7B2291E5B200AC8C7C3B925 PUSH1 0x40 MLOAD PUSH1 0x40 MLOAD DUP1 SWAP2 SUB SWAP1 LOG4 JUMPDEST POP JUMPDEST POP POP PUSH0 SWAP1 DUP2 MSTORE PUSH1 0x5 PUSH1 0x20 MSTORE PUSH1 0x40 SWAP1 KECCAK256 DUP1 SLOAD PUSH1 0x1 PUSH1 0x1 PUSH1 0xA0 SHL SUB NOT AND PUSH1 0x1 PUSH1 0x1 PUSH1 0xA0 SHL SUB SWAP3 SWAP1 SWAP3 AND SWAP2 SWAP1 SWAP2 OR SWAP1 SSTORE JUMP JUMPDEST PUSH2 0x24A5 PUSH2 0x2AA4 JUMP JUMPDEST ISZERO PUSH2 0xCBA JUMPI PUSH1 0x40 MLOAD PUSH4 0x3EE5AEB5 PUSH1 0xE0 SHL DUP2 MSTORE PUSH1 0x4 ADD PUSH1 0x40 MLOAD DUP1 SWAP2 SUB SWAP1 REVERT JUMPDEST PUSH32 0x9B779B17422D0DF92223018B32B4D1FA46E071723D6817E2486D003BECC55F00 SWAP1 JUMP JUMPDEST PUSH2 0x86C DUP3 DUP3 PUSH1 0x40 MLOAD DUP1 PUSH1 0x20 ADD PUSH1 0x40 MSTORE DUP1 PUSH0 DUP2 MSTORE POP PUSH2 0x2AB9 JUMP JUMPDEST PUSH2 0x250B DUP4 DUP4 DUP4 PUSH2 0x2AD0 JUMP JUMPDEST PUSH2 0xB16 JUMPI PUSH1 0x1 PUSH1 0x1 PUSH1 0xA0 SHL SUB DUP4 AND PUSH2 0x2539 JUMPI PUSH1 0x40 MLOAD PUSH4 0x7E273289 PUSH1 0xE0 SHL DUP2 MSTORE PUSH1 0x4 DUP2 ADD DUP3 SWAP1 MSTORE PUSH1 0x24 ADD PUSH2 0x8B1 JUMP JUMPDEST PUSH1 0x40 MLOAD PUSH4 0x177E802F PUSH1 0xE0 SHL DUP2 MSTORE PUSH1 0x1 PUSH1 0x1 PUSH1 0xA0 SHL SUB DUP4 AND PUSH1 0x4 DUP3 ADD MSTORE PUSH1 0x24 DUP2 ADD DUP3 SWAP1 MSTORE PUSH1 0x44 ADD PUSH2 0x8B1 JUMP JUMPDEST PUSH1 0x40 MLOAD PUSH4 0xA9059CBB PUSH1 0xE0 SHL PUSH0 DUP2 DUP2 MSTORE PUSH1 0x1 PUSH1 0x1 PUSH1 0xA0 SHL SUB DUP7 AND PUSH1 0x4 MSTORE PUSH1 0x24 DUP6 SWAP1 MSTORE SWAP2 PUSH1 0x20 DUP4 PUSH1 0x44 DUP2 DUP1 DUP12 GAS CALL SWAP3 POP PUSH1 0x1 PUSH0 MLOAD EQ DUP4 AND PUSH2 0x25BA JUMPI DUP4 DUP4 ISZERO AND ISZERO PUSH2 0x25AE JUMPI RETURNDATASIZE PUSH0 DUP3 RETURNDATACOPY RETURNDATASIZE DUP2 REVERT JUMPDEST PUSH0 DUP8 EXTCODESIZE GT RETURNDATASIZE ISZERO AND DUP4 AND SWAP3 POP JUMPDEST PUSH1 0x40 MSTORE POP SWAP5 SWAP4 POP POP POP POP JUMP JUMPDEST PUSH0 PUSH1 0x9 SLOAD PUSH1 0xFF AND PUSH1 0x2 DUP2 GT ISZERO PUSH2 0x25DE JUMPI PUSH2 0x25DE PUSH2 0x2E85 JUMP JUMPDEST EQ PUSH2 0x25FB JUMPI PUSH1 0x40 MLOAD PUSH3 0x461BCD PUSH1 0xE5 SHL DUP2 MSTORE PUSH1 0x4 ADD PUSH2 0x8B1 SWAP1 PUSH2 0x3398 JUMP JUMPDEST PUSH1 0x40 MLOAD PUSH4 0x70A08231 PUSH1 0xE0 SHL DUP2 MSTORE PUSH0 SWAP1 PUSH1 0x1 PUSH1 0x1 PUSH1 0xA0 SHL SUB PUSH32 0x0 AND SWAP1 PUSH4 0x70A08231 SWAP1 PUSH2 0x2649 SWAP1 ADDRESS SWAP1 PUSH1 0x4 ADD PUSH2 0x2E15 JUMP JUMPDEST PUSH1 0x20 PUSH1 0x40 MLOAD DUP1 DUP4 SUB DUP2 DUP7 GAS STATICCALL ISZERO DUP1 ISZERO PUSH2 0x2664 JUMPI RETURNDATASIZE PUSH0 PUSH0 RETURNDATACOPY RETURNDATASIZE PUSH0 REVERT JUMPDEST POP POP POP POP PUSH1 0x40 MLOAD RETURNDATASIZE PUSH1 0x1F NOT PUSH1 0x1F DUP3 ADD AND DUP3 ADD DUP1 PUSH1 0x40 MSTORE POP DUP2 ADD SWAP1 PUSH2 0x2688 SWAP2 SWAP1 PUSH2 0x3527 JUMP JUMPDEST SWAP1 POP PUSH32 0x0 DUP2 LT ISZERO PUSH2 0x26EF JUMPI PUSH1 0x40 MLOAD PUSH3 0x461BCD PUSH1 0xE5 SHL DUP2 MSTORE PUSH1 0x20 PUSH1 0x4 DUP3 ADD MSTORE PUSH1 0x12 PUSH1 0x24 DUP3 ADD MSTORE PUSH18 0x696E73756666696369656E742066756E6473 PUSH1 0x70 SHL PUSH1 0x44 DUP3 ADD MSTORE PUSH1 0x64 ADD PUSH2 0x8B1 JUMP JUMPDEST PUSH1 0x9 DUP1 SLOAD PUSH1 0xFF NOT AND PUSH1 0x1 OR SWAP1 SSTORE PUSH2 0x2705 DUP2 PUSH2 0x2B35 JUMP JUMPDEST PUSH1 0x40 MLOAD DUP2 DUP2 MSTORE PUSH32 0x2B3F27CB35B5581F9BAEB414C2592D8FC9C9067287476CA5624392320E9BF68E SWAP1 PUSH1 0x20 ADD PUSH1 0x40 MLOAD DUP1 SWAP2 SUB SWAP1 LOG1 POP JUMP JUMPDEST PUSH0 PUSH1 0x9 SLOAD PUSH1 0xFF AND PUSH1 0x2 DUP2 GT ISZERO PUSH2 0x2753 JUMPI PUSH2 0x2753 PUSH2 0x2E85 JUMP JUMPDEST EQ PUSH2 0x2770 JUMPI PUSH1 0x40 MLOAD PUSH3 0x461BCD PUSH1 0xE5 SHL DUP2 MSTORE PUSH1 0x4 ADD PUSH2 0x8B1 SWAP1 PUSH2 0x3398 JUMP JUMPDEST PUSH1 0x9 DUP1 SLOAD PUSH1 0xFF NOT AND PUSH1 0x2 OR SWAP1 SSTORE PUSH1 0xA SLOAD PUSH1 0x40 MLOAD SWAP1 DUP2 MSTORE PUSH32 0x7B1418B19A03B176F641639EE79855DA661FA88A08377ECD32AD6D38152B9536 SWAP1 PUSH1 0x20 ADD PUSH1 0x40 MLOAD DUP1 SWAP2 SUB SWAP1 LOG1 JUMP JUMPDEST PUSH0 PUSH32 0x0 PUSH2 0xD8C PUSH2 0x2710 DUP5 PUSH2 0x317D JUMP JUMPDEST PUSH0 DUP1 PUSH19 0x184F03E93FF9F4DAA797ED6E38ED64BF6A1F01 PUSH1 0x40 SHL DUP4 LT PUSH2 0x2821 JUMPI PUSH19 0x184F03E93FF9F4DAA797ED6E38ED64BF6A1F01 PUSH1 0x40 SHL DUP4 DIV SWAP3 POP PUSH1 0x40 ADD JUMPDEST PUSH10 0x4EE2D6D415B85ACEF81 PUSH1 0x20 SHL DUP4 LT PUSH2 0x284B JUMPI PUSH10 0x4EE2D6D415B85ACEF81 PUSH1 0x20 SHL DUP4 DIV SWAP3 POP PUSH1 0x20 ADD JUMPDEST PUSH7 0x2386F26FC10000 DUP4 LT PUSH2 0x2869 JUMPI PUSH7 0x2386F26FC10000 DUP4 DIV SWAP3 POP PUSH1 0x10 ADD JUMPDEST PUSH4 0x5F5E100 DUP4 LT PUSH2 0x2881 JUMPI PUSH4 0x5F5E100 DUP4 DIV SWAP3 POP PUSH1 0x8 ADD JUMPDEST PUSH2 0x2710 DUP4 LT PUSH2 0x2895 JUMPI PUSH2 0x2710 DUP4 DIV SWAP3 POP PUSH1 0x4 ADD JUMPDEST PUSH1 0x64 DUP4 LT PUSH2 0x28A7 JUMPI PUSH1 0x64 DUP4 DIV SWAP3 POP PUSH1 0x2 ADD JUMPDEST PUSH1 0xA DUP4 LT PUSH2 0x72B JUMPI PUSH1 0x1 ADD SWAP3 SWAP2 POP POP JUMP JUMPDEST PUSH1 0x60 DUP3 MLOAD PUSH0 SUB PUSH2 0x28D6 JUMPI POP PUSH1 0x40 DUP1 MLOAD PUSH1 0x20 DUP2 ADD SWAP1 SWAP2 MSTORE PUSH0 DUP2 MSTORE PUSH2 0x72B JUMP JUMPDEST PUSH0 DUP3 PUSH2 0x2906 JUMPI PUSH1 0x3 DUP5 MLOAD PUSH1 0x2 PUSH2 0x28EC SWAP2 SWAP1 PUSH2 0x3156 JUMP JUMPDEST PUSH2 0x28F6 SWAP2 SWAP1 PUSH2 0x3194 JUMP JUMPDEST PUSH2 0x2901 SWAP1 PUSH1 0x4 PUSH2 0x317D JUMP JUMPDEST PUSH2 0x292B JUMP JUMPDEST PUSH1 0x3 DUP5 MLOAD PUSH1 0x4 PUSH2 0x2916 SWAP2 SWAP1 PUSH2 0x317D JUMP JUMPDEST PUSH2 0x2921 SWAP1 PUSH1 0x2 PUSH2 0x3156 JUMP JUMPDEST PUSH2 0x292B SWAP2 SWAP1 PUSH2 0x3194 JUMP JUMPDEST SWAP1 POP PUSH1 0x40 MLOAD SWAP2 POP PUSH32 0x4142434445464748494A4B4C4D4E4F505152535455565758595A616263646566 PUSH1 0x1F MSTORE PUSH2 0x670 DUP4 MUL PUSH32 0x6768696A6B6C6D6E6F707172737475767778797A303132333435363738392B2F XOR PUSH1 0x3F MSTORE PUSH1 0x20 DUP3 ADD DUP2 DUP2 ADD DUP6 DUP7 MLOAD DUP8 ADD PUSH1 0x20 DUP2 ADD DUP1 MLOAD PUSH0 DUP3 MSTORE JUMPDEST DUP3 DUP5 LT ISZERO PUSH2 0x29E9 JUMPI PUSH1 0x3 DUP5 ADD SWAP4 POP DUP4 MLOAD PUSH1 0x3F DUP2 PUSH1 0x12 SHR AND MLOAD DUP8 MSTORE8 PUSH1 0x1 DUP8 ADD SWAP7 POP PUSH1 0x3F DUP2 PUSH1 0xC SHR AND MLOAD DUP8 MSTORE8 PUSH1 0x1 DUP8 ADD SWAP7 POP PUSH1 0x3F DUP2 PUSH1 0x6 SHR AND MLOAD DUP8 MSTORE8 PUSH1 0x1 DUP8 ADD SWAP7 POP PUSH1 0x3F DUP2 AND MLOAD DUP8 MSTORE8 POP PUSH1 0x1 DUP7 ADD SWAP6 POP PUSH2 0x2996 JUMP JUMPDEST SWAP1 MSTORE POP DUP6 SWAP1 POP PUSH2 0x2A2A JUMPI PUSH1 0x3 DUP7 MLOAD MOD PUSH1 0x1 DUP2 EQ PUSH2 0x2A0D JUMPI PUSH1 0x2 DUP2 EQ PUSH2 0x2A20 JUMPI PUSH2 0x2A28 JUMP JUMPDEST PUSH1 0x3D PUSH1 0x1 DUP5 SUB MSTORE8 PUSH1 0x3D PUSH1 0x2 DUP5 SUB MSTORE8 PUSH2 0x2A28 JUMP JUMPDEST PUSH1 0x3D PUSH1 0x1 DUP5 SUB MSTORE8 JUMPDEST POP JUMPDEST SWAP2 DUP4 MSTORE POP PUSH1 0x40 MSTORE SWAP3 SWAP2 POP POP JUMP JUMPDEST PUSH1 0x40 MLOAD PUSH4 0x23B872DD PUSH1 0xE0 SHL PUSH0 DUP2 DUP2 MSTORE PUSH1 0x1 PUSH1 0x1 PUSH1 0xA0 SHL SUB DUP8 DUP2 AND PUSH1 0x4 MSTORE DUP7 AND PUSH1 0x24 MSTORE PUSH1 0x44 DUP6 SWAP1 MSTORE SWAP2 PUSH1 0x20 DUP4 PUSH1 0x64 DUP2 DUP1 DUP13 GAS CALL SWAP3 POP PUSH1 0x1 PUSH0 MLOAD EQ DUP4 AND PUSH2 0x2A93 JUMPI DUP4 DUP4 ISZERO AND ISZERO PUSH2 0x2A87 JUMPI RETURNDATASIZE PUSH0 DUP3 RETURNDATACOPY RETURNDATASIZE DUP2 REVERT JUMPDEST PUSH0 DUP9 EXTCODESIZE GT RETURNDATASIZE ISZERO AND DUP4 AND SWAP3 POP JUMPDEST PUSH1 0x40 MSTORE POP PUSH0 PUSH1 0x60 MSTORE SWAP6 SWAP5 POP POP POP POP POP JUMP JUMPDEST PUSH0 PUSH1 0x2 PUSH2 0x2AB2 PUSH2 0xDB2 PUSH2 0x24C3 JUMP JUMPDEST SLOAD EQ SWAP2 SWAP1 POP JUMP JUMPDEST PUSH2 0x2AC3 DUP4 DUP4 PUSH2 0x2C9E JUMP JUMPDEST PUSH2 0xB16 CALLER PUSH0 DUP6 DUP6 DUP6 PUSH2 0x1ADC JUMP JUMPDEST PUSH0 PUSH1 0x1 PUSH1 0x1 PUSH1 0xA0 SHL SUB DUP4 AND ISZERO DUP1 ISZERO SWAP1 PUSH2 0x2B2D JUMPI POP DUP3 PUSH1 0x1 PUSH1 0x1 PUSH1 0xA0 SHL SUB AND DUP5 PUSH1 0x1 PUSH1 0x1 PUSH1 0xA0 SHL SUB AND EQ DUP1 PUSH2 0x2B09 JUMPI POP PUSH2 0x2B09 DUP5 DUP5 PUSH2 0x118D JUMP JUMPDEST DUP1 PUSH2 0x2B2D JUMPI POP DUP3 PUSH1 0x1 PUSH1 0x1 PUSH1 0xA0 SHL SUB AND PUSH2 0x2B22 DUP4 PUSH2 0x150B JUMP JUMPDEST PUSH1 0x1 PUSH1 0x1 PUSH1 0xA0 SHL SUB AND EQ JUMPDEST SWAP5 SWAP4 POP POP POP POP JUMP JUMPDEST PUSH0 DUP2 GT PUSH2 0x2B6F JUMPI PUSH1 0x40 MLOAD PUSH3 0x461BCD PUSH1 0xE5 SHL DUP2 MSTORE PUSH1 0x20 PUSH1 0x4 DUP3 ADD MSTORE PUSH1 0x8 PUSH1 0x24 DUP3 ADD MSTORE PUSH8 0x6E6F2066756E6473 PUSH1 0xC0 SHL PUSH1 0x44 DUP3 ADD MSTORE PUSH1 0x64 ADD PUSH2 0x8B1 JUMP JUMPDEST PUSH2 0x2BC3 PUSH1 0x1 PUSH1 0x1 PUSH1 0xA0 SHL SUB PUSH32 0x0 AND PUSH32 0x0 DUP4 PUSH2 0x2CFF JUMP JUMPDEST PUSH1 0x40 MLOAD PUSH4 0xB6B55F25 PUSH1 0xE0 SHL DUP2 MSTORE PUSH1 0x4 DUP2 ADD DUP3 SWAP1 MSTORE PUSH32 0x0 PUSH1 0x1 PUSH1 0x1 PUSH1 0xA0 SHL SUB AND SWAP1 PUSH4 0xB6B55F25 SWAP1 PUSH1 0x24 ADD PUSH0 PUSH1 0x40 MLOAD DUP1 DUP4 SUB DUP2 PUSH0 DUP8 DUP1 EXTCODESIZE ISZERO DUP1 ISZERO PUSH2 0x2C22 JUMPI PUSH0 PUSH0 REVERT JUMPDEST POP GAS CALL ISZERO DUP1 ISZERO PUSH2 0x2C34 JUMPI RETURNDATASIZE PUSH0 PUSH0 RETURNDATACOPY RETURNDATASIZE PUSH0 REVERT JUMPDEST POP POP POP POP PUSH32 0x0 PUSH1 0x1 PUSH1 0x1 PUSH1 0xA0 SHL SUB AND PUSH32 0x8C9A4F13B67CB64D7C6AA1AE0C9BF07694AF521A28B93E7060020810AB4BC59F DUP3 PUSH1 0x40 MLOAD PUSH2 0x2C93 SWAP2 DUP2 MSTORE PUSH1 0x20 ADD SWAP1 JUMP JUMPDEST PUSH1 0x40 MLOAD DUP1 SWAP2 SUB SWAP1 LOG2 POP JUMP JUMPDEST PUSH1 0x1 PUSH1 0x1 PUSH1 0xA0 SHL SUB DUP3 AND PUSH2 0x2CC7 JUMPI PUSH0 PUSH1 0x40 MLOAD PUSH4 0x32505749 PUSH1 0xE1 SHL DUP2 MSTORE PUSH1 0x4 ADD PUSH2 0x8B1 SWAP2 SWAP1 PUSH2 0x2E15 JUMP JUMPDEST PUSH0 PUSH2 0x2CD3 DUP4 DUP4 PUSH0 PUSH2 0x1772 JUMP JUMPDEST SWAP1 POP PUSH1 0x1 PUSH1 0x1 PUSH1 0xA0 SHL SUB DUP2 AND ISZERO PUSH2 0xB16 JUMPI PUSH0 PUSH1 0x40 MLOAD PUSH4 0x39E35637 PUSH1 0xE1 SHL DUP2 MSTORE PUSH1 0x4 ADD PUSH2 0x8B1 SWAP2 SWAP1 PUSH2 0x2E15 JUMP JUMPDEST PUSH2 0x2D0B DUP4 DUP4 DUP4 PUSH0 PUSH2 0x2D44 JUMP JUMPDEST PUSH2 0xB16 JUMPI PUSH2 0x2D1C DUP4 DUP4 PUSH0 PUSH1 0x1 PUSH2 0x2D44 JUMP JUMPDEST PUSH2 0x2D3B JUMPI DUP3 PUSH1 0x40 MLOAD PUSH4 0x5274AFE7 PUSH1 0xE0 SHL DUP2 MSTORE PUSH1 0x4 ADD PUSH2 0x8B1 SWAP2 SWAP1 PUSH2 0x2E15 JUMP JUMPDEST PUSH2 0x1954 DUP4 DUP4 DUP4 PUSH1 0x1 JUMPDEST PUSH1 0x40 MLOAD PUSH4 0x95EA7B3 PUSH1 0xE0 SHL PUSH0 DUP2 DUP2 MSTORE PUSH1 0x1 PUSH1 0x1 PUSH1 0xA0 SHL SUB DUP7 AND PUSH1 0x4 MSTORE PUSH1 0x24 DUP6 SWAP1 MSTORE SWAP2 PUSH1 0x20 DUP4 PUSH1 0x44 DUP2 DUP1 DUP12 GAS CALL SWAP3 POP PUSH1 0x1 PUSH0 MLOAD EQ DUP4 AND PUSH2 0x25BA JUMPI DUP4 DUP4 ISZERO AND ISZERO PUSH2 0x25AE JUMPI RETURNDATASIZE PUSH0 DUP3 RETURNDATACOPY RETURNDATASIZE DUP2 REVERT JUMPDEST PUSH1 0x1 PUSH1 0x1 PUSH1 0xE0 SHL SUB NOT DUP2 AND DUP2 EQ PUSH2 0x1497 JUMPI PUSH0 PUSH0 REVERT JUMPDEST PUSH0 PUSH1 0x20 DUP3 DUP5 SUB SLT ISZERO PUSH2 0x2DB3 JUMPI PUSH0 PUSH0 REVERT JUMPDEST DUP2 CALLDATALOAD PUSH2 0x185A DUP2 PUSH2 0x2D8E JUMP JUMPDEST PUSH0 DUP2 MLOAD DUP1 DUP5 MSTORE DUP1 PUSH1 0x20 DUP5 ADD PUSH1 0x20 DUP7 ADD MCOPY PUSH0 PUSH1 0x20 DUP3 DUP7 ADD ADD MSTORE PUSH1 0x20 PUSH1 0x1F NOT PUSH1 0x1F DUP4 ADD AND DUP6 ADD ADD SWAP2 POP POP SWAP3 SWAP2 POP POP JUMP JUMPDEST PUSH1 0x20 DUP2 MSTORE PUSH0 PUSH2 0x185A PUSH1 0x20 DUP4 ADD DUP5 PUSH2 0x2DBE JUMP JUMPDEST PUSH0 PUSH1 0x20 DUP3 DUP5 SUB SLT ISZERO PUSH2 0x2E0E JUMPI PUSH0 PUSH0 REVERT JUMPDEST POP CALLDATALOAD SWAP2 SWAP1 POP JUMP JUMPDEST PUSH1 0x1 PUSH1 0x1 PUSH1 0xA0 SHL SUB SWAP2 SWAP1 SWAP2 AND DUP2 MSTORE PUSH1 0x20 ADD SWAP1 JUMP JUMPDEST DUP1 CALLDATALOAD PUSH1 0x1 PUSH1 0x1 PUSH1 0xA0 SHL SUB DUP2 AND DUP2 EQ PUSH2 0x2E3F JUMPI PUSH0 PUSH0 REVERT JUMPDEST SWAP2 SWAP1 POP JUMP JUMPDEST PUSH0 PUSH0 PUSH1 0x40 DUP4 DUP6 SUB SLT ISZERO PUSH2 0x2E55 JUMPI PUSH0 PUSH0 REVERT JUMPDEST PUSH2 0x2E5E DUP4 PUSH2 0x2E29 JUMP JUMPDEST SWAP5 PUSH1 0x20 SWAP4 SWAP1 SWAP4 ADD CALLDATALOAD SWAP4 POP POP POP JUMP JUMPDEST PUSH0 PUSH1 0x20 DUP3 DUP5 SUB SLT ISZERO PUSH2 0x2E7C JUMPI PUSH0 PUSH0 REVERT JUMPDEST PUSH2 0x185A DUP3 PUSH2 0x2E29 JUMP JUMPDEST PUSH4 0x4E487B71 PUSH1 0xE0 SHL PUSH0 MSTORE PUSH1 0x21 PUSH1 0x4 MSTORE PUSH1 0x24 PUSH0 REVERT JUMPDEST PUSH1 0x5 DUP2 LT PUSH2 0x2EA9 JUMPI PUSH2 0x2EA9 PUSH2 0x2E85 JUMP JUMPDEST SWAP1 MSTORE JUMP JUMPDEST PUSH1 0x20 DUP2 ADD PUSH2 0x72B DUP3 DUP5 PUSH2 0x2E99 JUMP JUMPDEST PUSH0 PUSH0 PUSH1 0x40 DUP4 DUP6 SUB SLT ISZERO PUSH2 0x2ECC JUMPI PUSH0 PUSH0 REVERT JUMPDEST POP POP DUP1 CALLDATALOAD SWAP3 PUSH1 0x20 SWAP1 SWAP2 ADD CALLDATALOAD SWAP2 POP JUMP JUMPDEST PUSH0 PUSH0 PUSH0 PUSH1 0x60 DUP5 DUP7 SUB SLT ISZERO PUSH2 0x2EED JUMPI PUSH0 PUSH0 REVERT JUMPDEST PUSH2 0x2EF6 DUP5 PUSH2 0x2E29 JUMP JUMPDEST SWAP3 POP PUSH2 0x2F04 PUSH1 0x20 DUP6 ADD PUSH2 0x2E29 JUMP JUMPDEST SWAP3 SWAP6 SWAP3 SWAP5 POP POP POP PUSH1 0x40 SWAP2 SWAP1 SWAP2 ADD CALLDATALOAD SWAP1 JUMP JUMPDEST PUSH1 0x20 DUP1 DUP3 MSTORE DUP3 MLOAD DUP3 DUP3 ADD DUP2 SWAP1 MSTORE PUSH0 SWAP2 DUP5 ADD SWAP1 PUSH1 0x40 DUP5 ADD SWAP1 DUP4 JUMPDEST DUP2 DUP2 LT ISZERO PUSH2 0x2F55 JUMPI DUP4 MLOAD PUSH1 0x1 PUSH1 0x1 PUSH1 0xA0 SHL SUB AND DUP4 MSTORE PUSH1 0x20 SWAP4 DUP5 ADD SWAP4 SWAP1 SWAP3 ADD SWAP2 PUSH1 0x1 ADD PUSH2 0x2F2E JUMP JUMPDEST POP SWAP1 SWAP6 SWAP5 POP POP POP POP POP JUMP JUMPDEST PUSH0 PUSH0 PUSH1 0x40 DUP4 DUP6 SUB SLT ISZERO PUSH2 0x2F71 JUMPI PUSH0 PUSH0 REVERT JUMPDEST PUSH2 0x2F7A DUP4 PUSH2 0x2E29 JUMP JUMPDEST SWAP2 POP PUSH1 0x20 DUP4 ADD CALLDATALOAD DUP1 ISZERO ISZERO DUP2 EQ PUSH2 0x2F8E JUMPI PUSH0 PUSH0 REVERT JUMPDEST DUP1 SWAP2 POP POP SWAP3 POP SWAP3 SWAP1 POP JUMP JUMPDEST DUP7 ISZERO ISZERO DUP2 MSTORE PUSH1 0x20 DUP2 ADD DUP7 SWAP1 MSTORE PUSH1 0x40 DUP2 ADD DUP6 SWAP1 MSTORE PUSH1 0xC0 DUP2 ADD PUSH2 0x2FBD PUSH1 0x60 DUP4 ADD DUP7 PUSH2 0x2E99 JUMP JUMPDEST SWAP3 ISZERO ISZERO PUSH1 0x80 DUP3 ADD MSTORE PUSH1 0xA0 ADD MSTORE SWAP5 SWAP4 POP POP POP POP JUMP JUMPDEST PUSH4 0x4E487B71 PUSH1 0xE0 SHL PUSH0 MSTORE PUSH1 0x41 PUSH1 0x4 MSTORE PUSH1 0x24 PUSH0 REVERT JUMPDEST PUSH0 PUSH0 PUSH0 PUSH0 PUSH1 0x80 DUP6 DUP8 SUB SLT ISZERO PUSH2 0x2FF8 JUMPI PUSH0 PUSH0 REVERT JUMPDEST PUSH2 0x3001 DUP6 PUSH2 0x2E29 JUMP JUMPDEST SWAP4 POP PUSH2 0x300F PUSH1 0x20 DUP7 ADD PUSH2 0x2E29 JUMP JUMPDEST SWAP3 POP PUSH1 0x40 DUP6 ADD CALLDATALOAD SWAP2 POP PUSH1 0x60 DUP6 ADD CALLDATALOAD PUSH1 0x1 PUSH1 0x1 PUSH1 0x40 SHL SUB DUP2 GT ISZERO PUSH2 0x3030 JUMPI PUSH0 PUSH0 REVERT JUMPDEST DUP6 ADD PUSH1 0x1F DUP2 ADD DUP8 SGT PUSH2 0x3040 JUMPI PUSH0 PUSH0 REVERT JUMPDEST DUP1 CALLDATALOAD PUSH1 0x1 PUSH1 0x1 PUSH1 0x40 SHL SUB DUP2 GT ISZERO PUSH2 0x3059 JUMPI PUSH2 0x3059 PUSH2 0x2FD1 JUMP JUMPDEST PUSH1 0x40 MLOAD PUSH1 0x1F DUP3 ADD PUSH1 0x1F NOT SWAP1 DUP2 AND PUSH1 0x3F ADD AND DUP2 ADD PUSH1 0x1 PUSH1 0x1 PUSH1 0x40 SHL SUB DUP2 GT DUP3 DUP3 LT OR ISZERO PUSH2 0x3087 JUMPI PUSH2 0x3087 PUSH2 0x2FD1 JUMP JUMPDEST PUSH1 0x40 MSTORE DUP2 DUP2 MSTORE DUP3 DUP3 ADD PUSH1 0x20 ADD DUP10 LT ISZERO PUSH2 0x309E JUMPI PUSH0 PUSH0 REVERT JUMPDEST DUP2 PUSH1 0x20 DUP5 ADD PUSH1 0x20 DUP4 ADD CALLDATACOPY PUSH0 PUSH1 0x20 DUP4 DUP4 ADD ADD MSTORE DUP1 SWAP4 POP POP POP POP SWAP3 SWAP6 SWAP2 SWAP5 POP SWAP3 POP JUMP JUMPDEST PUSH1 0x20 DUP2 ADD PUSH1 0x3 DUP4 LT PUSH2 0x30D3 JUMPI PUSH2 0x30D3 PUSH2 0x2E85 JUMP JUMPDEST SWAP2 SWAP1 MSTORE SWAP1 JUMP JUMPDEST PUSH0 PUSH0 PUSH1 0x40 DUP4 DUP6 SUB SLT ISZERO PUSH2 0x30EA JUMPI PUSH0 PUSH0 REVERT JUMPDEST PUSH2 0x30F3 DUP4 PUSH2 0x2E29 JUMP JUMPDEST SWAP2 POP PUSH2 0x3101 PUSH1 0x20 DUP5 ADD PUSH2 0x2E29 JUMP JUMPDEST SWAP1 POP SWAP3 POP SWAP3 SWAP1 POP JUMP JUMPDEST PUSH1 0x1 DUP2 DUP2 SHR SWAP1 DUP3 AND DUP1 PUSH2 0x311E JUMPI PUSH1 0x7F DUP3 AND SWAP2 POP JUMPDEST PUSH1 0x20 DUP3 LT DUP2 SUB PUSH2 0x313C JUMPI PUSH4 0x4E487B71 PUSH1 0xE0 SHL PUSH0 MSTORE PUSH1 0x22 PUSH1 0x4 MSTORE PUSH1 0x24 PUSH0 REVERT JUMPDEST POP SWAP2 SWAP1 POP JUMP JUMPDEST PUSH4 0x4E487B71 PUSH1 0xE0 SHL PUSH0 MSTORE PUSH1 0x11 PUSH1 0x4 MSTORE PUSH1 0x24 PUSH0 REVERT JUMPDEST DUP1 DUP3 ADD DUP1 DUP3 GT ISZERO PUSH2 0x72B JUMPI PUSH2 0x72B PUSH2 0x3142 JUMP JUMPDEST PUSH4 0x4E487B71 PUSH1 0xE0 SHL PUSH0 MSTORE PUSH1 0x32 PUSH1 0x4 MSTORE PUSH1 0x24 PUSH0 REVERT JUMPDEST DUP1 DUP3 MUL DUP2 ISZERO DUP3 DUP3 DIV DUP5 EQ OR PUSH2 0x72B JUMPI PUSH2 0x72B PUSH2 0x3142 JUMP JUMPDEST PUSH0 DUP3 PUSH2 0x31AE JUMPI PUSH4 0x4E487B71 PUSH1 0xE0 SHL PUSH0 MSTORE PUSH1 0x12 PUSH1 0x4 MSTORE PUSH1 0x24 PUSH0 REVERT JUMPDEST POP DIV SWAP1 JUMP JUMPDEST DUP2 DUP2 SUB DUP2 DUP2 GT ISZERO PUSH2 0x72B JUMPI PUSH2 0x72B PUSH2 0x3142 JUMP JUMPDEST PUSH0 DUP2 MLOAD DUP1 PUSH1 0x20 DUP5 ADD DUP6 MCOPY PUSH0 SWAP4 ADD SWAP3 DUP4 MSTORE POP SWAP1 SWAP2 SWAP1 POP JUMP JUMPDEST PUSH9 0x3D913730B6B2911D11 PUSH1 0xB9 SHL DUP2 MSTORE PUSH0 PUSH2 0x31FA PUSH1 0x9 DUP4 ADD DUP9 PUSH2 0x31C6 JUMP JUMPDEST PUSH3 0x10169 PUSH1 0xED SHL DUP2 MSTORE PUSH2 0x3210 PUSH1 0x3 DUP3 ADD DUP9 PUSH2 0x31C6 JUMP JUMPDEST PUSH32 0x222C226465736372697074696F6E223A224261636B657220726577617264204E DUP2 MSTORE PUSH32 0x465420666F722061207375636365737366756C204C4C4D2066756E6472616973 PUSH1 0x20 DUP3 ADD MSTORE PUSH15 0x1A5B99C818D85B5C185A59DB8B888B PUSH1 0x8A SHL PUSH1 0x40 DUP3 ADD MSTORE PUSH32 0x2261747472696275746573223A5B7B2274726169745F74797065223A2243616D PUSH1 0x4F DUP3 ADD MSTORE PUSH16 0x3830B4B3B71116113B30B63AB2911D11 PUSH1 0x81 SHL PUSH1 0x6F DUP3 ADD MSTORE SWAP1 POP PUSH2 0x32BF PUSH1 0x7F DUP3 ADD DUP8 PUSH2 0x31C6 JUMP JUMPDEST PUSH32 0x227D2C7B2274726169745F74797065223A224261636B6572204C6576656C222C DUP2 MSTORE PUSH9 0x113B30B63AB2911D11 PUSH1 0xB9 SHL PUSH1 0x20 DUP3 ADD MSTORE SWAP1 POP PUSH2 0x3303 PUSH1 0x29 DUP3 ADD DUP7 PUSH2 0x31C6 JUMP JUMPDEST PUSH32 0x227D2C7B2274726169745F74797065223A2243616D706169676E204944222C22 DUP2 MSTORE PUSH8 0x3B30B63AB2911D11 PUSH1 0xC1 SHL PUSH1 0x20 DUP3 ADD MSTORE SWAP1 POP PUSH1 0x28 DUP2 ADD PUSH2 0x335A PUSH2 0x334A DUP3 DUP8 PUSH2 0x31C6 JUMP JUMPDEST PUSH4 0x227D5D7D PUSH1 0xE0 SHL DUP2 MSTORE PUSH1 0x4 ADD SWAP1 JUMP JUMPDEST SWAP10 SWAP9 POP POP POP POP POP POP POP POP POP JUMP JUMPDEST PUSH32 0x646174613A6170706C69636174696F6E2F6A736F6E3B6261736536342C000000 DUP2 MSTORE PUSH0 PUSH2 0x185A PUSH1 0x1D DUP4 ADD DUP5 PUSH2 0x31C6 JUMP JUMPDEST PUSH1 0x20 DUP1 DUP3 MSTORE PUSH1 0xA SWAP1 DUP3 ADD MSTORE PUSH10 0x6E6F7420616374697665 PUSH1 0xB0 SHL PUSH1 0x40 DUP3 ADD MSTORE PUSH1 0x60 ADD SWAP1 JUMP JUMPDEST DUP4 DUP2 MSTORE PUSH1 0x20 DUP2 ADD DUP4 SWAP1 MSTORE PUSH1 0x60 DUP2 ADD PUSH2 0x2B2D PUSH1 0x40 DUP4 ADD DUP5 PUSH2 0x2E99 JUMP JUMPDEST PUSH1 0x40 DUP2 MSTORE PUSH0 PUSH0 DUP5 SLOAD PUSH0 DUP2 PUSH1 0x1 SHR SWAP1 POP PUSH1 0x1 DUP3 AND DUP1 PUSH2 0x33F6 JUMPI PUSH1 0x7F DUP3 AND SWAP2 POP JUMPDEST PUSH1 0x20 DUP3 LT DUP2 SUB PUSH2 0x3414 JUMPI PUSH4 0x4E487B71 PUSH1 0xE0 SHL PUSH0 MSTORE PUSH1 0x22 PUSH1 0x4 MSTORE PUSH1 0x24 PUSH0 REVERT JUMPDEST PUSH1 0x40 DUP7 ADD DUP3 SWAP1 MSTORE PUSH1 0x60 DUP7 ADD DUP2 DUP1 ISZERO PUSH2 0x3433 JUMPI PUSH1 0x1 DUP2 EQ PUSH2 0x3449 JUMPI PUSH2 0x3475 JUMP JUMPDEST PUSH1 0xFF NOT DUP6 AND DUP3 MSTORE DUP4 ISZERO ISZERO PUSH1 0x5 SHL DUP3 ADD SWAP6 POP PUSH2 0x3475 JUMP JUMPDEST PUSH0 DUP11 DUP2 MSTORE PUSH1 0x20 SWAP1 KECCAK256 PUSH0 JUMPDEST DUP6 DUP2 LT ISZERO PUSH2 0x346F JUMPI DUP2 SLOAD DUP5 DUP3 ADD MSTORE PUSH1 0x1 SWAP1 SWAP2 ADD SWAP1 PUSH1 0x20 ADD PUSH2 0x3453 JUMP JUMPDEST DUP4 ADD SWAP7 POP POP JUMPDEST POP POP POP POP POP DUP1 SWAP2 POP POP PUSH2 0x185A PUSH1 0x20 DUP4 ADD DUP5 PUSH2 0x2E99 JUMP JUMPDEST PUSH1 0x80 DUP2 ADD PUSH2 0x3499 DUP3 DUP8 PUSH2 0x2E99 JUMP JUMPDEST PUSH2 0x34A6 PUSH1 0x20 DUP4 ADD DUP7 PUSH2 0x2E99 JUMP JUMPDEST PUSH1 0x40 DUP3 ADD SWAP4 SWAP1 SWAP4 MSTORE PUSH1 0x60 ADD MSTORE SWAP3 SWAP2 POP POP JUMP JUMPDEST PUSH1 0x1 PUSH1 0x1 PUSH1 0xA0 SHL SUB DUP6 DUP2 AND DUP3 MSTORE DUP5 AND PUSH1 0x20 DUP3 ADD MSTORE PUSH1 0x40 DUP2 ADD DUP4 SWAP1 MSTORE PUSH1 0x80 PUSH1 0x60 DUP3 ADD DUP2 SWAP1 MSTORE PUSH0 SWAP1 PUSH2 0x34EA SWAP1 DUP4 ADD DUP5 PUSH2 0x2DBE JUMP JUMPDEST SWAP7 SWAP6 POP POP POP POP POP POP JUMP JUMPDEST PUSH0 PUSH1 0x20 DUP3 DUP5 SUB SLT ISZERO PUSH2 0x3504 JUMPI PUSH0 PUSH0 REVERT JUMPDEST DUP2 MLOAD PUSH2 0x185A DUP2 PUSH2 0x2D8E JUMP JUMPDEST PUSH0 PUSH1 0x1 DUP3 ADD PUSH2 0x3520 JUMPI PUSH2 0x3520 PUSH2 0x3142 JUMP JUMPDEST POP PUSH1 0x1 ADD SWAP1 JUMP JUMPDEST PUSH0 PUSH1 0x20 DUP3 DUP5 SUB SLT ISZERO PUSH2 0x3537 JUMPI PUSH0 PUSH0 REVERT JUMPDEST POP MLOAD SWAP2 SWAP1 POP JUMP INVALID LOG2 PUSH5 0x6970667358 0x22 SLT KECCAK256 0xED 0x4F LOG1 PUSH6 0x26255D5E3136 DUP8 SIGNEXTEND 0x29 0x2F 0xC3 0xFC CODESIZE PUSH22 0xEAC84D0F883714E35357A2B9CDAF64736F6C63430008 SHR STOP CALLER "},"methodIdentifiers":{"approve(address,uint256)":"095ea7b3","backerGrades(address)":"0a19f69c","balanceOf(address)":"70a08231","campaignId()":"8ed5b0fc","campaignName()":"0724fda9","campaignURI()":"db912e37","checkConditions()":"dfd09fa5","checkState()":"96dfcbea","claimBackerReward()":"7b338e14","deadline()":"29dcb0cf","donate(uint256)":"f14faf6f","donations(address)":"cc6cb19a","donorAt(uint256)":"aad7c90c","donorInfo(address)":"a729dd7c","donorShareBps(address)":"77d6444c","donors()":"3087110a","donorsCount()":"9ff534dc","donorsSlice(uint256,uint256)":"a263d772","duration()":"0fb5a6b4","getApproved(uint256)":"081812fc","gpuLease()":"3358970b","gradeForDonation(address)":"bffd11bb","hasDonated(address)":"17294a11","isApprovedForAll(address,address)":"e985e9c5","isExpired()":"2f13b60c","isTargetReached()":"5e098f05","mintBackerRewards(uint256,uint256)":"10641782","name()":"06fdde03","nextRewardTokenId()":"35909603","owner()":"8da5cb5b","ownerOf(uint256)":"6352211e","participantRegistry()":"9e9ca591","refund()":"590e1ae3","refunded(address)":"c033a490","renounceOwnership()":"715018a6","rewardTokenByDonor(address)":"8cc05bec","rewardTokenGrades(uint256)":"7592e888","safeTransferFrom(address,address,uint256)":"42842e0e","safeTransferFrom(address,address,uint256,bytes)":"b88d4fde","setApprovalForAll(address,bool)":"a22cb465","startTimestamp()":"e6fd48bc","state()":"c19d93fb","supportsInterface(bytes4)":"01ffc9a7","symbol()":"95d89b41","targetAmount()":"953b8fb8","templateId()":"7aa77f29","tokenURI(uint256)":"c87b56dd","totalRaised()":"c5c4744c","transferFrom(address,address,uint256)":"23b872dd","transferOwnership(address)":"f2fde38b","usdc()":"3e413bee"}}}}}