{
  "_format": "hh3-artifact-1",
  "contractName": "LLMFundraisingFactory",
  "sourceName": "contracts/CampaignFactory.sol",
  "abi": [
    {
      "inputs": [
        {
          "internalType": "address",
          "name": "_usdc",
          "type": "address"
        },
        {
          "internalType": "address",
          "name": "_gpuLease",
          "type": "address"
        }
      ],
      "stateMutability": "nonpayable",
      "type": "constructor"
    },
    {
      "inputs": [
        {
          "internalType": "address",
          "name": "owner",
          "type": "address"
        }
      ],
      "name": "OwnableInvalidOwner",
      "type": "error"
    },
    {
      "inputs": [
        {
          "internalType": "address",
          "name": "account",
          "type": "address"
        }
      ],
      "name": "OwnableUnauthorizedAccount",
      "type": "error"
    },
    {
      "anonymous": false,
      "inputs": [
        {
          "indexed": true,
          "internalType": "uint256",
          "name": "campaignId",
          "type": "uint256"
        },
        {
          "indexed": true,
          "internalType": "address",
          "name": "campaign",
          "type": "address"
        },
        {
          "indexed": true,
          "internalType": "address",
          "name": "creator",
          "type": "address"
        },
        {
          "indexed": false,
          "internalType": "uint256",
          "name": "targetAmount",
          "type": "uint256"
        },
        {
          "indexed": false,
          "internalType": "uint256",
          "name": "startTimestamp",
          "type": "uint256"
        },
        {
          "indexed": false,
          "internalType": "uint256",
          "name": "duration",
          "type": "uint256"
        },
        {
          "indexed": false,
          "internalType": "uint256",
          "name": "templateId",
          "type": "uint256"
        },
        {
          "indexed": false,
          "internalType": "string",
          "name": "campaignName",
          "type": "string"
        }
      ],
      "name": "CampaignCreated",
      "type": "event"
    },
    {
      "anonymous": false,
      "inputs": [
        {
          "indexed": true,
          "internalType": "address",
          "name": "participant",
          "type": "address"
        },
        {
          "indexed": true,
          "internalType": "address",
          "name": "campaign",
          "type": "address"
        }
      ],
      "name": "CampaignParticipantRegistered",
      "type": "event"
    },
    {
      "anonymous": false,
      "inputs": [
        {
          "indexed": true,
          "internalType": "address",
          "name": "previousOwner",
          "type": "address"
        },
        {
          "indexed": true,
          "internalType": "address",
          "name": "newOwner",
          "type": "address"
        }
      ],
      "name": "OwnershipTransferred",
      "type": "event"
    },
    {
      "inputs": [
        {
          "internalType": "uint256",
          "name": "",
          "type": "uint256"
        }
      ],
      "name": "campaignById",
      "outputs": [
        {
          "internalType": "address",
          "name": "",
          "type": "address"
        }
      ],
      "stateMutability": "view",
      "type": "function"
    },
    {
      "inputs": [
        {
          "internalType": "uint256",
          "name": "",
          "type": "uint256"
        }
      ],
      "name": "campaigns",
      "outputs": [
        {
          "internalType": "address",
          "name": "",
          "type": "address"
        }
      ],
      "stateMutability": "view",
      "type": "function"
    },
    {
      "inputs": [
        {
          "internalType": "address",
          "name": "creator",
          "type": "address"
        }
      ],
      "name": "campaignsByCreator",
      "outputs": [
        {
          "internalType": "address[]",
          "name": "",
          "type": "address[]"
        }
      ],
      "stateMutability": "view",
      "type": "function"
    },
    {
      "inputs": [
        {
          "internalType": "address",
          "name": "participant",
          "type": "address"
        }
      ],
      "name": "campaignsByParticipant",
      "outputs": [
        {
          "internalType": "address[]",
          "name": "",
          "type": "address[]"
        }
      ],
      "stateMutability": "view",
      "type": "function"
    },
    {
      "inputs": [],
      "name": "campaignsCount",
      "outputs": [
        {
          "internalType": "uint256",
          "name": "",
          "type": "uint256"
        }
      ],
      "stateMutability": "view",
      "type": "function"
    },
    {
      "inputs": [
        {
          "internalType": "uint256",
          "name": "targetAmount",
          "type": "uint256"
        },
        {
          "internalType": "uint256",
          "name": "duration",
          "type": "uint256"
        },
        {
          "internalType": "uint256",
          "name": "startTimestamp",
          "type": "uint256"
        },
        {
          "internalType": "uint256",
          "name": "templateId",
          "type": "uint256"
        },
        {
          "internalType": "string",
          "name": "campaignName",
          "type": "string"
        }
      ],
      "name": "createCampaign",
      "outputs": [
        {
          "internalType": "address",
          "name": "campaign",
          "type": "address"
        }
      ],
      "stateMutability": "nonpayable",
      "type": "function"
    },
    {
      "inputs": [],
      "name": "gpuLease",
      "outputs": [
        {
          "internalType": "contract IGPULease",
          "name": "",
          "type": "address"
        }
      ],
      "stateMutability": "view",
      "type": "function"
    },
    {
      "inputs": [
        {
          "internalType": "address",
          "name": "participant",
          "type": "address"
        },
        {
          "internalType": "address",
          "name": "campaign",
          "type": "address"
        }
      ],
      "name": "hasParticipatedInCampaign",
      "outputs": [
        {
          "internalType": "bool",
          "name": "",
          "type": "bool"
        }
      ],
      "stateMutability": "view",
      "type": "function"
    },
    {
      "inputs": [
        {
          "internalType": "address",
          "name": "",
          "type": "address"
        }
      ],
      "name": "isCampaign",
      "outputs": [
        {
          "internalType": "bool",
          "name": "",
          "type": "bool"
        }
      ],
      "stateMutability": "view",
      "type": "function"
    },
    {
      "inputs": [],
      "name": "nextCampaignId",
      "outputs": [
        {
          "internalType": "uint256",
          "name": "",
          "type": "uint256"
        }
      ],
      "stateMutability": "view",
      "type": "function"
    },
    {
      "inputs": [],
      "name": "owner",
      "outputs": [
        {
          "internalType": "address",
          "name": "",
          "type": "address"
        }
      ],
      "stateMutability": "view",
      "type": "function"
    },
    {
      "inputs": [
        {
          "internalType": "address",
          "name": "participant",
          "type": "address"
        },
        {
          "internalType": "uint256",
          "name": "index",
          "type": "uint256"
        }
      ],
      "name": "participantCampaignAt",
      "outputs": [
        {
          "internalType": "address",
          "name": "",
          "type": "address"
        }
      ],
      "stateMutability": "view",
      "type": "function"
    },
    {
      "inputs": [
        {
          "internalType": "address",
          "name": "participant",
          "type": "address"
        }
      ],
      "name": "participantCampaignsCount",
      "outputs": [
        {
          "internalType": "uint256",
          "name": "",
          "type": "uint256"
        }
      ],
      "stateMutability": "view",
      "type": "function"
    },
    {
      "inputs": [
        {
          "internalType": "address",
          "name": "participant",
          "type": "address"
        }
      ],
      "name": "registerParticipant",
      "outputs": [],
      "stateMutability": "nonpayable",
      "type": "function"
    },
    {
      "inputs": [],
      "name": "renounceOwnership",
      "outputs": [],
      "stateMutability": "nonpayable",
      "type": "function"
    },
    {
      "inputs": [
        {
          "internalType": "address",
          "name": "newOwner",
          "type": "address"
        }
      ],
      "name": "transferOwnership",
      "outputs": [],
      "stateMutability": "nonpayable",
      "type": "function"
    },
    {
      "inputs": [],
      "name": "usdc",
      "outputs": [
        {
          "internalType": "contract IERC20",
          "name": "",
          "type": "address"
        }
      ],
      "stateMutability": "view",
      "type": "function"
    }
  ],
  "bytecode": "0x60c060405260018055348015610013575f5ffd5b5060405161487d38038061487d8339810160408190526100329161016b565b338061005857604051631e4fbdf760e01b81525f60048201526024015b60405180910390fd5b61006181610101565b506001600160a01b0382166100a45760405162461bcd60e51b81526020600482015260096024820152687a65726f207573646360b81b604482015260640161004f565b6001600160a01b0381166100ea5760405162461bcd60e51b815260206004820152600d60248201526c7a65726f206770754c6561736560981b604482015260640161004f565b6001600160a01b039182166080521660a05261019c565b5f80546001600160a01b038381166001600160a01b0319831681178455604051919092169283917f8be0079c531659141344cd1fd0a4f28419497f9722a3daafe3b4186f6b6457e09190a35050565b80516001600160a01b0381168114610166575f5ffd5b919050565b5f5f6040838503121561017c575f5ffd5b61018583610150565b915061019360208401610150565b90509250929050565b60805160a0516146b26101cb5f395f818161013e015261039b01525f8181610178015261037a01526146b25ff3fe608060405234801561000f575f5ffd5b50600436106100d9575f3560e01c8063109b1611146100dd578063141961bc146101065780632761ef42146101265780633358970b1461013957806336290f21146101605780633e413bee1461017357806344c89b651461019a578063715018a6146101ac5780637903a756146101b65780637cc9e4f0146101bf5780638da5cb5b146101d257806398bf6de8146101da5780639b287abb14610202578063cc63bac91461024d578063e2714e1b14610260578063e5371aa314610282578063f2fde38b146102aa575b5f5ffd5b6100f06100eb3660046107f0565b6102bd565b6040516100fd9190610810565b60405180910390f35b61011961011436600461085b565b610330565b6040516100fd9190610872565b610119610134366004610886565b610358565b6101197f000000000000000000000000000000000000000000000000000000000000000081565b61011961016e366004610917565b6104e4565b6101197f000000000000000000000000000000000000000000000000000000000000000081565b6002545b6040519081526020016100fd565b6101b461052a565b005b61019e60015481565b6101b46101cd3660046107f0565b61053d565b61011961068b565b6101196101e836600461085b565b60036020525f90815260409020546001600160a01b031681565b61023d61021036600461093f565b6001600160a01b039182165f90815260076020908152604080832093909416825291909152205460ff1690565b60405190151581526020016100fd565b6100f061025b3660046107f0565b610699565b61023d61026e3660046107f0565b60046020525f908152604090205460ff1681565b61019e6102903660046107f0565b6001600160a01b03165f9081526006602052604090205490565b6101b46102b83660046107f0565b61070a565b6001600160a01b0381165f9081526005602090815260409182902080548351818402810184019094528084526060939283018282801561032457602002820191905f5260205f20905b81546001600160a01b03168152600190910190602001808311610306575b50505050509050919050565b6002818154811061033f575f80fd5b5f918252602090912001546001600160a01b0316905081565b600180545f91808361036a8285610970565b92505081905550808888888888887f00000000000000000000000000000000000000000000000000000000000000007f000000000000000000000000000000000000000000000000000000000000000030336040516103c8906107c8565b6103dc9b9a999897969594939291906109b7565b604051809103905ff0801580156103f5573d5f5f3e3d5ffd5b506002805460018181019092557f405787fa12a823e0f2b7631cc41b3ba8828b3321ca811111fa75cd3aa3bb5ace0180546001600160a01b0384166001600160a01b031991821681179092555f858152600360209081526040808320805485168617905584835260048252808320805460ff1916871790553380845260058352818420805497880181558452919092209094018054909216831790915551929450909183907f586eb302feca65b7cd23eca1855aeac790d55a9bbd4e42168873521f5d5bca47906104d1908d908c908e908d908d908d90610a24565b60405180910390a4509695505050505050565b6001600160a01b0382165f90815260066020526040812080548390811061050d5761050d610a5b565b5f918252602090912001546001600160a01b031690505b92915050565b610532610747565b61053b5f610779565b565b335f9081526004602052604090205460ff1661058f5760405162461bcd60e51b815260206004820152600c60248201526b3737ba1031b0b6b830b4b3b760a11b60448201526064015b60405180910390fd5b6001600160a01b0381166105d85760405162461bcd60e51b815260206004820152601060248201526f1e995c9bc81c185c9d1a58da5c185b9d60821b6044820152606401610586565b6001600160a01b0381165f90815260076020908152604080832033845290915290205460ff16156106065750565b6001600160a01b0381165f81815260076020908152604080832033808552908352818420805460ff191660019081179091558585526006845282852080549182018155855292842090920180546001600160a01b03191683179055519092917f8300376baa4bb1123d5bd8ac536d00577f4b5ae198e7a07b213634f837c25cb591a350565b5f546001600160a01b031690565b6001600160a01b0381165f9081526006602090815260409182902080548351818402810184019094528084526060939283018282801561032457602002820191905f5260205f209081546001600160a01b031681526001909101906020018083116103065750505050509050919050565b610712610747565b6001600160a01b03811661073b575f604051631e4fbdf760e01b81526004016105869190610872565b61074481610779565b50565b3361075061068b565b6001600160a01b03161461053b573360405163118cdaa760e01b81526004016105869190610872565b5f80546001600160a01b038381166001600160a01b0319831681178455604051919092169283917f8be0079c531659141344cd1fd0a4f28419497f9722a3daafe3b4186f6b6457e09190a35050565b613c0d80610a7083390190565b80356001600160a01b03811681146107eb575f5ffd5b919050565b5f60208284031215610800575f5ffd5b610809826107d5565b9392505050565b602080825282518282018190525f918401906040840190835b818110156108505783516001600160a01b0316835260209384019390920191600101610829565b509095945050505050565b5f6020828403121561086b575f5ffd5b5035919050565b6001600160a01b0391909116815260200190565b5f5f5f5f5f5f60a0878903121561089b575f5ffd5b8635955060208701359450604087013593506060870135925060808701356001600160401b038111156108cc575f5ffd5b8701601f810189136108dc575f5ffd5b80356001600160401b038111156108f1575f5ffd5b896020828401011115610902575f5ffd5b60208201935080925050509295509295509295565b5f5f60408385031215610928575f5ffd5b610931836107d5565b946020939093013593505050565b5f5f60408385031215610950575f5ffd5b610959836107d5565b9150610967602084016107d5565b90509250929050565b8082018082111561052457634e487b7160e01b5f52601160045260245ffd5b81835281816020850137505f828201602090810191909152601f909101601f19169091010190565b8b81528a602082015289604082015288606082015287608082015261014060a08201525f6109ea6101408301888a61098f565b6001600160a01b0396871660c084015294861660e08301525091841661010083015290921661012090920191909152979650505050505050565b86815285602082015284604082015283606082015260a060808201525f610a4f60a08301848661098f565b98975050505050505050565b634e487b7160e01b5f52603260045260245ffdfe6101806040526001600a55348015610015575f5ffd5b50604051613c0d380380613c0d83398101604081905261003491610377565b604080518082018252601681527f4c4c4d2046756e6472616973696e67204261636b65720000000000000000000060208083019190915282518084019093526009835268262626a120a1a5a2a960b91b9083015290826001600160a01b0381166100b857604051631e4fbdf760e01b81525f60048201526024015b60405180910390fd5b6100c1816102d5565b5060016100ce8382610534565b5060026100db8282610534565b50505060016100f46100f161032460201b60201c565b90565b556001600160a01b0384166101375760405162461bcd60e51b81526020600482015260096024820152687a65726f207573646360b81b60448201526064016100af565b6001600160a01b03831661017d5760405162461bcd60e51b815260206004820152600d60248201526c7a65726f206770754c6561736560981b60448201526064016100af565b6001600160a01b0382166101c35760405162461bcd60e51b815260206004820152600d60248201526c7a65726f20726567697374727960981b60448201526064016100af565b5f89116102005760405162461bcd60e51b815260206004820152600b60248201526a1e995c9bc81d185c99d95d60aa1b60448201526064016100af565b5f881161023f5760405162461bcd60e51b815260206004820152600d60248201526c3d32b93790323ab930ba34b7b760991b60448201526064016100af565b5f85511161027c5760405162461bcd60e51b815260206004820152600a602482015269656d707479206e616d6560b01b60448201526064016100af565b60808a905260a089905260e088905260c087905261010086905260076102a28682610534565b50506001600160a01b039283166101205290821661014052166101605250506008805460ff19169055506105ee92505050565b5f80546001600160a01b038381166001600160a01b0319831681178455604051919092169283917f8be0079c531659141344cd1fd0a4f28419497f9722a3daafe3b4186f6b6457e09190a35050565b7f9b779b17422d0df92223018b32b4d1fa46e071723d6817e2486d003becc55f0090565b634e487b7160e01b5f52604160045260245ffd5b80516001600160a01b0381168114610372575f5ffd5b919050565b5f5f5f5f5f5f5f5f5f5f6101408b8d031215610391575f5ffd5b5f8b519050809a50505f60208c01519050809950505f60408c01519050809850505f60608c01519050809750505f60808c015190508096505060a08b015160018060401b038111156103e1575f5ffd5b8b01601f81018d136103f1575f5ffd5b80516001600160401b0381111561040a5761040a610348565b604051601f8201601f19908116603f011681016001600160401b038111828210171561043857610438610348565b6040528181528282016020018f101561044f575f5ffd5b8160208401602083015e5f6020838301015280975050505061047360c08c0161035c565b935061048160e08c0161035c565b92506104906101008c0161035c565b915061049f6101208c0161035c565b90509295989b9194979a5092959850565b600181811c908216806104c457607f821691505b6020821081036104e257634e487b7160e01b5f52602260045260245ffd5b50919050565b601f82111561052f57805f5260205f20601f840160051c8101602085101561050d5750805b601f840160051c820191505b8181101561052c575f8155600101610519565b50505b505050565b81516001600160401b0381111561054d5761054d610348565b6105618161055b84546104b0565b846104e8565b6020601f821160018114610593575f831561057c5750848201515b5f19600385901b1c1916600184901b17845561052c565b5f84815260208120601f198516915b828110156105c257878501518255602094850194600190920191016105a2565b50848210156105df57868401515f19600387901b60f8161c191681555b50505050600190811b01905550565b60805160a05160c05160e051610100516101205161014051610160516135546106b95f395f8181610529015261136601525f818161039801528181612b7e01528181612bb90152612c1a01525f81816103c801528181610c42015281816112be015281816125f40152612b5c01525f61047501525f81816102f60152610a2f01525f818161067201528181610a5001526111d901525f81816104f201528181610cae01528181610d4c0152818161266c015261279801525f81816104cb01526110d701526135545ff3fe608060405234801561000f575f5ffd5b5060043610610244575f3560e01c806301ffc9a71461024857806306fdde03146102705780630724fda914610285578063081812fc1461028d578063095ea7b3146102ad5780630a19f69c146102c25780630fb5a6b4146102f1578063106417821461032657806317294a111461033957806323b872dd1461035b57806329dcb0cf1461036e5780632f13b60c146103765780633087110a1461037e5780633358970b1461039357806335909603146103ba5780633e413bee146103c357806342842e0e146103ea578063590e1ae3146103fd5780635e098f05146104055780636352211e1461040d57806370a0823114610420578063715018a6146104335780637592e8881461043b57806377d6444c1461045d5780637aa77f29146104705780637b338e14146104975780638cc05bec1461049f5780638da5cb5b146104be5780638ed5b0fc146104c6578063953b8fb8146104ed57806395d89b411461051457806396dfcbea1461051c5780639e9ca591146105245780639ff534dc1461054b578063a22cb46514610553578063a263d77214610566578063a729dd7c14610579578063aad7c90c1461059e578063b88d4fde146105b1578063bffd11bb146105c4578063c033a490146105d7578063c19d93fb146105f9578063c5c4744c14610613578063c87b56dd1461061c578063cc6cb19a1461062f578063dfd09fa51461064e578063e6fd48bc1461066d578063e985e9c514610694578063f14faf6f146106a7578063f2fde38b146106ba575b5f5ffd5b61025b610256366004612d83565b6106cd565b60405190151581526020015b60405180910390f35b61027861071e565b6040516102679190612dcc565b6102786107ae565b6102a061029b366004612dde565b61083a565b6040516102679190612df5565b6102c06102bb366004612e24565b61084e565b005b6102e46102d0366004612e4c565b600e6020525f908152604090205460ff1681565b6040516102679190612e8d565b6103187f000000000000000000000000000000000000000000000000000000000000000081565b604051908152602001610267565b610318610334366004612e9b565b61085d565b61025b610347366004612e4c565b600f6020525f908152604090205460ff1681565b6102c0610369366004612ebb565b6109a0565b610318610a29565b61025b610a79565b610386610a8a565b6040516102679190612ef5565b6102a07f000000000000000000000000000000000000000000000000000000000000000081565b610318600a5481565b6102a07f000000000000000000000000000000000000000000000000000000000000000081565b6102c06103f8366004612ebb565b610ae9565b6102c0610b08565b61025b610ca9565b6102a061041b366004612dde565b610cd2565b61031861042e366004612e4c565b610cdc565b6102c0610d21565b6102e4610449366004612dde565b60116020525f908152604090205460ff1681565b61031861046b366004612e4c565b610d32565b6103187f000000000000000000000000000000000000000000000000000000000000000081565b610318610d83565b6103186104ad366004612e4c565b60106020525f908152604090205481565b6102a0610da2565b6103187f000000000000000000000000000000000000000000000000000000000000000081565b6103187f000000000000000000000000000000000000000000000000000000000000000081565b610278610db0565b6102c0610dbf565b6102a07f000000000000000000000000000000000000000000000000000000000000000081565b600b54610318565b6102c0610561366004612f40565b610e1d565b610386610574366004612e9b565b610e28565b61058c610587366004612e4c565b610f24565b60405161026796959493929190612f79565b6102a06105ac366004612dde565b610f9e565b6102c06105bf366004612fc5565b610fcc565b6102e46105d2366004612e4c565b610fe4565b61025b6105e5366004612e4c565b600d6020525f908152604090205460ff1681565b6008546106069060ff1681565b604051610267919061309f565b61031860095481565b61027861062a366004612dde565b611005565b61031861063d366004612e4c565b600c6020525f908152604090205481565b610656611153565b604080519215158352901515602083015201610267565b6103187f000000000000000000000000000000000000000000000000000000000000000081565b61025b6106a23660046130b9565b61116d565b6102c06106b5366004612dde565b61119a565b6102c06106c8366004612e4c565b61147a565b5f6001600160e01b031982166380ac58cd60e01b14806106fd57506001600160e01b03198216635b5e139f60e01b145b8061071857506301ffc9a760e01b6001600160e01b03198316145b92915050565b60606001805461072d906130ea565b80601f0160208091040260200160405190810160405280929190818152602001828054610759906130ea565b80156107a45780601f1061077b576101008083540402835291602001916107a4565b820191905f5260205f20905b81548152906001019060200180831161078757829003601f168201915b5050505050905090565b600780546107bb906130ea565b80601f01602080910402602001604051908101604052809291908181526020018280546107e7906130ea565b80156108325780601f1061080957610100808354040283529160200191610832565b820191905f5260205f20905b81548152906001019060200180831161081557829003601f168201915b505050505081565b5f610844826114b4565b50610718826114eb565b610859828233611505565b5050565b5f610866611512565b5f82116108a75760405162461bcd60e51b815260206004820152600a6024820152691e995c9bc81b1a5b5a5d60b21b60448201526064015b60405180910390fd5b600b548084106108ef5760405162461bcd60e51b81526020600482015260136024820152726f6666736574206f7574206f662072616e676560681b604482015260640161089e565b5f6108fa8486613136565b9050818111156109075750805b845b81811015610995575f600b828154811061092557610925613149565b5f9182526020808320909101546001600160a01b0316808352601090915260409091205490915015801561096f57506001600160a01b0381165f908152600c602052604090205415155b1561098c5761097d8161152a565b50610989600186613136565b94505b50600101610909565b505050610718611745565b6001600160a01b0382166109c9575f604051633250574960e11b815260040161089e9190612df5565b5f6109d5838333611752565b9050836001600160a01b0316816001600160a01b031614610a23576040516364283d7b60e01b81526001600160a01b038086166004830152602482018490528216604482015260640161089e565b50505050565b5f610a747f00000000000000000000000000000000000000000000000000000000000000007f0000000000000000000000000000000000000000000000000000000000000000613136565b905090565b5f610a82610a29565b421015905090565b6060600b8054806020026020016040519081016040528092919081815260200182805480156107a457602002820191905f5260205f20905b81546001600160a01b03168152600190910190602001808311610ac2575050505050905090565b610b0383838360405180602001604052805f815250610fcc565b505050565b610b10611512565b600260085460ff166002811115610b2957610b29612e65565b14610b635760405162461bcd60e51b815260206004820152600a6024820152691b9bdd0819985a5b195960b21b604482015260640161089e565b335f908152600c602052604090205480610bb35760405162461bcd60e51b81526020600482015260116024820152701b9bdd1a1a5b99c81d1bc81c99599d5b99607a1b604482015260640161089e565b335f908152600d602052604090205460ff1615610c055760405162461bcd60e51b815260206004820152601060248201526f185b1c9958591e481c99599d5b99195960821b604482015260640161089e565b335f818152600d60209081526040808320805460ff19166001179055600c9091528120819055610c359190611841565b610c696001600160a01b037f0000000000000000000000000000000000000000000000000000000000000000163383611927565b60405181815233907fd7dee2702d63ad89917b6a4da9981c90c4d24f8c2bdfd64c604ecae57d8d06519060200160405180910390a250610ca7611745565b565b6009547f0000000000000000000000000000000000000000000000000000000000000000111590565b5f610718826114b4565b5f6001600160a01b038216610d06575f6040516322718ad960e21b815260040161089e9190612df5565b506001600160a01b03165f9081526004602052604090205490565b610d29611953565b610ca75f611985565b6001600160a01b0381165f908152600c60205260408120547f000000000000000000000000000000000000000000000000000000000000000090610d79906127109061315d565b6107189190613174565b5f610d8c611512565b610d953361152a565b9050610d9f611745565b90565b5f546001600160a01b031690565b60606002805461072d906130ea565b5f60085460ff166002811115610dd757610dd7612e65565b14610e155760405162461bcd60e51b815260206004820152600e60248201526d185b1c9958591e4818db1bdcd95960921b604482015260640161089e565b610ca76119d4565b6108593383836119fe565b600b54606090808410610e4a575050604080515f815260208101909152610718565b5f610e558486613136565b905081811115610e625750805b610e6c8582613193565b6001600160401b03811115610e8357610e83612fb1565b604051908082528060200260200182016040528015610eac578160200160208202803683370190505b509250845b81811015610f1b57600b8181548110610ecc57610ecc613149565b5f918252602090912001546001600160a01b031684610eeb8884613193565b81518110610efb57610efb613149565b6001600160a01b0390921660209283029190910190910152600101610eb1565b50505092915050565b6001600160a01b0381165f908152600f6020908152604080832054600c90925282205460ff90911691808080610f5987610d32565b6001600160a01b039097165f908152600e6020908152604080832054600d8352818420546010909352922054979996989760ff92831697919092169550909350915050565b5f600b8281548110610fb257610fb2613149565b5f918252602090912001546001600160a01b031692915050565b610fd78484846109a0565b610a233385858585611abc565b6001600160a01b0381165f908152600c602052604081205461071890611bd2565b6060611010826114b4565b505f8281526011602052604081205461102b9060ff16611c2b565b90505f6110bf6007805461103e906130ea565b80601f016020809104026020016040519081016040528092919081815260200182805461106a906130ea565b80156110b55780601f1061108c576101008083540402835291602001916110b5565b820191905f5260205f20905b81548152906001019060200180831161109857829003601f168201915b5050505050611d4f565b90505f6110cb83611d4f565b90505f828284846110fb7f0000000000000000000000000000000000000000000000000000000000000000612271565b60405160200161110f9594939291906131bd565b604051602081830303815290604052905061112981612300565b6040516020016111399190613347565b604051602081830303815290604052945050505050919050565b5f5f61115d610a79565b9150611167610ca9565b90509091565b6001600160a01b039182165f90815260066020908152604080832093909416825291909152205460ff1690565b6111a2611512565b5f60085460ff1660028111156111ba576111ba612e65565b146111d75760405162461bcd60e51b815260040161089e90613378565b7f00000000000000000000000000000000000000000000000000000000000000004210156112355760405162461bcd60e51b815260206004820152600b60248201526a1b9bdd081cdd185c9d195960aa1b604482015260640161089e565b61123d610a79565b156112745760405162461bcd60e51b8152602060048201526007602482015266195e1c1a5c995960ca1b604482015260640161089e565b5f81116112b15760405162461bcd60e51b815260206004820152600b60248201526a1e995c9bc8185b5bdd5b9d60aa1b604482015260640161089e565b6112e66001600160a01b037f00000000000000000000000000000000000000000000000000000000000000001633308461230c565b335f908152600f602052604090205460ff166113d057335f818152600f6020526040808220805460ff19166001908117909155600b805491820181559092527f0175b7a638427703f0dbe7bb9bbf987a2551717b34e79f33b5b1008d1fa01db990910180546001600160a01b03191683179055516307cc9e4f60e41b81527f00000000000000000000000000000000000000000000000000000000000000006001600160a01b031691637cc9e4f0916113a29190600401612df5565b5f604051808303815f87803b1580156113b9575f5ffd5b505af11580156113cb573d5f5f3e3d5ffd5b505050505b335f908152600c6020526040812080548392906113ee908490613136565b925050819055508060095f8282546114069190613136565b909155505f905061141633612339565b335f818152600c60205260409081902054905192935090917ff04d1237cbd0bf21dc045d2160a825f225935347027ba04bc8645d8138708d199161145e91869190869061339c565b60405180910390a261146e6119d4565b50611477611745565b50565b611482611953565b6001600160a01b0381166114ab575f604051631e4fbdf760e01b815260040161089e9190612df5565b61147781611985565b5f5f6114bf83612368565b90506001600160a01b03811661071857604051637e27328960e01b81526004810184905260240161089e565b5f908152600560205260409020546001600160a01b031690565b610b038383836001612382565b61151a61247d565b6002611527610d9f6124a3565b55565b5f600160085460ff16600281111561154457611544612e65565b146115825760405162461bcd60e51b815260206004820152600e60248201526d1b9bdd081cdd58d8d95cdcd99d5b60921b604482015260640161089e565b6001600160a01b0382165f908152600c60205260409020546115d25760405162461bcd60e51b81526020600482015260096024820152683737ba103237b737b960b91b604482015260640161089e565b6001600160a01b0382165f90815260106020526040902054156116285760405162461bcd60e51b815260206004820152600e60248201526d185b1c9958591e481b5a5b9d195960921b604482015260640161089e565b6001600160a01b0382165f908152600e602052604081205460ff169081600481111561165657611656612e65565b0361168e5760405162461bcd60e51b81526020600482015260086024820152676e6f20677261646560c01b604482015260640161089e565b600a805492506001905f6116a28386613136565b90915550506001600160a01b0383165f90815260106020908152604080832085905584835260119091529020805482919060ff191660018360048111156116eb576116eb612e65565b02179055506116fa83836124c7565b81836001600160a01b03167facc61df05a1322ee40c5459cddfcee8a7dfe0ec8d93272de2f0d978ad481f03e6007846040516117379291906133b7565b60405180910390a350919050565b6001611527610d9f6124a3565b5f5f61175d84612368565b90506001600160a01b03831615611779576117798184866124e0565b6001600160a01b038116156117b3576117945f855f5f612382565b6001600160a01b0381165f90815260046020526040902080545f190190555b6001600160a01b038516156117e1576001600160a01b0385165f908152600460205260409020805460010190555b5f8481526003602052604080822080546001600160a01b0319166001600160a01b0389811691821790925591518793918516917fddf252ad1be2c89b69c2b068fc378daa952ba7f163c4a11628f55a4df523b3ef91a490505b9392505050565b6001600160a01b0382165f908152600e602052604090205460ff1681600481111561186e5761186e612e65565b81600481111561188057611880612e65565b0361188a57505050565b6001600160a01b0383165f908152600e60205260409020805483919060ff191660018360048111156118be576118be612e65565b02179055506001600160a01b0383165f818152600c60205260409020547f9edbeab148e39aabe0c088d94c9704b598cce01e40da413e8da79013a4849efb908390859061190a88610d32565b60405161191a949392919061346b565b60405180910390a2505050565b6119348383836001612544565b610b035782604051635274afe760e01b815260040161089e9190612df5565b3361195c610da2565b6001600160a01b031614610ca7573360405163118cdaa760e01b815260040161089e9190612df5565b5f80546001600160a01b038381166001600160a01b0319831681178455604051919092169283917f8be0079c531659141344cd1fd0a4f28419497f9722a3daafe3b4186f6b6457e09190a35050565b6119dc610ca9565b156119e957610ca76125a6565b6119f1610a79565b15610ca757610ca761271b565b6001600160a01b038316611a27575f60405163a9fbf51f60e01b815260040161089e9190612df5565b6001600160a01b038216611a505781604051630b61174360e31b815260040161089e9190612df5565b6001600160a01b038381165f81815260066020908152604080832094871680845294825291829020805460ff191686151590811790915591519182527f17307eab39ab6107e8899845ad3d59bd9653f200f220920489ca2b5937696c31910160405180910390a3505050565b6001600160a01b0383163b15611bcb57604051630a85bd0160e11b81526001600160a01b0384169063150b7a0290611afe908890889087908790600401613498565b6020604051808303815f875af1925050508015611b38575060408051601f3d908101601f19168201909252611b35918101906134d4565b60015b611b96573d808015611b65576040519150601f19603f3d011682016040523d82523d5f602084013e611b6a565b606091505b5080515f03611b8e5783604051633250574960e11b815260040161089e9190612df5565b805160208201fd5b6001600160e01b03198116630a85bd0160e11b14611bc95783604051633250574960e11b815260040161089e9190612df5565b505b5050505050565b5f815f03611be157505f919050565b5f611beb83612795565b90506105dc8110611bff5750600492915050565b6101f48110611c115750600392915050565b60648110611c225750600292915050565b50600192915050565b60606004826004811115611c4157611c41612e65565b03611c6d57505060408051808201909152600b81526a2632b0b2102130b1b5b2b960a91b602082015290565b6003826004811115611c8157611c81612e65565b03611cb157505060408051808201909152600f81526e2337bab73234b733902130b1b5b2b960891b602082015290565b6002826004811115611cc557611cc5612e65565b03611cf157505060408051808201909152600b81526a21b7b73a3934b13aba37b960a91b602082015290565b6001826004811115611d0557611d05612e65565b03611d2f57505060408051808201909152600981526829bab83837b93a32b960b91b602082015290565b50506040805180820190915260048152634e6f6e6560e01b602082015290565b805160609082905f90611d6390600661315d565b6001600160401b03811115611d7a57611d7a612fb1565b6040519080825280601f01601f191660200182016040528015611da4576020820181803683370190505b5090505f805b8351811015612267575f848281518110611dc657611dc6613149565b01602001516001600160f81b0319169050606f60f91b8101611e5757601760fa1b8484611df2816134ef565b955081518110611e0457611e04613149565b60200101906001600160f81b03191690815f1a905350601160f91b8484611e2a816134ef565b955081518110611e3c57611e3c613149565b60200101906001600160f81b03191690815f1a90535061225e565b602960fa1b6001600160f81b0319821601611eb457601760fa1b8484611e7c816134ef565b955081518110611e8e57611e8e613149565b60200101906001600160f81b03191690815f1a905350601760fa1b8484611e2a816134ef565b6001600160f81b03198116600160fb1b03611f1157601760fa1b8484611ed9816134ef565b955081518110611eeb57611eeb613149565b60200101906001600160f81b03191690815f1a905350603160f91b8484611e2a816134ef565b6001600160f81b03198116600960f81b03611f6e57601760fa1b8484611f36816134ef565b955081518110611f4857611f48613149565b60200101906001600160f81b03191690815f1a905350601d60fa1b8484611e2a816134ef565b6001600160f81b03198116600560f91b03611fcb57601760fa1b8484611f93816134ef565b955081518110611fa557611fa5613149565b60200101906001600160f81b03191690815f1a905350603760f91b8484611e2a816134ef565b6001600160f81b03198116600360fa1b0361202857601760fa1b8484611ff0816134ef565b95508151811061200257612002613149565b60200101906001600160f81b03191690815f1a905350603360f91b8484611e2a816134ef565b6001600160f81b03198116600d60f81b0361208557601760fa1b848461204d816134ef565b95508151811061205f5761205f613149565b60200101906001600160f81b03191690815f1a905350603960f91b8484611e2a816134ef565b602060f882901c1015612229576f181899199a1a9b1b9c1cb0b131b232b360811b601760fa1b85856120b6816134ef565b9650815181106120c8576120c8613149565b60200101906001600160f81b03191690815f1a905350607560f81b85856120ee816134ef565b96508151811061210057612100613149565b60200101906001600160f81b03191690815f1a905350600360fc1b8585612126816134ef565b96508151811061213857612138613149565b60200101906001600160f81b03191690815f1a905350600360fc1b858561215e816134ef565b96508151811061217057612170613149565b60200101906001600160f81b03191690815f1a9053508060fc83901c6010811061219c5761219c613149565b1a60f81b85856121ab816134ef565b9650815181106121bd576121bd613149565b60200101906001600160f81b03191690815f1a90535080600f60f884901c16601081106121ec576121ec613149565b1a60f81b85856121fb816134ef565b96508151811061220d5761220d613149565b60200101906001600160f81b03191690815f1a9053505061225e565b808484612235816134ef565b95508151811061224757612247613149565b60200101906001600160f81b03191690815f1a9053505b50600101611daa565b5081529392505050565b60605f61227d836127c3565b60010190505f816001600160401b0381111561229b5761229b612fb1565b6040519080825280601f01601f1916602001820160405280156122c5576020820181803683370190505b5090508181016020015b5f19016f181899199a1a9b1b9c1cb0b131b232b360811b600a86061a8153600a85049450846122cf57509392505050565b6060610718825f612898565b61231a848484846001612a17565b610a235783604051635274afe760e01b815260040161089e9190612df5565b6001600160a01b0381165f908152600c6020526040812054819061235c90611bd2565b90506107188382611841565b5f908152600360205260409020546001600160a01b031690565b808061239657506001600160a01b03821615155b1561244e575f6123a5846114b4565b90506001600160a01b038316158015906123d15750826001600160a01b0316816001600160a01b031614155b80156123e457506123e2818461116d565b155b15612404578260405163a9fbf51f60e01b815260040161089e9190612df5565b811561244c5783856001600160a01b0316826001600160a01b03167f8c5be1e5ebec7d5bd14f71427d1e84f3dd0314c0f7b2291e5b200ac8c7c3b92560405160405180910390a45b505b50505f90815260056020526040902080546001600160a01b0319166001600160a01b0392909216919091179055565b612485612a84565b15610ca757604051633ee5aeb560e01b815260040160405180910390fd5b7f9b779b17422d0df92223018b32b4d1fa46e071723d6817e2486d003becc55f0090565b610859828260405180602001604052805f815250612a99565b6124eb838383612ab0565b610b03576001600160a01b03831661251957604051637e27328960e01b81526004810182905260240161089e565b60405163177e802f60e01b81526001600160a01b03831660048201526024810182905260440161089e565b60405163a9059cbb60e01b5f8181526001600160a01b038616600452602485905291602083604481808b5af1925060015f5114831661259a57838315161561258e573d5f823e3d81fd5b5f873b113d1516831692505b60405250949350505050565b5f60085460ff1660028111156125be576125be612e65565b146125db5760405162461bcd60e51b815260040161089e90613378565b6040516370a0823160e01b81525f906001600160a01b037f000000000000000000000000000000000000000000000000000000000000000016906370a0823190612629903090600401612df5565b602060405180830381865afa158015612644573d5f5f3e3d5ffd5b505050506040513d601f19601f820116820180604052508101906126689190613507565b90507f00000000000000000000000000000000000000000000000000000000000000008110156126cf5760405162461bcd60e51b8152602060048201526012602482015271696e73756666696369656e742066756e647360701b604482015260640161089e565b6008805460ff191660011790556126e581612b15565b6040518181527f2b3f27cb35b5581f9baeb414c2592d8fc9c9067287476ca5624392320e9bf68e9060200160405180910390a150565b5f60085460ff16600281111561273357612733612e65565b146127505760405162461bcd60e51b815260040161089e90613378565b6008805460ff191660021790556009546040519081527f7b1418b19a03b176f641639ee79855da661fa88a08377ecd32ad6d38152b95369060200160405180910390a1565b5f7f0000000000000000000000000000000000000000000000000000000000000000610d796127108461315d565b5f8072184f03e93ff9f4daa797ed6e38ed64bf6a1f0160401b83106128015772184f03e93ff9f4daa797ed6e38ed64bf6a1f0160401b830492506040015b6904ee2d6d415b85acef8160201b831061282b576904ee2d6d415b85acef8160201b830492506020015b662386f26fc10000831061284957662386f26fc10000830492506010015b6305f5e1008310612861576305f5e100830492506008015b612710831061287557612710830492506004015b60648310612887576064830492506002015b600a83106107185760010192915050565b606082515f036128b6575060408051602081019091525f8152610718565b5f826128e6576003845160026128cc9190613136565b6128d69190613174565b6128e190600461315d565b61290b565b6003845160046128f6919061315d565b612901906002613136565b61290b9190613174565b905060405191507f4142434445464748494a4b4c4d4e4f505152535455565758595a616263646566601f5261067083027f6768696a6b6c6d6e6f707172737475767778797a303132333435363738392b2f18603f526020820181810185865187016020810180515f82525b828410156129c9576003840193508351603f8160121c16518753600187019650603f81600c1c16518753600187019650603f8160061c16518753600187019650603f811651875350600186019550612976565b905250859050612a0a576003865106600181146129ed5760028114612a0057612a08565b603d6001840353603d6002840353612a08565b603d60018403535b505b9183525060405292915050565b6040516323b872dd60e01b5f8181526001600160a01b038781166004528616602452604485905291602083606481808c5af1925060015f51148316612a73578383151615612a67573d5f823e3d81fd5b5f883b113d1516831692505b604052505f60605295945050505050565b5f6002612a92610d9f6124a3565b5414919050565b612aa38383612c7e565b610b03335f858585611abc565b5f6001600160a01b03831615801590612b0d5750826001600160a01b0316846001600160a01b03161480612ae95750612ae9848461116d565b80612b0d5750826001600160a01b0316612b02836114eb565b6001600160a01b0316145b949350505050565b5f8111612b4f5760405162461bcd60e51b81526020600482015260086024820152676e6f2066756e647360c01b604482015260640161089e565b612ba36001600160a01b037f0000000000000000000000000000000000000000000000000000000000000000167f000000000000000000000000000000000000000000000000000000000000000083612cdf565b60405163b6b55f2560e01b8152600481018290527f00000000000000000000000000000000000000000000000000000000000000006001600160a01b03169063b6b55f25906024015f604051808303815f87803b158015612c02575f5ffd5b505af1158015612c14573d5f5f3e3d5ffd5b505050507f00000000000000000000000000000000000000000000000000000000000000006001600160a01b03167f8c9a4f13b67cb64d7c6aa1ae0c9bf07694af521a28b93e7060020810ab4bc59f82604051612c7391815260200190565b60405180910390a250565b6001600160a01b038216612ca7575f604051633250574960e11b815260040161089e9190612df5565b5f612cb383835f611752565b90506001600160a01b03811615610b03575f6040516339e3563760e11b815260040161089e9190612df5565b612ceb8383835f612d24565b610b0357612cfc83835f6001612d24565b612d1b5782604051635274afe760e01b815260040161089e9190612df5565b61193483838360015b60405163095ea7b360e01b5f8181526001600160a01b038616600452602485905291602083604481808b5af1925060015f5114831661259a57838315161561258e573d5f823e3d81fd5b6001600160e01b031981168114611477575f5ffd5b5f60208284031215612d93575f5ffd5b813561183a81612d6e565b5f81518084528060208401602086015e5f602082860101526020601f19601f83011685010191505092915050565b602081525f61183a6020830184612d9e565b5f60208284031215612dee575f5ffd5b5035919050565b6001600160a01b0391909116815260200190565b80356001600160a01b0381168114612e1f575f5ffd5b919050565b5f5f60408385031215612e35575f5ffd5b612e3e83612e09565b946020939093013593505050565b5f60208284031215612e5c575f5ffd5b61183a82612e09565b634e487b7160e01b5f52602160045260245ffd5b60058110612e8957612e89612e65565b9052565b602081016107188284612e79565b5f5f60408385031215612eac575f5ffd5b50508035926020909101359150565b5f5f5f60608486031215612ecd575f5ffd5b612ed684612e09565b9250612ee460208501612e09565b929592945050506040919091013590565b602080825282518282018190525f918401906040840190835b81811015612f355783516001600160a01b0316835260209384019390920191600101612f0e565b509095945050505050565b5f5f60408385031215612f51575f5ffd5b612f5a83612e09565b915060208301358015158114612f6e575f5ffd5b809150509250929050565b8615158152602081018690526040810185905260c08101612f9d6060830186612e79565b921515608082015260a00152949350505050565b634e487b7160e01b5f52604160045260245ffd5b5f5f5f5f60808587031215612fd8575f5ffd5b612fe185612e09565b9350612fef60208601612e09565b92506040850135915060608501356001600160401b03811115613010575f5ffd5b8501601f81018713613020575f5ffd5b80356001600160401b0381111561303957613039612fb1565b604051601f8201601f19908116603f011681016001600160401b038111828210171561306757613067612fb1565b60405281815282820160200189101561307e575f5ffd5b816020840160208301375f6020838301015280935050505092959194509250565b60208101600383106130b3576130b3612e65565b91905290565b5f5f604083850312156130ca575f5ffd5b6130d383612e09565b91506130e160208401612e09565b90509250929050565b600181811c908216806130fe57607f821691505b60208210810361311c57634e487b7160e01b5f52602260045260245ffd5b50919050565b634e487b7160e01b5f52601160045260245ffd5b8082018082111561071857610718613122565b634e487b7160e01b5f52603260045260245ffd5b808202811582820484141761071857610718613122565b5f8261318e57634e487b7160e01b5f52601260045260245ffd5b500490565b8181038181111561071857610718613122565b5f81518060208401855e5f93019283525090919050565b683d913730b6b2911d1160b91b81525f6131da60098301886131a6565b6201016960ed1b81526131f060038201886131a6565b7f222c226465736372697074696f6e223a224261636b657220726577617264204e81527f465420666f722061207375636365737366756c204c4c4d2066756e647261697360208201526e1a5b99c818d85b5c185a59db8b888b608a1b60408201527f2261747472696275746573223a5b7b2274726169745f74797065223a2243616d604f8201526f3830b4b3b71116113b30b63ab2911d1160811b606f820152905061329f607f8201876131a6565b7f227d2c7b2274726169745f74797065223a224261636b6572204c6576656c222c815268113b30b63ab2911d1160b91b602082015290506132e360298201866131a6565b7f227d2c7b2274726169745f74797065223a2243616d706169676e204944222c228152673b30b63ab2911d1160c11b602082015290506028810161333a61332a82876131a6565b63227d5d7d60e01b815260040190565b9998505050505050505050565b7f646174613a6170706c69636174696f6e2f6a736f6e3b6261736536342c00000081525f61183a601d8301846131a6565b6020808252600a90820152696e6f742061637469766560b01b604082015260600190565b8381526020810183905260608101612b0d6040830184612e79565b604081525f5f84545f8160011c905060018216806133d657607f821691505b6020821081036133f457634e487b7160e01b5f52602260045260245ffd5b6040860182905260608601818015613413576001811461342957613455565b60ff198516825283151560051b82019550613455565b5f8a8152602090205f5b8581101561344f57815484820152600190910190602001613433565b83019650505b50505050508091505061183a6020830184612e79565b608081016134798287612e79565b6134866020830186612e79565b60408201939093526060015292915050565b6001600160a01b03858116825284166020820152604081018390526080606082018190525f906134ca90830184612d9e565b9695505050505050565b5f602082840312156134e4575f5ffd5b815161183a81612d6e565b5f6001820161350057613500613122565b5060010190565b5f60208284031215613517575f5ffd5b505191905056fea264697066735822122001207e0a7f7d76fa7c5d43d2f8c9df0c2fe8d6d29bc8b613209af4a95602172564736f6c634300081c0033a264697066735822122080ac93b986a69692bbe29bffa88be520b0526f08777f6bad02f7bd164e9baa5864736f6c634300081c0033",
  "linkReferences": {},
  "deployedLinkReferences": {},
  "immutableReferences": {
    "10116": [
      {
        "length": 32,
        "start": 376
      },
      {
        "length": 32,
        "start": 890
      }
    ],
    "10119": [
      {
        "length": 32,
        "start": 318
      },
      {
        "length": 32,
        "start": 923
      }
    ]
  },
  "inputSourceName": "project/contracts/CampaignFactory.sol",
  "buildInfoId": "solc-0_8_28-7f758b172016b2d44a985c98557aa55a0daa4b9d"
}