{
  "_format": "hh3-artifact-1",
  "contractName": "GPULease",
  "sourceName": "contracts/GPULease.sol",
  "abi": [
    {
      "inputs": [
        {
          "internalType": "address",
          "name": "credit_",
          "type": "address"
        },
        {
          "internalType": "address",
          "name": "treasury_",
          "type": "address"
        }
      ],
      "stateMutability": "nonpayable",
      "type": "constructor"
    },
    {
      "inputs": [
        {
          "internalType": "address",
          "name": "owner",
          "type": "address"
        }
      ],
      "name": "OwnableInvalidOwner",
      "type": "error"
    },
    {
      "inputs": [
        {
          "internalType": "address",
          "name": "account",
          "type": "address"
        }
      ],
      "name": "OwnableUnauthorizedAccount",
      "type": "error"
    },
    {
      "inputs": [
        {
          "internalType": "address",
          "name": "token",
          "type": "address"
        }
      ],
      "name": "SafeERC20FailedOperation",
      "type": "error"
    },
    {
      "anonymous": false,
      "inputs": [
        {
          "indexed": true,
          "internalType": "address",
          "name": "user",
          "type": "address"
        },
        {
          "indexed": false,
          "internalType": "uint256",
          "name": "amount",
          "type": "uint256"
        }
      ],
      "name": "Deposit",
      "type": "event"
    },
    {
      "anonymous": false,
      "inputs": [
        {
          "indexed": false,
          "internalType": "uint256",
          "name": "leaseId",
          "type": "uint256"
        }
      ],
      "name": "LeaseCompleted",
      "type": "event"
    },
    {
      "anonymous": false,
      "inputs": [
        {
          "indexed": false,
          "internalType": "uint256",
          "name": "leaseId",
          "type": "uint256"
        }
      ],
      "name": "LeasePaused",
      "type": "event"
    },
    {
      "anonymous": false,
      "inputs": [
        {
          "indexed": false,
          "internalType": "uint256",
          "name": "leaseId",
          "type": "uint256"
        }
      ],
      "name": "LeaseResumed",
      "type": "event"
    },
    {
      "anonymous": false,
      "inputs": [
        {
          "indexed": false,
          "internalType": "uint256",
          "name": "leaseId",
          "type": "uint256"
        },
        {
          "indexed": false,
          "internalType": "address",
          "name": "user",
          "type": "address"
        },
        {
          "indexed": false,
          "internalType": "address",
          "name": "provider",
          "type": "address"
        },
        {
          "indexed": false,
          "internalType": "uint256",
          "name": "duration",
          "type": "uint256"
        },
        {
          "indexed": false,
          "internalType": "uint256",
          "name": "amount",
          "type": "uint256"
        }
      ],
      "name": "LeaseStarted",
      "type": "event"
    },
    {
      "anonymous": false,
      "inputs": [
        {
          "indexed": true,
          "internalType": "address",
          "name": "previousOwner",
          "type": "address"
        },
        {
          "indexed": true,
          "internalType": "address",
          "name": "newOwner",
          "type": "address"
        }
      ],
      "name": "OwnershipTransferred",
      "type": "event"
    },
    {
      "anonymous": false,
      "inputs": [
        {
          "indexed": true,
          "internalType": "address",
          "name": "user",
          "type": "address"
        },
        {
          "indexed": false,
          "internalType": "uint256",
          "name": "amount",
          "type": "uint256"
        }
      ],
      "name": "Withdraw",
      "type": "event"
    },
    {
      "inputs": [
        {
          "internalType": "address",
          "name": "",
          "type": "address"
        }
      ],
      "name": "balances",
      "outputs": [
        {
          "internalType": "uint256",
          "name": "",
          "type": "uint256"
        }
      ],
      "stateMutability": "view",
      "type": "function"
    },
    {
      "inputs": [
        {
          "internalType": "uint256",
          "name": "_leaseId",
          "type": "uint256"
        }
      ],
      "name": "completeLease",
      "outputs": [],
      "stateMutability": "nonpayable",
      "type": "function"
    },
    {
      "inputs": [],
      "name": "credit",
      "outputs": [
        {
          "internalType": "contract IERC20",
          "name": "",
          "type": "address"
        }
      ],
      "stateMutability": "view",
      "type": "function"
    },
    {
      "inputs": [
        {
          "internalType": "uint256",
          "name": "amount",
          "type": "uint256"
        }
      ],
      "name": "deposit",
      "outputs": [],
      "stateMutability": "nonpayable",
      "type": "function"
    },
    {
      "inputs": [
        {
          "internalType": "uint256",
          "name": "",
          "type": "uint256"
        }
      ],
      "name": "frozenFunds",
      "outputs": [
        {
          "internalType": "uint256",
          "name": "",
          "type": "uint256"
        }
      ],
      "stateMutability": "view",
      "type": "function"
    },
    {
      "inputs": [
        {
          "internalType": "address",
          "name": "user",
          "type": "address"
        }
      ],
      "name": "getUserFrozenFunds",
      "outputs": [
        {
          "components": [
            {
              "internalType": "uint256",
              "name": "leaseId",
              "type": "uint256"
            },
            {
              "internalType": "uint256",
              "name": "amount",
              "type": "uint256"
            }
          ],
          "internalType": "struct GPULease.FrozenFundsInfo[]",
          "name": "result",
          "type": "tuple[]"
        }
      ],
      "stateMutability": "view",
      "type": "function"
    },
    {
      "inputs": [],
      "name": "leaseCount",
      "outputs": [
        {
          "internalType": "uint256",
          "name": "",
          "type": "uint256"
        }
      ],
      "stateMutability": "view",
      "type": "function"
    },
    {
      "inputs": [
        {
          "internalType": "uint256",
          "name": "",
          "type": "uint256"
        }
      ],
      "name": "leases",
      "outputs": [
        {
          "internalType": "address",
          "name": "user",
          "type": "address"
        },
        {
          "internalType": "address",
          "name": "provider",
          "type": "address"
        },
        {
          "internalType": "uint256",
          "name": "startTime",
          "type": "uint256"
        },
        {
          "internalType": "uint256",
          "name": "duration",
          "type": "uint256"
        },
        {
          "internalType": "uint256",
          "name": "storagePricePerSecond",
          "type": "uint256"
        },
        {
          "internalType": "uint256",
          "name": "computePricePerSecond",
          "type": "uint256"
        },
        {
          "internalType": "bool",
          "name": "active",
          "type": "bool"
        },
        {
          "internalType": "bool",
          "name": "completed",
          "type": "bool"
        },
        {
          "internalType": "bool",
          "name": "paused",
          "type": "bool"
        },
        {
          "internalType": "uint256",
          "name": "pausedAt",
          "type": "uint256"
        },
        {
          "internalType": "uint256",
          "name": "pausedDuration",
          "type": "uint256"
        }
      ],
      "stateMutability": "view",
      "type": "function"
    },
    {
      "inputs": [],
      "name": "owner",
      "outputs": [
        {
          "internalType": "address",
          "name": "",
          "type": "address"
        }
      ],
      "stateMutability": "view",
      "type": "function"
    },
    {
      "inputs": [
        {
          "internalType": "uint256",
          "name": "_leaseId",
          "type": "uint256"
        }
      ],
      "name": "pauseLease",
      "outputs": [],
      "stateMutability": "nonpayable",
      "type": "function"
    },
    {
      "inputs": [],
      "name": "platformFeePercentage",
      "outputs": [
        {
          "internalType": "uint256",
          "name": "",
          "type": "uint256"
        }
      ],
      "stateMutability": "view",
      "type": "function"
    },
    {
      "inputs": [],
      "name": "renounceOwnership",
      "outputs": [],
      "stateMutability": "nonpayable",
      "type": "function"
    },
    {
      "inputs": [
        {
          "internalType": "uint256",
          "name": "_leaseId",
          "type": "uint256"
        }
      ],
      "name": "resumeLease",
      "outputs": [],
      "stateMutability": "nonpayable",
      "type": "function"
    },
    {
      "inputs": [
        {
          "internalType": "uint256",
          "name": "_feePercentage",
          "type": "uint256"
        }
      ],
      "name": "setPlatformFee",
      "outputs": [],
      "stateMutability": "nonpayable",
      "type": "function"
    },
    {
      "inputs": [
        {
          "internalType": "address",
          "name": "newTreasury",
          "type": "address"
        }
      ],
      "name": "setTreasury",
      "outputs": [],
      "stateMutability": "nonpayable",
      "type": "function"
    },
    {
      "inputs": [
        {
          "internalType": "uint256",
          "name": "_duration",
          "type": "uint256"
        },
        {
          "internalType": "uint256",
          "name": "_storagePricePerSecond",
          "type": "uint256"
        },
        {
          "internalType": "uint256",
          "name": "_computePricePerSecond",
          "type": "uint256"
        },
        {
          "internalType": "address",
          "name": "_provider",
          "type": "address"
        },
        {
          "internalType": "address",
          "name": "_user",
          "type": "address"
        }
      ],
      "name": "startLease",
      "outputs": [
        {
          "internalType": "uint256",
          "name": "leaseId",
          "type": "uint256"
        }
      ],
      "stateMutability": "nonpayable",
      "type": "function"
    },
    {
      "inputs": [
        {
          "internalType": "address",
          "name": "newOwner",
          "type": "address"
        }
      ],
      "name": "transferOwnership",
      "outputs": [],
      "stateMutability": "nonpayable",
      "type": "function"
    },
    {
      "inputs": [],
      "name": "treasury",
      "outputs": [
        {
          "internalType": "address",
          "name": "",
          "type": "address"
        }
      ],
      "stateMutability": "view",
      "type": "function"
    },
    {
      "inputs": [
        {
          "internalType": "address",
          "name": "",
          "type": "address"
        },
        {
          "internalType": "uint256",
          "name": "",
          "type": "uint256"
        }
      ],
      "name": "userActiveLeases",
      "outputs": [
        {
          "internalType": "uint256",
          "name": "",
          "type": "uint256"
        }
      ],
      "stateMutability": "view",
      "type": "function"
    },
    {
      "inputs": [
        {
          "internalType": "address",
          "name": "user",
          "type": "address"
        }
      ],
      "name": "userBalance",
      "outputs": [
        {
          "internalType": "uint256",
          "name": "",
          "type": "uint256"
        }
      ],
      "stateMutability": "view",
      "type": "function"
    },
    {
      "inputs": [
        {
          "internalType": "uint256",
          "name": "amount",
          "type": "uint256"
        }
      ],
      "name": "withdraw",
      "outputs": [],
      "stateMutability": "nonpayable",
      "type": "function"
    }
  ],
  "bytecode": "0x60806040525f6007556005600855348015610018575f5ffd5b506040516116cf3803806116cf83398101604081905261003791610101565b338061005c57604051631e4fbdf760e01b81525f600482015260240160405180910390fd5b61006581610097565b50600180546001600160a01b039384166001600160a01b03199182161790915560028054929093169116179055610132565b5f80546001600160a01b038381166001600160a01b0319831681178455604051919092169283917f8be0079c531659141344cd1fd0a4f28419497f9722a3daafe3b4186f6b6457e09190a35050565b80516001600160a01b03811681146100fc575f5ffd5b919050565b5f5f60408385031215610112575f5ffd5b61011b836100e6565b9150610129602084016100e6565b90509250929050565b6115908061013f5f395ff3fe608060405234801561000f575f5ffd5b5060043610610105575f3560e01c80630103c92b1461010957806312e8e2c31461012f57806318ba11c91461014457806327e235e3146101575780632e1a7d4d1461017657806361d027b314610189578063715018a6146101a95780638927a106146101b15780638da5cb5b1461029057806395e6e2421461029857806397c4d284146102ab578063a06d083c146102cb578063a641992a146102de578063b4c0498b146102fd578063b6b55f2514610306578063b8eeaa7814610319578063cdd78cfc1461032c578063e869a06014610335578063f0f4426014610348578063f2fde38b1461035b578063f648da801461036e575b5f5ffd5b61011c610117366004611325565b610381565b6040519081526020015b60405180910390f35b61014261013d366004611345565b61039b565b005b610142610152366004611345565b6103ed565b61011c610165366004611325565b60046020525f908152604090205481565b610142610184366004611345565b610519565b60025461019c906001600160a01b031681565b604051610126919061135c565b6101426105e1565b61022c6101bf366004611345565b600660208190525f91825260409091208054600182015460028301546003840154600485015460058601549686015460078701546008909701546001600160a01b0396871698969095169693959294919360ff80831693610100840482169362010000900490911691908b565b604080516001600160a01b039c8d1681529b909a1660208c0152988a01979097526060890195909552608088019390935260a0870191909152151560c0860152151560e0850152151561010084015261012083015261014082015261016001610126565b61019c6105f4565b6101426102a6366004611345565b610602565b6102be6102b9366004611325565b6108b3565b6040516101269190611370565b60015461019c906001600160a01b031681565b61011c6102ec366004611345565b60056020525f908152604090205481565b61011c60075481565b610142610314366004611345565b6109aa565b610142610327366004611345565b610a17565b61011c60085481565b61011c6103433660046113be565b610b28565b610142610356366004611325565b610b53565b610142610369366004611325565b610c1e565b61011c61037c3660046113e6565b610c5b565b6001600160a01b03165f9081526004602052604090205490565b6103a361105d565b60648111156103e85760405162461bcd60e51b815260206004820152600c60248201526b08ccaca40e8dede40d0d2ced60a31b60448201526064015b60405180910390fd5b600855565b6103f561105d565b5f8181526006602081905260409091209081015460ff166104285760405162461bcd60e51b81526004016103df90611432565b6006810154610100900460ff16156104525760405162461bcd60e51b81526004016103df9061145f565b600681015462010000900460ff166104a25760405162461bcd60e51b81526020600482015260136024820152721319585cd9481a5cc81b9bdd081c185d5cd959606a1b60448201526064016103df565b5f8160070154426104b391906114a4565b905080826008015f8282546104c891906114bd565b90915550505f600783015560068201805462ff0000191690556040518381527f0ec1e889672cca90b2287dde9161b83295c31ef8ed2a8bd943a7f04b183f91679060200160405180910390a1505050565b335f9081526004602052604090205481111561056e5760405162461bcd60e51b8152602060048201526014602482015273696e73756666696369656e742062616c616e636560601b60448201526064016103df565b600154610585906001600160a01b0316338361108f565b335f90815260046020526040812080548392906105a39084906114a4565b909155505060405181815233907f884edad9ce6fa2440d8a54cc123490eb96d2768479d49ff9c7366125a9424364906020015b60405180910390a250565b6105e961105d565b6105f25f6110c0565b565b5f546001600160a01b031690565b61060a61105d565b5f8181526006602081905260409091209081015460ff1661063d5760405162461bcd60e51b81526004016103df90611432565b6006810154610100900460ff16156106675760405162461bcd60e51b81526004016103df9061145f565b5f5f6106728461110f565b90925090505f61068282846114bd565b90505f60646008548361069591906114d0565b61069f91906114e7565b6002546001600160a01b03165f908152600460205260408120805492935083929091906106cd9084906114bd565b90915550505f86815260056020526040812080548392906106ef9084906114a4565b909155505f905061070082846114a4565b60018701546001600160a01b03165f908152600460205260408120805492935083929091906107309084906114bd565b90915550505f87815260056020526040812080548392906107529084906114a4565b90915550505f8781526005602090815260408083205489546001600160a01b031684526004909252822080549192909161078d9084906114bd565b90915550505f8781526005602090815260408083208390556006808a01805461ffff19166101001790558252808320546001600160a01b03168084526003909252822090915b815481101561087457898282815481106107ef576107ef611506565b905f5260205f2001540361086c578154829061080d906001906114a4565b8154811061081d5761081d611506565b905f5260205f20015482828154811061083857610838611506565b905f5260205f200181905550818054806108545761085461151a565b600190038181905f5260205f20015f90559055610874565b6001016107d3565b506040518981527f5a1241b1f059ce7cc7acee21bf522f44360638a58f17c58bd390a0f0af7e19379060200160405180910390a1505050505050505050565b6001600160a01b0381165f9081526003602052604090208054606091906001600160401b038111156108e7576108e761152e565b60405190808252806020026020018201604052801561092b57816020015b604080518082019091525f80825260208201528152602001906001900390816109055790505b5091505f5b81548110156109a3575f82828154811061094c5761094c611506565b905f5260205f2001549050604051806040016040528082815260200160055f8481526020019081526020015f205481525084838151811061098f5761098f611506565b602090810291909101015250600101610930565b5050919050565b6001546109c2906001600160a01b0316333084611208565b335f90815260046020526040812080548392906109e09084906114bd565b909155505060405181815233907fe1fffcc4923d04b559f4d29a8bfc6cda04eb5b0d3c460751c2402c5c5cc9109c906020016105d6565b610a1f61105d565b5f8181526006602081905260409091209081015460ff16610a525760405162461bcd60e51b81526004016103df90611432565b6006810154610100900460ff1615610a7c5760405162461bcd60e51b81526004016103df9061145f565b600681015462010000900460ff1615610ad15760405162461bcd60e51b81526020600482015260176024820152761319585cd9481a5cc8185b1c9958591e481c185d5cd959604a1b60448201526064016103df565b42600782015560068101805462ff00001916620100001790556040517fb04140f2785e8aa46842b88fdbee148f5bcd51a8e9c4b367b7f431e80a6ed5a190610b1c9084815260200190565b60405180910390a15050565b6003602052815f5260405f208181548110610b41575f80fd5b905f5260205f20015f91509150505481565b610b5b61105d565b6001600160a01b038116610ba15760405162461bcd60e51b815260206004820152600d60248201526c7a65726f20747265617375727960981b60448201526064016103df565b6002545f90610bb8906001600160a01b0316610381565b6001600160a01b0383165f90815260046020526040812080549293508392909190610be49084906114bd565b9091555050600280546001600160a01b039081165f9081526004602052604081205581546001600160a01b03191693169290921790915550565b610c2661105d565b6001600160a01b038116610c4f575f604051631e4fbdf760e01b81526004016103df919061135c565b610c58816110c0565b50565b5f610c6461105d565b5f8611610caa5760405162461bcd60e51b815260206004820152601460248201527304475726174696f6e206d757374206265203e20360641b60448201526064016103df565b5f851180610cb757505f84115b610d035760405162461bcd60e51b815260206004820152601e60248201527f4174206c65617374206f6e65207072696365206d757374206265203e2030000060448201526064016103df565b6001600160a01b038216610d485760405162461bcd60e51b815260206004820152600c60248201526b34b73b30b634b2103ab9b2b960a11b60448201526064016103df565b6001600160a01b038316610d915760405162461bcd60e51b815260206004820152601060248201526f34b73b30b634b210383937bb34b232b960811b60448201526064016103df565b5f610d9c86886114d0565b90505f610da986896114d0565b90505f610db682846114bd565b90505f606460085483610dc991906114d0565b610dd391906114e7565b9050610ddf81836114bd565b6001600160a01b0387165f90815260046020526040902054909250821115610e465760405162461bcd60e51b815260206004820152601a602482015279496e73756666696369656e7420746f6b656e2062616c616e636560301b60448201526064016103df565b6001600160a01b0386165f90815260046020526040902054610e699083906114a4565b6001600160a01b0387165f90815260046020908152604080832093909355600780548352600590915291812084905581549650869190610ea883611542565b909155505060408051610160810182526001600160a01b03808916825289166020820152908101610edb61012c426114a4565b815260208082018d905260408083018d905260608084018d9052600160808086018290525f60a080880182905260c080890183905260e0808a01849052610100998a018490528f84526006808a528885208c5181546001600160a01b03199081166001600160a01b039283161783558e8d0151838b0180549092169083161790558d8b015160028301558d8a01516003808401919091558e89015160048401558e8701516005840155948e01519282018054948f01518f8f015161ffff1990961694151561ff00191694909417931515909d029290921762ff00001916620100009315159390930292909217909a556101208b01516007820155610140909a01516008909a01999099558e8816808352988752858220805494850181558252908690209092018c905583518c815294850196909652938c169183019190915281018d90529182018490527f4501059f1dbad8e151132c2515ee7ea78d4b2540b9e56e941a03fdb9888efe28910160405180910390a15050505095945050505050565b336110666105f4565b6001600160a01b0316146105f2573360405163118cdaa760e01b81526004016103df919061135c565b61109c838383600161123b565b6110bb5782604051635274afe760e01b81526004016103df919061135c565b505050565b5f80546001600160a01b038381166001600160a01b0319831681178455604051919092169283917f8be0079c531659141344cd1fd0a4f28419497f9722a3daafe3b4186f6b6457e09190a35050565b5f81815260066020526040812060028101548291906111645760405162461bcd60e51b81526020600482015260116024820152701319585cd9481b9bdd081cdd185c9d1959607a1b60448201526064016103df565b5f81600201544261117591906114a4565b9050816003015481111561118a575060038101545b6008820154600683015462010000900460ff16156111c3575f8360070154426111b391906114a4565b90506111bf81836114bd565b9150505b818111156111ce5750805b5f6111d982846114a4565b90508360040154836111eb91906114d0565b95508360050154816111fd91906114d0565b945050505050915091565b61121684848484600161129d565b6112355783604051635274afe760e01b81526004016103df919061135c565b50505050565b60405163a9059cbb60e01b5f8181526001600160a01b038616600452602485905291602083604481808b5af1925060015f51148316611291578383151615611285573d5f823e3d81fd5b5f873b113d1516831692505b60405250949350505050565b6040516323b872dd60e01b5f8181526001600160a01b038781166004528616602452604485905291602083606481808c5af1925060015f511483166112f95783831516156112ed573d5f823e3d81fd5b5f883b113d1516831692505b604052505f60605295945050505050565b80356001600160a01b0381168114611320575f5ffd5b919050565b5f60208284031215611335575f5ffd5b61133e8261130a565b9392505050565b5f60208284031215611355575f5ffd5b5035919050565b6001600160a01b0391909116815260200190565b602080825282518282018190525f918401906040840190835b818110156113b3578351805184526020908101518185015290930192604090920191600101611389565b509095945050505050565b5f5f604083850312156113cf575f5ffd5b6113d88361130a565b946020939093013593505050565b5f5f5f5f5f60a086880312156113fa575f5ffd5b8535945060208601359350604086013592506114186060870161130a565b91506114266080870161130a565b90509295509295909350565b6020808252601390820152724c65617365206973206e6f742061637469766560681b604082015260600190565b6020808252601790820152761319585cd948185b1c9958591e4818dbdb5c1b195d1959604a1b604082015260600190565b634e487b7160e01b5f52601160045260245ffd5b818103818111156114b7576114b7611490565b92915050565b808201808211156114b7576114b7611490565b80820281158282048414176114b7576114b7611490565b5f8261150157634e487b7160e01b5f52601260045260245ffd5b500490565b634e487b7160e01b5f52603260045260245ffd5b634e487b7160e01b5f52603160045260245ffd5b634e487b7160e01b5f52604160045260245ffd5b5f6001820161155357611553611490565b506001019056fea2646970667358221220715b25d97c40d422a68781e019145104e099679d6714075cc377f07ac4b44fd164736f6c634300081c0033",
  "linkReferences": {},
  "deployedLinkReferences": {},
  "immutableReferences": {},
  "inputSourceName": "project/contracts/GPULease.sol",
  "buildInfoId": "solc-0_8_28-fabb741ff9c383c5a141e560bad104e1ef712840"
}